:020000040800F2
:1000000000000220F12800086D2800086F28000871
:1000100071280008732800087528000800000000F7
:100020000000000000000000000000007728000829
:1000300079280008000000007B2800087D280008BF
:1000400041290008412900084129000841290008E8
:1000500041290008412900084129000841290008D8
:1000600041290008412900084129000841290008C8
:1000700041290008412900084129000841290008B8
:100080008528000841290008412900084129000865
:100090004129000841290008412900084129000898
:1000A0004129000841290008412900084129000888
:1000B0009528000841290008412900084129000825
:1000C0004129000841290008412900084129000868
:1000D0004129000841290008412900084129000858
:1000E0004129000841290008412900084129000848
:1000F0004129000841290008412900084129000838
:100100004129000841290008412900084129000827
:100110004129000841290008412900084129000817
:100120004129000841290008412900084129000807
:1001300041290008412900084129000841290008F7
:1001400041290008412900084129000841290008E7
:1001500041290008412900084129000841290008D7
:1001600041290008412900084129000841290008C7
:100170004129000841290008412900080000000029
:08018000412900084129000893
:1001880010B5054C237833B9044B13B10448AFF3C9
:1001980000800123237010BD0C0000200000000027
:1001A8009C29000808B5034B1BB103490348AFF36A
:1001B800008008BD00000000100000209C290008F5
:1001C80053B94AB9002908BF00281CBF4FF0FF31B6
:1001D8004FF0FF3000F072B9ADF1080C6DE904CEB4
:1001E80000F006F8DDF804E0DDE9022304B070470A
:1001F8002DE9F047089E04468846002B4BD18A42D9
:10020800154667D9B2FA82F24AB1C2F1200701FA5B
:1002180002F320FA07F7954047EA030894404FEAAB
:10022800154E230CB8FBFEF71FFA85FC0EFB17884A
:1002380043EA084307FB0CF1994209D9EB1807F187
:10024800FF3080F01B81994240F21881023F2B4415
:100258005B1AA4B2B3FBFEF00EFB103344EA03446E
:1002680000FB0CFCA44509D92C1900F1FF3380F0E0
:100278000781A44540F2048102382C4440EA074033
:10028800A4EB0C0400271EB1D4400023C6E90043A8
:100298003946BDE8F0878B4209D9002E00F0EB8083
:1002A8000027C6E9000138463946BDE8F087B3FAA9
:1002B80083F7002F47D18B4202D3824200F2FA80A3
:1002C800841A61EB030301209846002EE0D0C6E9AA
:1002D8000048DDE702B9FFDEB2FA82F2002A40F0F8
:1002E8008F80491B4FEA154E1FFA85F80127B1FB8D
:1002F800FEFC230C0EFB1C1143EA014308FB0CF126
:10030800994207D9EB180CF1FF3002D2994200F25A
:10031800CD808446591AA3B2B1FBFEF00EFB10142F
:1003280043EA044408FB00F8A04507D92C1900F15A
:10033800FF3302D2A04500F2B6801846A4EB0804A9
:1003480040EA0C409FE7C7F1200CBB4022FA0CFEA4
:100358004EEA030E01FA07F420FA0CF521FA0CF321
:100368004FEA1E482543B3FBF8F92C0C08FB193358
:100378001FFA8EFA44EA034309FB0AF49C4202FA84
:1003880007F200FA07F10BD91EEB030309F1FF305E
:1003980080F087809C4240F28480A9F1020973446E
:1003A8001B1BADB2B3FBF8F008FB103345EA03445E
:1003B80000FB0AFAA24508D91EEB040400F1FF333A
:1003C8006BD2A24569D90238744440EA0940A0FBBF
:1003D8000289A4EB0A044C45C2464B4654D351D07B
:1003E800002E69D0B1EB0A0564EB030404FA0CFC97
:1003F800FD40FC404CEA0505C6E90054002747E7E4
:10040800C2F1200320FA03F7954001FA02F021FA1D
:1004180003F34FEA154E3843010CB3FBFEF71FFAFE
:1004280085F80EFB173341EA034107FB08F38B42BB
:1004380004FA02F407D9691807F1FF3C2FD28B425E
:100448002DD9023F2944CB1A81B2B3FBFEF00EFB33
:10045800103341EA034100FB08F38B4207D96918BE
:1004680000F1FF3C17D28B4215D902382944C91A2A
:1004780040EA07473BE73746304609E70746E7E6DD
:100488001846FBE64145ABD2B8EB020A69EB0E020F
:1004980001381346A4E76046E9E7184695E767463A
:1004A800D1E781467CE702382C4447E7ACF1020CDF
:1004B8002B442FE7384608E73746E9E6704700BF80
:1004C80010B504460E4B18784FF47A73B3FBF0F36B
:1004D8000C4A1068B0FBF3F000F094F868B90F2CE0
:1004E80001D901200AE0002221464FF0FF3000F038
:1004F80049F8034B5C60002000E0012010BD00BFFC
:10050800000000200800002008B50B4B1A6842F4D0
:1005180000721A601A6842F480621A601A6842F41B
:1005280080721A60032000F01BF80020FFF7C8FF54
:1005380002F040F8002008BD003C0240034A116860
:10054800034B1B780B441360704700BF2800002042
:1005580000000020014B1868704700BF28000020E9
:10056800074AD36823F4E0631B041B0C000200F461
:10057800E060184340F0BF6040F40030D06070473E
:1005880000ED00E030B4174BDB68C3F30223C3F17E
:100598000704042C28BF04241D1D062D18D9033B6D
:1005A8004FF0FF3505FA04F421EA0401994005FAF1
:1005B80003F322EA0303194300280BDB0901C9B23C
:1005C80000F1604000F5614080F8001330BC7047CE
:1005D8000023E5E700F00F000901C9B2024B1954E6
:1005E800F4E700BF00ED00E014ED00E000F01F02AA
:1005F800400901239340024A42F82030704700BF67
:1006080000E100E00138B0F1807F0AD2064B586063
:10061800064AF02182F823100020986007221A6009
:1006280070470120704700BF10E000E000ED00E0D7
:1006380070B110B50446037933B102232371002049
:1006480020610123237110BD437101F0CFFFF4E74E
:10065800012070474379012B1FD070B401254571E3
:10066800022303710668336840F6FE74944023EA57
:1006780004040B6849680B439340234333600468C0
:100688002368C02101FA02F223EA020222600571FE
:1006980000234371184670BC704702207047000061
:1006A8000268D3B2103B0B49A1FB03131B090A498B
:1006B800C95CC165032B06D822F47F7222F00302BD
:1006C8008265806D704722F47F7222F00302043243
:1006D8008265F6E7ABAAAAAAB4290008836A8269E8
:1006E80092B9012B0AD01BB1022B01D00020704710
:1006F800C36A13F0807F2CD100207047C36AB3F11E
:10070800C07F28D000207047B2F5005F05D0022BCB
:1007180029D9032B15D000207047032B03D8DFE815
:1007280003F01C041C0A00207047C36A13F0807F82
:1007380015D100207047C36AB3F1C07F11D00020E3
:100748007047C36A13F0807F01D0012070470020F2
:100758007047012070470120704701207047012031
:1007680070470120704701207047000070B50446AB
:10077800FFF7F0FE002C5BD00546002384F83430E8
:10078800022384F835302268136823F001031360CC
:1007980023681A6812F0010F0AD0FFF7DBFE401B2E
:1007A8000528F5D920236365032084F8350070BD3A
:1007B8001A68204810406168A2680A43E1680A4341
:1007C80021690A4361690A43A1690A43E1690A4345
:1007D800216A0A430243616A04291ED01A60266806
:1007E800756925F00705636A1D43042B07D1A36AC1
:1007F8001D43E36A1BB12046FFF770FF90B975618E
:100808002046FFF74DFFE26D3F23934083600020B1
:100818006065012384F83530C9E7E16A206B01433C
:100828000A43DBE740236365012084F83500BEE70F
:100838000120BCE73F8010F0F0B583B004460023E8
:100848000193724B1D68724BA3FB0535AD0A876D8A
:100858003E68C26D08239340334210D003681A687B
:1008680012F0040F0BD01A6822F004021A60C26D4D
:1008780008239340BB60436D43F001034365E26D79
:1008880001239340334209D02268526912F0800F45
:1008980004D0BB60636D43F002036365E26D04231B
:1008A8009340334209D02268126812F0020F04D034
:1008B800BB60636D43F004036365E26D10239340EE
:1008C800334224D02268126812F0080F1FD0BB6090
:1008D80023681A6812F4802F0DD01B6813F4002FB8
:1008E80004D1236C9BB12046984710E0A36C73B1E8
:1008F800204698470BE01A6812F4807F03D11A68E3
:1009080022F008021A60236C0BB120469847E26D6A
:1009180020239340334255D02268126812F0100FFA
:1009280050D0BB6094F83530DBB2052B0ED023686D
:100938001A6812F4802F33D01B6813F4002F2AD1C1
:10094800636C002B3ED0204698473BE02268136832
:1009580023F0160313602268536923F08003536160
:10096800236CA3B12268136823F008031360E26DB7
:100978003F239340BB60002384F83430012384F87C
:100988003530236D002B3FD0204698473CE0A36CC0
:10099800002BE7D1EBE7E36BA3B12046984711E0C2
:1009A8001A6812F4807F09D11A6822F010021A60BE
:1009B800002384F83430012384F83530E36B0BB11D
:1009C80020469847636DFBB1636D13F0010F17D094
:1009D800052384F835302268136823F00103136077
:1009E800019B01330193AB4204D823681B6813F0C1
:1009F800010FF5D1002384F83430012384F8353011
:100A0800E36C0BB12046984703B0F0BD0800002006
:100A1800B5814E1B00230F2B00F2D780F0B482B0B3
:100A280039E0072200E00022B2403A430234674E20
:100A380046F82420664A1468EA4302EA04064F6826
:100A480017F4803F01D045EA0406614C26606468CB
:100A580002EA04064F6817F4003F01D045EA04068D
:100A68005B4C6660A46802EA04064F6817F4801FAE
:100A780001D045EA0406564CA660E46822404E6858
:100A880016F4001F01D045EA0402514CE26001331C
:100A98000F2B00F2978001229A400C6804EA0205A5
:100AA800AA42F4D14C68022C01D0122C10D1DE08D5
:100AB800083650F826C003F00704A7000F24BC40EE
:100AC8002CEA040C0C69BC4044EA0C0440F82640AB
:100AD80004685F000326BE40F64306EA040C4C682F
:100AE80004F00304BC4044EA0C0404604C6804F1BC
:100AF800FF3CBCF1010F03D9112C01D0122C10D1ED
:100B0800846806EA040CCC68BC4044EA0C0484609F
:100B1800446824EA02024C68C4F300149C4014435D
:100B28004460C26816408A68BA403243C2604A6864
:100B380012F0805FABD000220192264A546C44F434
:100B480080445464526C02F480420192019A9C08D9
:100B5800A61C1E4A52F8267003F0030296000F22C4
:100B6800B24027EA02071C4A90423FF45CAF02F504
:100B7800806290421AD002F58062904218D002F545
:100B88008062904216D002F58062904214D002F53D
:100B98008062904212D002F58062904210D002F535
:100BA800806290423FF43DAF08223DE701223BE7D7
:100BB800022239E7032237E7042235E7052233E723
:100BC800062231E702B0F0BC704770470038014098
:100BD800003C0140003802400000024012B90904FC
:100BE8008161704781617047002800F0828010B5EC
:100BF800044690F83D30002B41D0242384F83D3042
:100C08002268136823F00103136000F07DFE3A4B5D
:100C1800A3FB00239B0C226853606168374A91420A
:100C280032D80133226813626368344A934235D854
:100C38005B00B0FBF3F0C0F30B03032B00D80420D8
:100C48002368D861E369216A22680B43136023692A
:100C5800E16822680B4393606369A16922680B43CA
:100C6800D3602268136843F00103136000202064F6
:100C7800202384F83D30206384F83E0010BD80F8BE
:100C88003C3001F0E7FCB8E74FF4967202FB03F33F
:100C98001B4AA2FB03239B090133C3E7A16889B957
:100CA80003EB4302B0FBF2F2C2F30B02B2FA82F298
:100CB8005209E2B991B903EB4303B0FBF3F040F4F6
:100CC8000040BDE703EB830202EB8202B0FBF2F2C5
:100CD800C2F30B02B2FA82F25209EAE703EB83038A
:100CE80003EB8303B0FBF3F040F44040A8E7012096
:100CF800A6E70120704700BF83DE1B43A0860100E2
:100D0800D34D6210704708B5436A9A1C4262026864
:100D18001B88D360438D013B9BB24385438D9BB2B7
:100D280003B108BD0268536823F0A0031B041B0C21
:100D38005360012380F84130FFF7E4FFF1E7704783
:100D480008B50368DA68C36A991CC1621A80438EC1
:100D5800013B9BB24386438E9BB203B108BD026838
:100D6800536823F060031B041B0C5360012380F8B5
:100D78004130FFF7E4FFF1E770470000002800F07A
:100D8800BB8070B50446022580F841505B4B436335
:100D980001F09AFC2268D36923F47B6323F00F03E4
:100DA800D36123681D622368DD696369022B5BD008
:100DB800E368002B3ED02026A368202B00D87600BD
:100DC800012000F06BFE2369B3F5007F34D0B0FB3F
:100DD800F6F000EB800043006269B3FBF2F30533E1
:100DE800474AA2FB0323DB0803F001029B1AC3F363
:100DF8004F0311029A1EFD2A38D822690A43216836
:100E080013430B626268A168E068238B03439BB2BB
:100E18000B439BB213439BB243F400631D43236807
:100E2800DD61236A012B2AD000206064012384F845
:100E3800413070BD1026BFE7E36853B1B600B0FB80
:100E4800F6F000EB800043006269B3FBF2F3053370
:100E5800C6E7F600B0FBF6F000EB800043006269DD
:100E6800B3FBF2F30533BBE70021C3E7636C43F040
:100E7800100363642046FFF77FFF0120D9E7214B69
:100E880063632268204B9A421ED04FF04022D369F8
:100E980023F47B6323F00F03D36122681A4B9A4231
:100EA80014D04FF0402302221A622268164B9A424D
:100EB8000FD04FF04022D0696168B1F5007F0AD0A9
:100EC800C1B94FF4807608E0104AE0E7A3F58063E3
:100ED800E9E70E4AEFE74FF48076A168E568238BCF
:100EE8002B439BB20B439BB2334343F4006303434E
:100EF800D36199E70026F0E701207047190F000831
:100F0800CDCCCCCC3511000800380040003400406E
:100F180010B584B0044602689368039390F8413092
:100F2800DBB2042B06D094F84130DBB2032B2ED071
:100F380004B010BD039B13F0010F03D0536813F0E6
:100F4800400F21D1039B13F0400FECD023685A685F
:100F580012F0200FE7D05A6822F060021204120C37
:100F68005A60002301932368DA6801929B68019311
:100F7800019B012384F84130636C43F002036364EE
:100F88002046FFF7F9FECEE7FFF7DAFEDAE7039B24
:100F980013F0020F04D023685B6813F0800F1FD191
:100FA800039B13F0080FC3D023685A6812F0200F70
:100FB800BED05A6822F0A0021204120C5A60002314
:100FC800029323689B680293029B012384F84130B3
:100FD800636C43F0040363642046FFF7CDFEA7E784
:100FE8002046FFF790FEDBE77047000008B5E9B937
:100FF800436A9A1C426202681B88D360438D013B96
:101008009BB24385438D9BB24BB90268536823F06A
:10101800A0031B041B0C5360438E9BB203B108BD95
:10102800012380F84130FFF7DFFFF8E7436A9A1C95
:1010380042621A880168134B99421ED04FF0402330
:10104800DA60438D013B9BB24385438D9BB2002BF5
:10105800E5D102680B4B9A4212D04FF040225368F8
:1010680023F0A0035360438E9BB2002BD7D10123FA
:1010780080F84130FFF7B8FFD1E7A3F58063DFE7D9
:10108800014AECE7003800400034004008B5E9B9EF
:101098000368DA68C36A991CC1621A80438E013BEF
:1010A8009BB24386438E9BB24BB90268536823F0C8
:1010B80060031B041B0C5360438D9BB203B108BD36
:1010C800012380F84130FFF78FFFF8E70268154BDE
:1010D8009A4222D04FF04023DA68C36A991CC16251
:1010E8001A80438E013B9BB24386438E9BB2002BF2
:1010F800E5D102680B4B9A4212D04FF04022536858
:1011080023F060035360438D9BB2002BD7D101239A
:1011180080F84130FFF768FFD1E7A3F58063DBE78C
:10112800014AECE7003800400034004010B584B0B4
:10113800044603689A6803927C4A93425DD04FF054
:1011480040218A680292DA6902F44072B2F5007F9F
:1011580004D0DA6912F4407F40F08180039A12F0DB
:10116800020F03D05B6813F0800F48D1029B13F085
:10117800010F09D022686D4B9A4245D04FF04023A9
:101188005B6813F0400F42D1029B13F0400F09D067
:101198002268664B9A423FD04FF040235A6812F0BB
:1011A800200F3CD1039B13F0080F24D023685A6802
:1011B80012F0200F1FD05A6822F0A0021204120C5D
:1011C8005A602268594B9A4247D04FF040225368E0
:1011D80023F0600353600023019323689B68019305
:1011E800019B012384F84130636C43F0040363647A
:1011F8002046FFF7C1FD04B010BD4D49A1E700210D
:101208002046FFF7F3FEB1E7A3F58063B8E70121B5
:101218002046FFF73BFFB7E7A3F58063BEE75A68B0
:1012280022F060025A602268536823F0A0031B046E
:101238001B0C5360002300932368DA6800929B68B4
:101248000093009B012384F84130636C43F0020350
:1012580063642046FFF790FDA4E7354AB7E7029B91
:1012680013F0020F03D04B6813F0800F4FD1039B8C
:1012780013F0010F04D023685B6813F0400F4BD1C3
:10128800039B13F0400F1ED023685A6812F0200FFA
:1012980019D05A6822F060021204120C5A602268AF
:1012A800224B9A423DD04FF04022536823F0A003CE
:1012B8005360012384F84130636C43F00203636494
:1012C8002046FFF759FD029B13F0080F93D02268C0
:1012D800164B9A4227D04FF040235A6812F0200F3D
:1012E80089D05A6822F0A0025A602268536823F015
:1012F80060031B041B0C5360012384F84130636CAA
:1013080043F0040363642046FFF736FD73E70121C9
:101318002046FFF76BFEAAE700212046FFF7B6FE3E
:10132800AEE7034AC1E7A3F58063D6E7003800407B
:1013380000340040002800F0BB8170B582B004463C
:10134800036813F0010F3BD0A74B9B6803F00C0315
:10135800042B2CD0A44B9B6803F00C03082B21D042
:101368006368B3F5803F4FD0B3F5A02F52D09E4BA2
:101378001A6822F480321A601A6822F480221A60ED
:101388006368002B50D0FFF7E5F80546964B1B68BD
:1013980013F4003F14D1FFF7DDF8401B6428F5D99A
:1013A80003208AE1904B5B6813F4800FD8D08E4BF2
:1013B8001B6813F4003F03D06368002B00F07A81A8
:1013C800236813F0020F55D0874B9B6813F00C0F5E
:1013D8003ED0854B9B6803F00C03082B33D0E368A1
:1013E800002B68D0814B01221A60FFF7B3F805463D
:1013F8007D4B1B6813F0020F54D1FFF7ABF8401B6D
:101408000228F5D9032058E1774A136843F480335A
:101418001360B5E7744B1A6842F480221A601A68A0
:1014280042F480321A60ABE7FFF794F805466E4B3A
:101438001B6813F4003FC3D0FFF78CF8401B6428E7
:10144800F5D9032039E1684B5B6813F4800FC6D1E6
:10145800654B1B6813F0020F04D0E368012B01D021
:1014680001202AE1604A136823F0F803216943EA5E
:10147800C1031360236813F0080F40D0636963B396
:101488005B4B01221A60FFF765F80546564B5B6F08
:1014980013F0020F33D1FFF75DF8401B0228F5D98E
:1014A80003200AE1504A136823F0F803216943EA4C
:1014B800C1031360DEE74D4B00221A60FFF74AF8BC
:1014C8000546494B1B6813F0020FD3D0FFF742F8CB
:1014D800401B0228F5D90320EFE0454B00221A6093
:1014E800FFF738F80546404B5B6F13F0020F06D044
:1014F800FFF730F8401B0228F5D90320DDE0236808
:1015080013F0040F79D0384B1B6C13F0805F33D184
:1015180000230193344B1A6C42F080521A641B6CFE
:1015280003F080530193019B0125324B1B6813F490
:10153800807F23D0A368012B34D0052B38D02A4BC9
:101548001A6F22F001021A671A6F22F004021A6752
:10155800A368002B36D0FEF7FDFF0646224B1B6F13
:1015680013F0020F48D1FEF7F5FF801B41F28833D4
:101578009842F3D90320A0E00025D6E71D4A136856
:1015880043F480731360FEF7E5FF0646194B1B68AA
:1015980013F4807FCED1FEF7DDFF801B0228F5D93A
:1015A80003208AE0104A136F43F001031367CFE763
:1015B8000D4B1A6F42F004021A671A6F42F00102CB
:1015C8001A67C5E7FEF7C6FF0646074B1B6F13F001
:1015D800020F11D0FEF7BEFF801B41F288339842FC
:1015E800F3D9032069E000BF0038024000004742F9
:1015F800800E474200700040E5B9A369002B5BD01C
:10160800304A926802F00C02082A58D0022B17D0F0
:101618002D4B00221A60FEF79DFF0446294B1B68DC
:1016280013F0007F42D0FEF795FF001B0228F5D982
:10163800032042E0234A136C23F080531364DCE751
:10164800214B00221A60FEF785FF05461D4B1B68DB
:1016580013F0007F06D0FEF77DFF401B0228F5D966
:1016680003202AE0E369226A1343626A43EA821389
:10167800A26A5208013A43EA0243E26A43EA026371
:10168800104A5360104B01221A60FEF763FF0446AC
:101698000C4B1B6813F0007F06D1FEF75BFF001BA5
:1016A8000228F5D9032008E0002006E0002004E025
:1016B80001207047012000E0002002B070BD012029
:1016C800FBE700BF0038024060004742324B9B688E
:1016D80003F00C03042B5CD0082B01D02F48704773
:1016E8002DE9F04B2C4B5A6802F03F025B6813F46B
:1016F800800F2BD0284B5B68C3F388131E46002746
:101708005C010025E41A65EB0705A90141EA94612B
:10171800A001001B61EB0501CB0043EA5073C40034
:10172800A01943EB07014B0243EAD0534402204679
:1017380019460023FEF744FD174B5B68C3F30143CA
:1017480001335B00B0FBF3F0BDE8F08B124B5B6834
:10175800C3F388131E4600275C010025E41A65EBD5
:101768000705A90141EA9461A001001B61EB05018D
:10177800CB0043EA5073C400A01943EB07018B0266
:1017880043EA90538402204619460023FEF718FDC9
:10179800D2E70348704700BF003802400024F40035
:1017A80000127A00002800F09D8070B504464F4B67
:1017B8001B6803F00F038B4209D2CBB24B4A13705C
:1017C800136803F00F038B4201D0012070BD23681A
:1017D80013F0020F17D013F0040F04D0444A936893
:1017E80043F4E0539360236813F0080F04D0404A91
:1017F800936843F4604393603D4A936823F0F00391
:10180800A068034393600D46236813F0010F32D09C
:101818006368012B21D09A1E012A25D9344A1268FF
:1018280012F0020F60D032498A6822F00302134393
:101838008B60FEF78FFE06462D4B9B6803F00C036A
:101848006268B3EB820F16D0FEF784FE801B41F26C
:1018580088339842F0D90320B8E7254A126812F471
:10186800003FE0D10120B1E7214A126812F0007F61
:10187800D9D10120AAE71D4B1B6803F00F03AB4227
:1018880009D9EAB2194B1A701B6803F00F03AB426F
:1018980001D001209AE7236813F0040F06D0144AF8
:1018A800936823F4E053E1680B439360236813F0D3
:1018B800080F07D00E4A936823F46043216943EA6E
:1018C800C1039360FFF702FF094B9B68C3F303133F
:1018D800084AD35CD840084B18600020FEF7F0FD9A
:1018E800002073E70120704701206FE7003C0240A9
:1018F80000380240BC29000808000020014B186885
:10190800704700BF0800002008B5FFF7F7FF044B39
:101918009B68C3F38223034AD35CD84008BD00BF49
:1019280000380240CC29000808B5FFF7E7FF044B50
:101938009B68C3F34233034AD35CD84008BD00BF59
:1019480000380240CC29000830B583B0044603684B
:1019580013F0050F06D1236813F0020F2ED10020D3
:1019680003B030BD494B00221A60FEF7F3FD05466F
:10197800474B1B6813F0006F06D0FEF7EBFD401BCA
:101988000228F5D90320EBE76268A3681B0743EA3E
:1019980082133F4AC2F884303C4B01221A60FEF79A
:1019A800D9FD05463A4B1B6813F0006FD3D1FEF7FB
:1019B800D1FD401B0228F5D90320D1E7002301936C
:1019C800334B1A6C42F080521A641B6C03F080533C
:1019D8000193019B2F4A136843F480731360FEF749
:1019E800B9FD05462B4B1B6813F4807F06D1FEF723
:1019F800B1FD401B0228F5D90320B1E7244B1B6F2A
:101A080013F4407312D0E26802F440729A420DD087
:101A18001F4B1A6F22F440721F49012008600020F2
:101A280008601A671B6F13F0010F13D1E36803F402
:101A38004072B2F5407F1ED0154A936823F4F8131C
:101A4800936013490B6FE268C2F30B0213430B67F1
:101A5800002085E7FEF77EFD05460D4B1B6F13F052
:101A6800020FE3D1FEF776FD401B41F2883398421E
:101A7800F3D9032074E706498A6822F4F81223F0A0
:101A8800704323F4407313438B60DAE768004742DE
:101A98000038024000700040400E474201282AD119
:101AA800174B9B6813F4000303D0012B25D115486D
:101AB8007047134B5B6813F4800F14D0104B5B68AE
:101AC80003F03F031048B0FBF3F00D4AD2F884301E
:101AD800C3F3881300FB03F0D2F88430C3F3027316
:101AE800B0FBF3F07047064B5B6803F03F03074811
:101AF800B0FBF3F0E9E7002070470020704700BF13
:101B0800003802400080BB0000127A000024F40074
:101B180010B4036A046A24F001040462846924F09E
:101B2800F00444EA021223F00A030B4382610362C1
:101B38005DF8044B704710B4036A23F01003036286
:101B48008469036A24F4704444EA023223F0A0034F
:101B580043EA0113826103625DF8044B70478368AE
:101B680023F0700341F0070119438160704710B4F6
:101B7800846824F47F4442EA03230B4323438360AD
:101B88005DF8044B704790F83830012B7DD010B5C4
:101B98000446012380F83830022380F8393002687F
:101BA800936823F47F4323F0770393600B68402BFB
:101BB80057D010D9702B3ED01FD8502B47D0602B50
:101BC80032D1CA6849680068FFF7B5FF602120680C
:101BD800FFF7C5FF28E0102B4DD008D9202B4FD098
:101BE800302B21D130210068FFF7B9FF1CE0DBB9A9
:101BF80000210068FFF7B3FF16E0B3F5805F0ED051
:101C0800B3F5005F10D1CB684A6889680068FFF7B0
:101C1800AEFF2268936843F48043936004E002684F
:101C2800936823F007039360012384F83930002078
:101C380084F8380010BDCB684A6889680068FFF7E7
:101C480096FF2268936843F077039360ECE7CA68CD
:101C580049680068FFF75CFF50212068FFF77FFFA5
:101C6800E2E7CA6849680068FFF752FF4021206828
:101C7800FFF775FFD8E710210068FFF770FFD3E77B
:101C880020210068FFF76BFFCEE7022070477047FE
:101C9800704770477047704710B5044603681A6963
:101CA80012F0020F11D0DA6812F0020F0DD06FF0A7
:101CB80002021A610123037603689B6913F0030F7C
:101CC80070D0FFF7E6FF0023237623681A6912F025
:101CD800040F12D0DA6812F0040F0ED06FF004026D
:101CE8001A610223237623689B6913F4407F5FD02F
:101CF8002046FFF7CEFF0023237623681A6912F0E7
:101D0800080F12D0DA6812F0080F0ED06FF0080230
:101D18001A61042323762368DB6913F0030F4ED07E
:101D28002046FFF7B6FF0023237623681A6912F0CE
:101D3800100F12D0DA6812F0100F0ED06FF01002E8
:101D48001A61082323762368DB6913F4407F3DD0AA
:101D58002046FFF79EFF0023237623681A6912F0B6
:101D6800010F03D0DA6812F0010F36D123681A691F
:101D780012F0800F03D0DA6812F0800F34D1236894
:101D88001A6912F0400F03D0DA6812F0400F32D10E
:101D980023681A6912F0200F03D0DA6812F0200FB6
:101DA80030D110BDFFF774FF2046FFF773FF8AE7B5
:101DB8002046FFF76DFF2046FFF76CFF9BE72046A4
:101DC800FFF766FF2046FFF765FFACE72046FFF701
:101DD8005FFF2046FFF75EFFBDE76FF001021A6163
:101DE8002046FFF754FFC1E76FF080021A612046D2
:101DF80000F0B3F8C3E76FF040021A612046FFF71E
:101E08004AFFC5E76FF020021A61204600F0A4F8E7
:101E1800C7E7000003682E4A904212D0B0F1804F05
:101E28000FD0A2F57C4290420BD002F5806290421E
:101E380007D002F58062904203D002F578429042C2
:101E480003D123F070034A681343214A90422AD0F1
:101E5800B0F1804F27D0A2F57C42904223D002F502
:101E6800806290421FD002F5806290421BD002F53A
:101E78007842904217D002F57052904213D002F582
:101E8800806290420FD002F5806290420BD0A2F59A
:101E98009832904207D002F58062904203D002F552
:101EA8008062904203D123F44073CA6813430360ED
:101EB8008B68C3620B688362054B984203D003F5B5
:101EC8008063984201D10B69036301234361704722
:101ED80000000140A8B110B5044690F839305BB154
:101EE800022384F83930211D2068FFF793FF01236E
:101EF80084F83930002010BD80F8383000F058FCE4
:101F0800EEE70120704790F83830012B22D030B42A
:101F1800012280F83820022380F839300468636889
:101F280023F070036360046863680D682B43636083
:101F38000468A36823F08003A3600468A368496861
:101F48000B43A36080F83920002380F83830184606
:101F580030BC704702207047704770472DE9F8433E
:101F6800044601680A6922F44052C36813430B61AE
:101F78000168CA6822F4164222F00C0283680069DC
:101F8800034360690343E06903431343CB6021685B
:101F98004A6922F44072A36913434B61E369B3F5BC
:101FA800004F60D02368B84A934200F0148102F5CC
:101FB8008062934200F00F81FFF7A6FC00EB8000DF
:101FC80000EB80006568AD00B0FBF5F5AF4FA7FBEF
:101FD80005356D092E01FFF797FC00EB800000EB3B
:101FE80080006568AD00B0FBF5F9FFF78DFC00EBEC
:101FF800800000EB80006568AD00B0FBF5F5A7FB3D
:1020080005356D094FF0640808FB15952D0132352B
:10201800A7FB05356D0905F0F0053544FFF774FC9D
:1020280000EB800000EB80006668B600B0FBF6F6B7
:10203800FFF76AFC00EB800000EB800063689B0000
:10204800B0FBF3F0A7FB0030400908FB10684FEA2B
:10205800081808F13208A7FB0837C7F343172368A5
:102068002F449F600DE12368874A93425BD002F5B5
:102078008062934257D0FFF747FC00EB800000EBEB
:10208800800065686D00B0FBF5F5804FA7FB05354E
:102098006D092E01FFF738FC00EB800000EB800093
:1020A80065686D00B0FBF5F9FFF72EFC00EB8000CA
:1020B80000EB800065686D00B0FBF5F5A7FB053502
:1020C8006D094FF0640808FB1595ED003235A7FB44
:1020D80005356D096D0005F4F8753544FFF714FCF6
:1020E80000EB800000EB800066687600B0FBF6F637
:1020F800FFF70AFC00EB800000EB800063685B00E0
:10210800B0FBF3F3A7FB03235B0908FB13684FEA53
:10211800C80808F13208A7FB0837C7F34217236835
:102128002F449F60ADE0FFF7FFFB00EB800000EB62
:10213800800065686D00B0FBF5F5544FA7FB0535C9
:102148006D092E01FFF7F0FB00EB800000EB80002B
:1021580065686D00B0FBF5F9FFF7E6FB00EB800062
:1021680000EB800065686D00B0FBF5F5A7FB053551
:102178006D094FF0640808FB1595ED003235A7FB93
:1021880005356D096D0005F4F8753544FFF7CCFB8E
:1021980000EB800000EB800066687600B0FBF6F686
:1021A800FFF7C2FB00EB800000EB800063685B0078
:1021B800B0FBF3F3A7FB03235B0908FB13684FEAA3
:1021C800C80808F13208A7FB0837C7F34217236885
:1021D8002F449F6055E0FFF7A7FB00EB800000EB62
:1021E80080006568AD00B0FBF5F5284FA7FB053505
:1021F8006D092E01FFF798FB00EB800000EB8000D3
:102208006568AD00B0FBF5F9FFF78EFB00EB8000C9
:1022180000EB80006568AD00B0FBF5F5A7FB053560
:102228006D094FF0640808FB15952D013235A7FBA1
:1022380005356D0905F0F0053544FFF775FB00EB32
:10224800800000EB80006668B600B0FBF6F6FFF78A
:102258006BFB00EB800000EB800063689B00B0FB29
:10226800F3F0A7FB0030400908FB10684FEA081894
:1022780008F13208A7FB0837C7F3431723682F4430
:102288009F60BDE8F88300BF001001401F85EB5137
:1022980058B310B5044690F839300BB3242384F8AA
:1022A80039302268D36823F40053D3602046FFF7FF
:1022B80055FE2268136923F4904313612268536919
:1022C80023F02A0353612268D36843F40053D36090
:1022D8000020E063202384F8393084F83A3010BDB8
:1022E80080F8383000F082FAD8E701207047000003
:1022F80030B58BB00024059406940794089409948B
:102308000094234B1A6B42F080021A631A6B02F096
:1023180080020092009A01941A6B42F001021A633B
:102328001A6B02F001020192019A02941A6B42F0B0
:1023380008021A631A6B02F008020292029A0394C6
:102348001A6B42F004021A631A6B02F00402039239
:10235800039A04941A6B42F002021A631B6B03F08F
:1023680002030493049B0B4D22464FF210012846AA
:10237800FEF734FC4FF210030593012306930794EC
:10238800089405A92846FEF745FB0BB030BD00BFF1
:1023980000380240000C024000B583B000210191D2
:1023A800094B1A6B42F400121A631B6B03F40013F7
:1023B8000193019B0A461020FEF7E4F81020FEF76F
:1023C80015F903B05DF804FB0038024008B5094868
:1023D800094B0360094B436000238360C3604FF4DB
:1023E8008042026143618361C3610362FEF7FCFBC3
:1023F80008BD00BF2C00002000540040A08601004A
:1024080008B50948094B03604FF400724260002385
:102418008360C36002614BF6803242618361C361AD
:102428000362FEF7ABFC08BD70010020003C0040D1
:1024380030B583B0002400940194074D074B2B60FE
:102448002846FEF7F5F80094019422466946284686
:10245800FEF700F903B030BD2001002000740040F1
:1024680030B587B000240294039404940594009432
:1024780001940E4D4FF080432B6053236B60AC608A
:102488001323EB602C612846FFF724FD4FF480539B
:10249800029302A92846FFF776FB202300930194B4
:1024A80069462846FFF72FFD07B030BD34010020EC
:1024B80008B50848084B03604FF4E1334360002334
:1024C8008360C36003610C2242618361C361FFF7CB
:1024D800DFFE08BDE00000200010014070B598B094
:1024E800302200210DEB020000F04CFA0024079482
:1024F800089409940A940B940394049405940694FC
:1025080001941F4B1A6C42F080521A641B6C03F042
:1025180080530193019B02941A4B1A6842F480423B
:102528001A601B6803F480430293029B01260C96F1
:102538004FF480330D93022512954FF480031393C3
:1025480004231493A8221592169517930CA8FEF746
:10255800F1FE0F230793089509944FF4A0530A93AB
:102568004FF480530B93052107A8FFF71BF9039637
:10257800C0230493059503A8FFF7E6F918B070BDCA
:10258800003802400070004008B5FDF7BDFFFFF7B6
:10259800A5FFFFF7ADFEFFF7FFFEFFF717FFFFF7F9
:1025A8002FFFFFF745FFFFF75BFFFFF781FFFEE710
:1025B8007047000082B0002100910B4B5A6C42F426
:1025C80080425A645A6C02F480420092009A019147
:1025D8001A6C42F080521A641B6C03F0805301930A
:1025E800019B02B0704700BF0038024000B589B0B7
:1025F8000023039304930593069307930268134BF0
:102608009A4202D009B05DF804FB0021019103F55C
:10261800E2331A6C42F000521A641A6C02F000524B
:102628000192019A02911A6B42F001021A631B6B24
:1026380003F001030293029B1023039303230493E3
:1026480003A90348FEF7E6F9DCE700BF0074004081
:102658000000024030B589B000230393049305932A
:10266800069307930268154B9A4201D009B030BD12
:1026780000250195124C236B43F002032363236B5F
:1026880003F002030193019B4FF410730393122389
:10269800049301230593032306930423079303A9B3
:1026A8000848FEF7B7F90295236C43F40013236436
:1026B800236C03F400130293029BD7E700540040F5
:1026C8000038024000040240F0B589B000230393AB
:1026D80004930593069307930268304B9A4201D0FE
:1026E80009B0F0BD04460025009503F5FE331A6CC9
:1026F80042F400421A641A6C02F400420092009AF2
:1027080001951A6B42F004021A631A6B02F0040274
:102718000192019A02951A6B42F001021A631B6B2F
:1027280003F001030293029B4FF4A453039302277F
:1027380004970626079603A91948FEF76BF94FF484
:1027480000430393049705950695079603A9154832
:10275800FEF760F91448154B036045604023836019
:10276800C5604FF4806303614FF4006343614FF425
:10277800005383614FF48073C3610562042343628D
:1027880003238362C5620563FDF7F0FF18B9064BA2
:10279800A3639C63A4E7FFF70BFFF8E7003C004046
:1027A80000080240000002408000002088600240CB
:1027B8000368B3F1804F00D0704700B583B00021A3
:1027C800019103F50E331A6C42F001021A641B6C76
:1027D80003F001030193019B0A461C20FDF7D2FE7A
:1027E8001C20FDF703FF03B05DF804FB00B589B0BA
:1027F800002303930493059306930793026803F158
:10280800804303F588339A4202D009B05DF804FB8F
:102818000021019103F594335A6C42F010025A6476
:102828005A6C02F010020192019A02911A6B42F05E
:1028380001021A631B6B03F001030293029B4FF41E
:10284800C063039302230493012305930323069390
:102858000723079303A90248FEF7DCF8D5E700BF72
:10286800000002407047FEE7FEE7FEE7FEE770471C
:102878007047704708B5FDF761FE08BD08B5024806
:10288800FDF7DAFF08BD00BF8000002008B5024848
:10289800FFF702FA08BD00BF340100200F49D1F844
:1028A800883043F47003C1F888300D4B1A6842F041
:1028B80001021A60002098601A6822F0847222F4DB
:1028C80080321A60074A5A601A6822F480221A6015
:1028D800D8604FF000638B60704700BF00ED00E0E8
:1028E8000038024010300024DFF834D0002103E023
:1028F8000C4B5B58435004310B480C4B42189A421E
:10290800F6D30B4A02E0002342F8043B094B9A42F3
:10291800F9D3FFF7C3FF00F011F8FFF735FE704752
:1029280000000220E4290008000000200C0000201C
:102938000C000020B8010020FEE7000070B50D4E25
:102948000D4CA41BA4100025A54209D10B4E0C4C1C
:1029580000F020F8A41BA4100025A54205D170BDE5
:1029680056F8253098470135EEE756F82530984750
:102978000135F2E7DC290008DC290008DC29000819
:10298800E029000802440346934200D1704703F847
:10299800011BF9E7F8B500BFF8BC08BC9E467047B4
:0C29A800F8B500BFF8BC08BC9E467047A4
:1029B40000061016000610160000000000000000BB
:1029C40001020304060708090000000001020304D1
:0829D40024D8FF7F0100000080
:0429DC00AD01000841
:0429E0008901000861
:0C29E40001000000100000000024F400BE
:04000005080028F1D6
:00000001FF
