:020000040800F2
:1000000000000220F14400083D4400083F4400087D
:100010004144000843440008454400080000000033
:10002000000000000000000000000000474400083D
:1000300049440008000000004B4400084D440008FB
:100040004145000841450008414500084145000878
:100050004145000841450008414500084145000868
:100060004145000841450008414500084145000858
:100070004145000841450008414500084145000848
:100080005544000841450008414500084145000825
:100090004145000841450008414500084145000828
:1000A0004145000841450008414500084145000818
:1000B000654400087544000841450008854400086F
:1000C00095440008414500084145000841450008A5
:1000D00041450008414500084145000841450008E8
:1000E00041450008414500084145000841450008D8
:1000F00041450008414500084145000841450008C8
:1001000041450008414500084145000841450008B7
:1001100041450008414500084145000841450008A7
:100120004145000841450008414500084145000897
:100130004145000841450008414500084145000887
:100140004145000841450008414500084145000877
:100150004145000841450008414500084145000867
:100160004145000841450008414500084145000857
:1001700041450008414500084145000800000000D5
:0801800041450008414500085B
:1001880010B5054C237833B9044B13B10448AFF3C9
:1001980000800123237010BD100000200000000023
:1001A8009C45000808B5034B1BB103490348AFF34E
:1001B800008008BD00000000140000209C450008D5
:1001C80053B94AB9002908BF00281CBF4FF0FF31B6
:1001D8004FF0FF3000F072B9ADF1080C6DE904CEB4
:1001E80000F006F8DDF804E0DDE9022304B070470A
:1001F8002DE9F047089E04468846002B4BD18A42D9
:10020800154667D9B2FA82F24AB1C2F1200701FA5B
:1002180002F320FA07F7954047EA030894404FEAAB
:10022800154E230CB8FBFEF71FFA85FC0EFB17884A
:1002380043EA084307FB0CF1994209D9EB1807F187
:10024800FF3080F01B81994240F21881023F2B4415
:100258005B1AA4B2B3FBFEF00EFB103344EA03446E
:1002680000FB0CFCA44509D92C1900F1FF3380F0E0
:100278000781A44540F2048102382C4440EA074033
:10028800A4EB0C0400271EB1D4400023C6E90043A8
:100298003946BDE8F0878B4209D9002E00F0EB8083
:1002A8000027C6E9000138463946BDE8F087B3FAA9
:1002B80083F7002F47D18B4202D3824200F2FA80A3
:1002C800841A61EB030301209846002EE0D0C6E9AA
:1002D8000048DDE702B9FFDEB2FA82F2002A40F0F8
:1002E8008F80491B4FEA154E1FFA85F80127B1FB8D
:1002F800FEFC230C0EFB1C1143EA014308FB0CF126
:10030800994207D9EB180CF1FF3002D2994200F25A
:10031800CD808446591AA3B2B1FBFEF00EFB10142F
:1003280043EA044408FB00F8A04507D92C1900F15A
:10033800FF3302D2A04500F2B6801846A4EB0804A9
:1003480040EA0C409FE7C7F1200CBB4022FA0CFEA4
:100358004EEA030E01FA07F420FA0CF521FA0CF321
:100368004FEA1E482543B3FBF8F92C0C08FB193358
:100378001FFA8EFA44EA034309FB0AF49C4202FA84
:1003880007F200FA07F10BD91EEB030309F1FF305E
:1003980080F087809C4240F28480A9F1020973446E
:1003A8001B1BADB2B3FBF8F008FB103345EA03445E
:1003B80000FB0AFAA24508D91EEB040400F1FF333A
:1003C8006BD2A24569D90238744440EA0940A0FBBF
:1003D8000289A4EB0A044C45C2464B4654D351D07B
:1003E800002E69D0B1EB0A0564EB030404FA0CFC97
:1003F800FD40FC404CEA0505C6E90054002747E7E4
:10040800C2F1200320FA03F7954001FA02F021FA1D
:1004180003F34FEA154E3843010CB3FBFEF71FFAFE
:1004280085F80EFB173341EA034107FB08F38B42BB
:1004380004FA02F407D9691807F1FF3C2FD28B425E
:100448002DD9023F2944CB1A81B2B3FBFEF00EFB33
:10045800103341EA034100FB08F38B4207D96918BE
:1004680000F1FF3C17D28B4215D902382944C91A2A
:1004780040EA07473BE73746304609E70746E7E6DD
:100488001846FBE64145ABD2B8EB020A69EB0E020F
:1004980001381346A4E76046E9E7184695E767463A
:1004A800D1E781467CE702382C4447E7ACF1020CDF
:1004B8002B442FE7384608E73746E9E6704700BF80
:1004C80010B504460E4B18784FF47A73B3FBF0F36B
:1004D8000C4A1068B0FBF3F000F094F868B90F2CE0
:1004E80001D901200AE0002221464FF0FF3000F038
:1004F80049F8034B5C60002000E0012010BD00BFFC
:10050800000000200C00002008B50B4B1A6842F4CC
:1005180000721A601A6842F480621A601A6842F41B
:1005280080721A60032000F01BF80020FFF7C8FF54
:1005380003F0B2FD002008BD003C0240034A1168E8
:10054800034B1B780B441360704700BF2C0000203E
:1005580000000020014B1868704700BF2C000020E5
:10056800074AD36823F4E0631B041B0C000200F461
:10057800E060184340F0BF6040F40030D06070473E
:1005880000ED00E030B4174BDB68C3F30223C3F17E
:100598000704042C28BF04241D1D062D18D9033B6D
:1005A8004FF0FF3505FA04F421EA0401994005FAF1
:1005B80003F322EA0303194300280BDB0901C9B23C
:1005C80000F1604000F5614080F8001330BC7047CE
:1005D8000023E5E700F00F000901C9B2024B1954E6
:1005E800F4E700BF00ED00E014ED00E000F01F02AA
:1005F800400901239340024A42F82030704700BF67
:1006080000E100E00138B0F1807F0AD2064B586063
:10061800064AF02182F823100020986007221A6009
:1006280070470120704700BF10E000E000ED00E0D7
:1006380070B110B50446037933B102232371002049
:1006480020610123237110BD437103F041FDF4E7DC
:10065800012070474379012B1FD070B401254571E3
:10066800022303710668336840F6FE74944023EA57
:1006780004040B6849680B439340234333600468C0
:100688002368C02101FA02F223EA020222600571FE
:1006980000234371184670BC704702207047000061
:1006A8000268D3B2103B0B49A1FB03131B090A498B
:1006B800C95CC165032B06D822F47F7222F00302BD
:1006C8008265806D704722F47F7222F00302043243
:1006D8008265F6E7ABAAAAAAB4450008836A8269CC
:1006E80092B9012B0AD01BB1022B01D00020704710
:1006F800C36A13F0807F2CD100207047C36AB3F11E
:10070800C07F28D000207047B2F5005F05D0022BCB
:1007180029D9032B15D000207047032B03D8DFE815
:1007280003F01C041C0A00207047C36A13F0807F82
:1007380015D100207047C36AB3F1C07F11D00020E3
:100748007047C36A13F0807F01D0012070470020F2
:100758007047012070470120704701207047012031
:1007680070470120704701207047000070B50446AB
:10077800FFF7F0FE002C5BD00546002384F83430E8
:10078800022384F835302268136823F001031360CC
:1007980023681A6812F0010F0AD0FFF7DBFE401B2E
:1007A8000528F5D920236365032084F8350070BD3A
:1007B8001A68204810406168A2680A43E1680A4341
:1007C80021690A4361690A43A1690A43E1690A4345
:1007D800216A0A430243616A04291ED01A60266806
:1007E800756925F00705636A1D43042B07D1A36AC1
:1007F8001D43E36A1BB12046FFF770FF90B975618E
:100808002046FFF74DFFE26D3F23934083600020B1
:100818006065012384F83530C9E7E16A206B01433C
:100828000A43DBE740236365012084F83500BEE70F
:100838000120BCE73F8010F090F83530DBB2022B86
:1008480003D08023436501207047052380F83530A5
:100858000268136823F0010313600020704700004A
:10086800F0B583B0044600230193724B1D68724BA8
:10087800A3FB0535AD0A876D3E68C26D082393401A
:10088800334210D003681A6812F0040F0BD01A68AC
:1008980022F004021A60C26D08239340BB60436DC6
:1008A80043F001034365E26D01239340334209D0CD
:1008B8002268526912F0800F04D0BB60636D43F068
:1008C80002036365E26D04239340334209D0226832
:1008D800126812F0020F04D0BB60636D43F004038A
:1008E8006365E26D10239340334224D02268126876
:1008F80012F0080F1FD0BB6023681A6812F4802F0B
:100908000DD01B6813F4002F04D1236C9BB1204633
:10091800984710E0A36C73B1204698470BE01A681B
:1009280012F4807F03D11A6822F008021A60236C3F
:100938000BB120469847E26D20239340334255D0AF
:100948002268126812F0100F50D0BB6094F835304E
:10095800DBB2052B0ED023681A6812F4802F33D02F
:100968001B6813F4002F2AD1636C002B3ED020465D
:1009780098473BE02268136823F016031360226847
:10098800536923F080035361236CA3B12268136871
:1009980023F008031360E26D3F239340BB600023FC
:1009A80084F83430012384F83530236D002B3FD090
:1009B800204698473CE0A36C002BE7D1EBE7E36BBC
:1009C800A3B12046984711E01A6812F4807F09D134
:1009D8001A6822F010021A60002384F834300123C8
:1009E80084F83530E36B0BB120469847636DFBB153
:1009F800636D13F0010F17D0052384F83530226892
:100A0800136823F001031360019B01330193AB4288
:100A180004D823681B6813F0010FF5D1002384F86C
:100A28003430012384F83530E36C0BB12046984705
:100A380003B0F0BD0C000020B5814E1B00230F2B26
:100A480000F2D780F0B482B039E0072200E000223B
:100A5800B2403A430234674E46F82420664A146886
:100A6800EA4302EA04064F6817F4803F01D045EADA
:100A78000406614C2660646802EA04064F6817F4AD
:100A8800003F01D045EA04065B4C6660A46802EAB0
:100A980004064F6817F4801F01D045EA0406564C37
:100AA800A660E46822404E6816F4001F01D045EAAB
:100AB8000402514CE26001330F2B00F297800122AF
:100AC8009A400C6804EA0205AA42F4D14C68022C48
:100AD80001D0122C10D1DE08083650F826C003F0D9
:100AE8000704A7000F24BC402CEA040C0C69BC4086
:100AF80044EA0C0440F8264004685F000326BE4020
:100B0800F64306EA040C4C6804F00304BC4044EACB
:100B18000C0404604C6804F1FF3CBCF1010F03D9DC
:100B2800112C01D0122C10D1846806EA040CCC6870
:100B3800BC4044EA0C048460446824EA02024C681D
:100B4800C4F300149C4014434460C26816408A6889
:100B5800BA403243C2604A6812F0805FABD00022CC
:100B68000192264A546C44F480445464526C02F452
:100B780080420192019A9C08A61C1E4A52F82670CF
:100B880003F0030296000F22B24027EA02071C4A2C
:100B980090423FF45CAF02F5806290421AD002F5B1
:100BA8008062904218D002F58062904216D002F519
:100BB8008062904214D002F58062904212D002F511
:100BC8008062904210D002F5806290423FF43DAFBF
:100BD80008223DE701223BE7022239E7032237E7F3
:100BE800042235E7052233E7062231E702B0F0BCDC
:100BF8007047704700380140003C0140003802400F
:100C08000000024012B90904816170478161704790
:100C180090F83E30DBB2402B13D00369B3F5804F18
:100C28001ED0036D002B2DD0036D012B33D1436CE7
:100C3800C3F3C813026803F0060343F0F10313611A
:100C480029E0036D2BB9436C026803F0FE031361BE
:100C580021E0436C026843F00103DBB213611AE040
:100C680090F83D30DBB2212B06D0436C026843F08C
:100C78000103DBB213610EE0436C026803F0FE036C
:100C8800136108E0436CC3F3C813026803F006035A
:100C980043F0F003136100207047436C0268DBB235
:100CA80013610020704710B48BB090F83E30DAB270
:100CB800C16A046B90F83D30DBB2222B0CD00023C4
:100CC800099303685A6909929B690993099B002053
:100CD8000BB05DF8044B7047036D0BB9402A17D071
:100CE800036D1BB90369B3F5404F19D0438D9BB20F
:100CF800002B25D1029303685A6902929A690292DD
:100D0800029A1A6842F400721A6000230365DEE74B
:100D1800009303685A6900929B690093009BD6E789
:100D28000023019303685A6901929A690192019A12
:100D38001A6842F480721A60036D01330365C6E7CE
:100D4800438D9BB2012B1AD0438D9BB2022B6BD0E3
:100D58000268136843F48063136003685A6812F4E6
:100D6800006F03D05A6842F480525A6000230893F7
:100D780003685A6908929B690893089BC5E711F5AF
:100D8800803F16D004293DD008293BD0122C39D0F9
:100D9800C36A022B30D00268136823F4806313609F
:100DA8000023059303685A6905929B690593059B7F
:100DB800ABE70268136823F48063136003685A681A
:100DC80012F4006F0CD01A6822F480621A600023B3
:100DD800039303685A6903929B690393039B94E7FF
:100DE800002204925A6904929A690492049A1A6831
:100DF80042F400721A6088E70268136843F480635B
:100E08001360CDE70268136823F48063136000233E
:100E1800069303685A6906929A690692069A1A68AE
:100E280042F400721A6070E7C36A022B1BD0026892
:100E3800136823F4806313600268136843F4006343
:100E4800136003685A6812F4006F03D05A6842F4BA
:100E580080525A600023079303685A6907929B6976
:100E68000793079B51E70268136843F48063136094
:100E7800E7E7438D9BB24BB1436A5A1C4262026852
:100E88001B781361438D013B9BB24385002070475B
:100E9800438D9BB24BB103681A69436A591C41627E
:100EA8001A70438D013B9BB243850020704703684D
:100EB8005A6912F4806F0DD06FF480625A6104236E
:100EC800036400230363202280F83D2080F83C302F
:100ED8000120704700207047F8B506460C461746B3
:100EE8001D461EE02DB1FFF735FB069BC01AA84230
:100EF80017D900233363202286F83D2086F83E3038
:100F080086F83C3003201AE033685B6924EA03035F
:100F18009BB2B3FA83F35B099F420FD1B5F1FF3F50
:100F2800E0D1C4F30743012BEED033689B6924EA70
:100F380003039BB2B3FA83F35B09EDE70020F8BD26
:100F4800F8B504460D4616461F4632E01A6842F4C4
:100F580000721A6023686FF480625A610423236464
:100F680000232363202284F83D2084F83C300120AC
:100F78002DE026B1FFF7EEFAC01BB04219D90023C5
:100F88002363202284F83D2084F83C3003201EE0AF
:100F980023685B6925EA03039BB2003318BF01236A
:100FA800A3B123685A6912F4806FCFD1B6F1FF3F1D
:100FB800DFD1C5F30743012BEAD023689B6925EAF3
:100FC80003039BB2003318BF0123E9E70020F8BDF3
:100FD800F0B583B004460D4616461F46C36A042B77
:100FE8000DD0012B0BD013F5803F08D0036B122BCB
:100FF8000AD10268136843F48073136004E022681E
:10100800136843F4807313600097334600224FF04F
:1010180001112046FFF760FF58BB2369B3F5804FE5
:1010280010D1236805F0FE051D613B46324615497F
:101038002046FFF785FF0346E0B1236C042B1ED141
:10104800012317E0EB11226803F0060343F0F003D5
:1010580013613B4632460C492046FFF771FF20B129
:10106800236C042B09D1012304E02368EDB21D6130
:10107800DBE70323184603B0F0BD0323FAE7032395
:10108800F8E700BF02000100080001002DE9F04167
:1010980084B004460D4616461F46C26A01680B68AE
:1010A80043F480630B60042A0DD0012A0BD012F59B
:1010B800803F08D0036B112B0AD10268136843F4F0
:1010C8008073136004E02268136843F4807313602C
:1010D8000097334600224FF001112046FFF7FCFE2F
:1010E800002852D12369B3F5804F12D1236845F007
:1010F8000105EDB21D613B4632462A492046FFF7FD
:101108001FFF0346002841D0236C042B48D101233C
:101118003CE04FEAE51808F00608236848F0F002BA
:101128001A613B46324620492046FFF709FF20B1A5
:10113800236C042B2ED1012328E02368EDB21D6116
:101148003B46324617492046FFF7FAFE20B1236C8A
:10115800042B21D1012319E0002203922368596945
:101168000391996903910399196841F48071196091
:10117800009733464FF001112046FFF7ADFE68B9DE
:10118800226848F0F1031361B5E70323184604B059
:10119800BDE8F0810323F9E70323F7E70323F5E725
:1011A8000323F3E7020001000800010070B50446BC
:1011B8000D46164623685B6913F0800F19D1204647
:1011C800FFF775FEB8B9B5F1FF3FF3D025B1FFF7CA
:1011D800C1F9801BA842EDD9236C43F02003236496
:1011E80000232363202284F83D2084F83C30032028
:1011F80000E0002070BD0120FCE770B504460D46F4
:10120800164623685B6913F0040F19D12046FFF7CF
:101218004EFEB8B9B5F1FF3FF3D025B1FFF79AF903
:10122800801BA842EDD9236C43F0200323640023DC
:101238002363202284F83D2084F83C30032000E01A
:10124800002070BD0120FCE770B505460C46164627
:101258002B685A6912F0400F22D15A6912F0100F08
:1012680011D124B1FFF776F9801BA042F0D92B6C7D
:1012780043F020032B64202385F83D30002385F8B4
:101288003C30032070BD6FF010025A6100232B64BC
:101298002B63202285F83D2085F83C300120F1E7BA
:1012A8000020EFE7002800F0828010B5044690F88F
:1012B8003D30002B41D0242384F83D302268136848
:1012C80023F00103136001F097FD3A4BA3FB0023C1
:1012D8009B0C226853606168374A914232D80133C7
:1012E800226813626368344A934235D85B00B0FBC6
:1012F800F3F0C0F30B03032B00D804202368D86154
:10130800E369216A22680B4313602369E168226854
:101318000B4393606369A16922680B43D360226819
:10132800136843F00103136000202064202384F82D
:101338003D30206384F83E0010BD80F83C3002F058
:10134800FBFEB8E74FF4967202FB03F31B4AA2FBBD
:1013580003239B090133C3E7A16889B903EB43025F
:10136800B0FBF2F2C2F30B02B2FA82F25209E2B90E
:1013780091B903EB4303B0FBF3F040F40040BDE741
:1013880003EB830202EB8202B0FBF2F2C2F30B0220
:10139800B2FA82F25209EAE703EB830303EB830311
:1013A800B0FBF3F040F44040A8E70120A6E7012095
:1013B800704700BF83DE1B43A0860100D34D621037
:1013C8002DE9F04184B004460E4690461F46FFF7CB
:1013D800C1F894F83D30DBB2202B04D00226304609
:1013E80004B0BDE8F0810546009019230122544954
:1013F8002046FFF771FD002840F0998094F83C30B2
:10140800012B00F09680012384F83C3023681A6889
:1014180012F0010F03D11A6842F001021A60226823
:10142800136823F400631360212384F83D301023EC
:1014380084F83E3000232364C4F824806785A3F52C
:101448008033E362638D23852B460A9A3146204612
:10145800FFF7BEFD064660B1236C042B04D10023C0
:1014680084F83C300126BAE7002384F83C30032690
:10147800B5E70023039323685A6903929B69039392
:10148800039B10E0236C042B55D12268136843F4A6
:10149800007313600126A2E72A460A992046FFF73F
:1014A800ACFE00282BD1238D002B32D02A460A9976
:1014B8002046FFF77BFE0028E4D1636A5A1C62626B
:1014C80022681B781361638D013B9BB26385238D72
:1014D800013B9BB223852268516911F0040FDBD0D0
:1014E800002BD9D0636A591C61621B781361638D24
:1014F800013B9BB26385238D013B2385CCE7236C9D
:10150800042B1AD12268136843F400731360012670
:1015180065E72268136843F400731360202384F896
:101528003D30002384F83E3084F83C3057E70226EB
:1015380055E7022653E7032651E703264FE700BF86
:10154800020010002DE9F04186B004460E46904690
:101558001F46FEF7FFFF94F83D30DBB2202B04D086
:101568000226304606B0BDE8F081054600901923F2
:1015780001228C492046FFF7AFFC002840F04B8140
:1015880094F83C30012B00F04881012384F83C306A
:1015980023681A6812F0010F03D11A6842F0010299
:1015A8001A602268136823F400631360222384F806
:1015B8003D30102384F83E3000232364C4F824808F
:1015C8006785A3F58033E362638D23852B460C9AE8
:1015D80031462046FFF75AFD064660B1236C042BBE
:1015E80004D1002384F83C300126BAE7002384F8AC
:1015F8003C300326B5E7238D5BB9029323685A690B
:1016080002929A690292029A1A6842F400721A6067
:101618007AE0012B0FD0022B1FD02268136843F405
:10162800806313600023059323685A6905929B69B8
:101638000593059B68E02268136823F480631360B0
:101648000023039323685A6903929A690392039AC1
:101658001A6842F400721A6056E02268136823F48C
:10166800806313602268136843F4006313600023E7
:10167800049323685A6904929B690493049B43E08A
:101688002A460C992046FFF7DFFD68B923681A69D6
:10169800636A591C61621A70238D013B2385638D2F
:1016A800013B9BB263852FE0236C202B01D00126E0
:1016B80057E7032655E700950C9B00223A49204638
:1016C800FFF70AFC002840F0AA802268136843F458
:1016D8000073136023681A69636A591C61621A707F
:1016E800238D013B2385638D013B9BB26385236872
:1016F8001A69636A591C61621A70238D013B23853C
:10170800638D013B9BB26385238D002B7AD0032B1D
:101718004CD8012BB4D0022BCDD000950C9B0022C5
:1017280021492046FFF7D8FB00287AD122681368A0
:1017380023F48063136023681A69636A591C616221
:101748001A70238D013B2385638D013B9BB2638512
:1017580000950C9B002214492046FFF7BDFB00288A
:1017680061D12268136843F40073136023681A690F
:10177800636A591C61621A70238D013B2385638D4E
:10178800013B9BB2638523681A69636A591C6162CD
:101798001A70238D013B2385638D013B9BB26385C2
:1017A800B2E700BF02001000040001002A460C99AD
:1017B8002046FFF749FDF0B923681A69636A591C86
:1017C80061621A70238D013B2385638D013B9BB2B7
:1017D800638523685A6912F0040F95D01A69636A01
:1017E800591C61621A70238D013B2385638D013B6F
:1017F8009BB2638588E7236C202B01D00126B0E6D5
:101808000326AEE6202384F83D30002384F83E30DA
:1018180084F83C30A5E60226A3E60226A1E60326C4
:101828009FE603269DE603269BE600BF70477047A8
:10183800704708B590F83D30DAB2438D9BB273B16A
:10184800436A591C416201681B780B61438D013B57
:101858009BB24385438D9BB20BB9292A01D0002046
:1018680008BD0268536823F480635360212303632F
:10187800282380F83D30FFF7DBFFF0E7704790F84A
:101888003D30DAB2438D9BB2F3B110B503681969E4
:10189800436A5C1C44621970438D013B9BB24385CB
:1018A800438D9BB20BB92A2A01D0002010BD0268D3
:1018B800536823F48063536022230363282380F84A
:1018C8003D30FFF7DBFFF0E700207047704708B5B1
:1018D80003689A6912F0040F09D000219B6913F07C
:1018E800800F06D0028BFFF7F1FF002008BD012111
:1018F800F4E78289F7E7704708B590F83D30DBB226
:10190800C26A042A01D0082A01D1282B07D0212B2A
:101918001FD003686FF480625A61002008BD1A4B1B
:10192800C3620268536823F4E063536003686FF48A
:1019380080625A610268136823F48063136000238D
:101948000363202280F83D2080F83E30FFF7D3FF64
:10195800E3E70D4BC36221230363202380F83D3066
:10196800002380F83E300268536823F4E063536034
:1019780003686FF480625A610268136823F4806315
:101988001360FFF755FFC8E70000FFFF704710B569
:1019980090F83D30DBB290F83E20D2B2C46A018D97
:1019A80009B9212B05D0212B3CD0402A38D0002062
:1019B80010BD042C04D0082C02D014F5803F19D196
:1019C8000268536823F4E06353600268136843F4C1
:1019D8000073136000230363202380F83D3090F8E0
:1019E8003E30DBB2402B15D0002380F83E30FFF7A5
:1019F8001DFFDCE70268536823F4E063536011239A
:101A08000363002380F83E30202380F83D30FFF741
:101A18000DFFCCE7002380F83E30FFF7B7FFC6E79D
:101A2800222BC4D1438D9BB27BB190F83E30DBB200
:101A3800402B10D0436A5A1C426202681B7813611B
:101A4800438D013B9BB24385B1E70268536823F499
:101A580080635360ABE7036D9BB9C36C012B08D05F
:101A6800836CC3F3072302681361036D01330365B5
:101A78009DE7836C0268DBB21361036D0233036573
:101A880095E7036D012B17D0036D022B8FD190F8CA
:101A98003D30DBB2222B17D090F83D30DBB2212B42
:101AA80085D1436A5A1C426202681B781361438DD0
:101AB800013B9BB243857AE7836C0268DBB2136112
:101AC800036D0133036572E70268136843F480739A
:101AD80013606CE708B5C26A90F83D30DBB2212B81
:101AE80001D0002008BD438D9BB203BB042A04D05B
:101AF800082A02D012F5803F24D10268536823F4E3
:101B0800E06353600268136843F4007313600023B2
:101B18000363202380F83D3090F83E30DBB2402B41
:101B280020D0002380F83E30FFF780FED9E7436AD3
:101B38005A1C426202681B781361438D013B9BB2B9
:101B48004385CEE70268536823F4E06353601123AA
:101B58000363002380F83E30202380F83D30FFF7F0
:101B680065FEBEE7002380F83E30FFF70FFFB8E7B9
:101B7800704708B590F83D30DBB2222B01D0002029
:101B880008BD438D9BB2032B13D903681A69436AB6
:101B9800591C41621A70438D013B9BB24385438DAA
:101BA8009BB2032BEBD10268536823F48063536024
:101BB800E5E7012BE3D80268136823F48063136018
:101BC8000268536823F4E063536003681A69436A40
:101BD800591C41621A70438D013B9BB243852023F7
:101BE80080F83D300023036390F83E30DBB2402B91
:101BF80005D0002380F83E30FFF719FEBFE7002329
:101C080080F83E30FFF7B4FFB9E708B5C26A438DE4
:101C18009BB2042B13D0438D9BB2032B1FD0438D53
:101C28009BB2022B30D003681A69436A591C41627F
:101C38001A70438D013B9BB24385002008BD0268A2
:101C4800536823F48063536003681A69436A591C14
:101C580041621A70438D013B9BB24385EDE70268F0
:101C6800536823F4806353600268136823F4806325
:101C7800136003681A69436A591C41621A70438DDC
:101C8800013B9BB24385D8E7013A012A2DD9026866
:101C9800136843F40073136003681A69436A591C94
:101CA80041621A70438D013B9BB2438503681A69F0
:101CB800436A591C41621A70438D013B9BB24385AC
:101CC8000268536823F440735360202380F83D3042
:101CD8000023036390F83E30DBB2402B10D0002382
:101CE80080F83E30FFF7A3FDA7E70268136823F4E6
:101CF800806313600268136843F480731360CBE752
:101D0800002380F83E30FFF733FF96E770477047AF
:101D180010B5044690F83D30293B012B37D990F88F
:101D28003D30DBB2602B07D003685B6813F4006FAB
:101D380002D1202380F83D300023236384F83E300D
:101D48002268136823F40063136023685A6812F446
:101D5800006F3FD05A6822F400625A60626B92F8B2
:101D68003530DBB2012B18D03A4B1365606BFEF7A8
:101D780063FD00283FD02268136823F00103136035
:101D8800202384F83D30606B036D984733E00023CF
:101D98000363282380F83D30D2E7A36B2D4A1A65E8
:101DA800A06BFEF749FD30B323685A6912F0400F63
:101DB80004D01A69636A591C61621A702268136830
:101DC80023F001031360202384F83D30A06B036DDA
:101DD800984710E094F83D20D2B2602A11D05A6991
:101DE80012F0400F04D01A69636A591C61621A70B4
:101DF8002046FFF78BFF94F83D30DBB2282B17D035
:101E080010BD202284F83D20002222645A6912F075
:101E1800400F04D01A69636A591C61621A702268FB
:101E2800136823F0010313602046FFF770FFE2E711
:101E3800236C13F0040FE3D0074BE3620023236302
:101E4800202284F83D2084F83E302046FFF753FDD9
:101E5800D6E700BFA12100080000FFFF10B582B03F
:101E680090F83D30DBB201684A6822F4E0624A60CB
:101E780000220192026851690191116841F0010143
:101E88001160019A01680A6822F480620A60016898
:101E98004A6812F4006F14D090F83D20D2B2222A7A
:101EA8000AD090F83D20D2B22A2A05D0426B126897
:101EB800526892B2428504E0826B1268526892B20C
:101EC8004285428D92B2F2B14A6912F0040F08D0ED
:101ED8000969426A541C44621170428D013A92B2F7
:101EE80042850268516911F0400F08D01169426AB1
:101EF800541C44621170428D013A92B24285026CC0
:101F080042F004020264026CA2B9282B15D02A2BD5
:101F180013D0292B11D0026B222A01D0222B17D1E2
:101F280000230363202280F83D2080F83E30FFF72D
:101F3800A5FC0DE0FFF7ECFE0AE0074BC3620023A7
:101F48000363202280F83D2080F83E30FFF7D3FC61
:101F5800002002B010BD00BF0000FFFFF8B5054625
:101F680003689F695C695E6890F83E30DBB2102BAD
:101F780025D0402B23D04C4B234013B116F4007FBF
:101F88006ED14A4B234013B116F4007F6BD1484BF6
:101F98003B40002B6FD0474B234033B116F4806F82
:101FA80003D0454B2340002B61D0434B234053B310
:101FB80016F4007F27D02846FEF75BFF23E014F0D5
:101FC800011F02D016F4007F1ED13C4B234013B1F1
:101FD80016F4007F1CD1344B234013B116F4007F54
:101FE8001AD1334B3B401BB3324B23402BB116F471
:101FF800806F02D0304B234093B12F4B234013B155
:1020080016F4007F10D1F8BD2846FEF701FEE8E778
:102018002846FEF742FEE4E72846FEF744FEE0E7DE
:102028002846FFF7B4FCEEE72846FFF753FDEAE73A
:10203800234B23402BB116F4806F02D01E4B234054
:1020480053B11D4B2340002BDDD016F4007FDAD0AE
:102058002846FFF7DAFDD6E72846FFF78AFDD2E7DC
:10206800FFF735FCCFE72846FFF7F8FECBE7284611
:10207800FFF7DFFBC7E7124B23402BB116F4806F45
:1020880002D00D4B234053B10B4B2340002BBAD049
:1020980016F4007FB7D02846FEF7FAFEB3E72846C5
:1020A800FFF7EDFBAFE700BF0200010010000100E1
:1020B8000400100080000100040001000800010075
:1020C8004000010070B5044603685D695E68314AE6
:1020D800154209D016F4807F06D0026C42F0010246
:1020E80002646FF480725A6115F4813F0AD016F4C5
:1020F800807F07D0236C43F00203236423686FF4C6
:1021080000725A6115F4823F1AD016F4807F17D0F6
:1021180094F83E30DBB2628D91B294F83D20D2B291
:10212800206B202B1DD0236C43F00403236494F808
:102138003E30DBB2102B22D023686FF480625A61E4
:1021480015F4843F0AD016F4807F07D0236C43F03F
:102158000803236423686FF400625A61236CA3B9EF
:1021680070BD0029DFD1212A05D0292A03D0282AC9
:10217800D9D12128D7D12046FFF7BEFBE0E7226856
:10218800136843F400731360D6E72046FFF7C0FDD9
:10219800E6E700BF0001010008B5806B026813681C
:1021A80023F48063136000234385426B1365826BBD
:1021B800136590F83D30DBB2602B0DD0202380F8FA
:1021C8003D30002380F83E300268136823F0010395
:1021D8001360FFF79BFD08BD202380F83D300023E6
:1021E80080F83E3003640268136823F0010313602B
:1021F800FFF78DFDEFE7704708B5436A9A1C426206
:1022080002681B88D360438D013B9BB24385438D95
:102218009BB203B108BD0268536823F0A0031B04F6
:102228001B0C5360012380F84130FFF7E4FFF1E70E
:10223800704708B50368DA68C36A991CC1621A80D6
:10224800438E013B9BB24386438E9BB203B108BDCC
:102258000268536823F060031B041B0C53600123BE
:1022680080F84130FFF7E4FFF1E77047002800F0FD
:10227800BB8070B50446022580F841505B4B436330
:1022880001F0A4FF2268D36923F47B6323F00F03D2
:10229800D36123681D622368DD696369022B5BD003
:1022A800E368002B3ED02026A368202B00D87600B8
:1022B800012000F06BFE2369B3F5007F34D0B0FB3A
:1022C800F6F000EB800043006269B3FBF2F30533DC
:1022D800474AA2FB0323DB0803F001029B1AC3F35E
:1022E8004F0311029A1EFD2A38D822690A43216831
:1022F80013430B626268A168E068238B03439BB2B7
:102308000B439BB213439BB243F400631D43236802
:10231800DD61236A012B2AD000206064012384F840
:10232800413070BD1026BFE7E36853B1B600B0FB7B
:10233800F6F000EB800043006269B3FBF2F305336B
:10234800C6E7F600B0FBF6F000EB800043006269D8
:10235800B3FBF2F30533BBE70021C3E7636C43F03B
:10236800100363642046FFF780FF0120D9E7214B63
:1023780063632268204B9A421ED04FF04022D369F3
:1023880023F47B6323F00F03D36122681A4B9A422C
:1023980014D04FF0402302221A622268164B9A4248
:1023A8000FD04FF04022D0696168B1F5007F0AD0A4
:1023B800C1B94FF4807608E0104AE0E7A3F58063DE
:1023C800E9E70E4AEFE74FF48076A168E568238BCA
:1023D8002B439BB20B439BB2334343F40063034349
:1023E800D36199E70026F0E7012070470924000827
:1023F800CDCCCCCC25260008003800400034004065
:1024080010B584B0044602689368039390F841308D
:10241800DBB2042B06D094F84130DBB2032B2ED06C
:1024280004B010BD039B13F0010F03D0536813F0E1
:10243800400F21D1039B13F0400FECD023685A685A
:1024480012F0200FE7D05A6822F060021204120C32
:102458005A60002301932368DA6801929B6801930C
:10246800019B012384F84130636C43F002036364E9
:102478002046FFF7FAFECEE7FFF7DBFEDAE7039B1D
:1024880013F0020F04D023685B6813F0800F1FD18C
:10249800039B13F0080FC3D023685A6812F0200F6B
:1024A800BED05A6822F0A0021204120C5A6000230F
:1024B800029323689B680293029B012384F84130AE
:1024C800636C43F0040363642046FFF7CEFEA7E77E
:1024D8002046FFF791FEDBE77047000008B5E9B931
:1024E800436A9A1C426202681B88D360438D013B91
:1024F8009BB24385438D9BB24BB90268536823F066
:10250800A0031B041B0C5360438E9BB203B108BD90
:10251800012380F84130FFF7DFFFF8E7436A9A1C90
:1025280042621A880168134B99421ED04FF040232B
:10253800DA60438D013B9BB24385438D9BB2002BF0
:10254800E5D102680B4B9A4212D04FF040225368F3
:1025580023F0A0035360438E9BB2002BD7D10123F5
:1025680080F84130FFF7B8FFD1E7A3F58063DFE7D4
:10257800014AECE7003800400034004008B5E9B9EA
:102588000368DA68C36A991CC1621A80438E013BEA
:102598009BB24386438E9BB24BB90268536823F0C3
:1025A80060031B041B0C5360438D9BB203B108BD31
:1025B800012380F84130FFF78FFFF8E70268154BD9
:1025C8009A4222D04FF04023DA68C36A991CC1624C
:1025D8001A80438E013B9BB24386438E9BB2002BED
:1025E800E5D102680B4B9A4212D04FF04022536853
:1025F80023F060035360438D9BB2002BD7D1012396
:1026080080F84130FFF768FFD1E7A3F58063DBE787
:10261800014AECE7003800400034004010B584B0AF
:10262800044603689A6803927C4A93425DD04FF04F
:1026380040218A680292DA6902F44072B2F5007F9A
:1026480004D0DA6912F4407F40F08180039A12F0D6
:10265800020F03D05B6813F0800F48D1029B13F080
:10266800010F09D022686D4B9A4245D04FF04023A4
:102678005B6813F0400F42D1029B13F0400F09D062
:102688002268664B9A423FD04FF040235A6812F0B6
:10269800200F3CD1039B13F0080F24D023685A68FD
:1026A80012F0200F1FD05A6822F0A0021204120C58
:1026B8005A602268594B9A4247D04FF040225368DB
:1026C80023F0600353600023019323689B68019300
:1026D800019B012384F84130636C43F00403636475
:1026E8002046FFF7C2FD04B010BD4D49A1E7002107
:1026F8002046FFF7F3FEB1E7A3F58063B8E70121B1
:102708002046FFF73BFFB7E7A3F58063BEE75A68AB
:1027180022F060025A602268536823F0A0031B0469
:102728001B0C5360002300932368DA6800929B68AF
:102738000093009B012384F84130636C43F002034B
:1027480063642046FFF791FDA4E7354AB7E7029B8B
:1027580013F0020F03D04B6813F0800F4FD1039B87
:1027680013F0010F04D023685B6813F0400F4BD1BE
:10277800039B13F0400F1ED023685A6812F0200FF5
:1027880019D05A6822F060021204120C5A602268AA
:10279800224B9A423DD04FF04022536823F0A003C9
:1027A8005360012384F84130636C43F0020363648F
:1027B8002046FFF75AFD029B13F0080F93D02268BA
:1027C800164B9A4227D04FF040235A6812F0200F38
:1027D80089D05A6822F0A0025A602268536823F010
:1027E80060031B041B0C5360012384F84130636CA5
:1027F80043F0040363642046FFF737FD73E70121C4
:102808002046FFF76BFEAAE700212046FFF7B6FE39
:10281800AEE7034AC1E7A3F58063D6E70038004076
:1028280000340040002800F0BB8170B582B0044637
:10283800036813F0010F3BD0A74B9B6803F00C0310
:10284800042B2CD0A44B9B6803F00C03082B21D03D
:102858006368B3F5803F4FD0B3F5A02F52D09E4B9D
:102868001A6822F480321A601A6822F480221A60E8
:102878006368002B50D0FDF76DFE0546964B1B682C
:1028880013F4003F14D1FDF765FE401B6428F5D909
:1028980003208AE1904B5B6813F4800FD8D08E4BED
:1028A8001B6813F4003F03D06368002B00F07A81A3
:1028B800236813F0020F55D0874B9B6813F00C0F59
:1028C8003ED0854B9B6803F00C03082B33D0E3689C
:1028D800002B68D0814B01221A60FDF73BFE0546AC
:1028E8007D4B1B6813F0020F54D1FDF733FE401BDC
:1028F8000228F5D9032058E1774A136843F4803356
:102908001360B5E7744B1A6842F480221A601A689B
:1029180042F480321A60ABE7FDF71CFE05466E4BA9
:102928001B6813F4003FC3D0FDF714FE401B642856
:10293800F5D9032039E1684B5B6813F4800FC6D1E1
:10294800654B1B6813F0020F04D0E368012B01D01C
:1029580001202AE1604A136823F0F803216943EA59
:10296800C1031360236813F0080F40D0636963B391
:102978005B4B01221A60FDF7EDFD0546564B5B6F78
:1029880013F0020F33D1FDF7E5FD401B0228F5D9FE
:1029980003200AE1504A136823F0F803216943EA47
:1029A800C1031360DEE74D4B00221A60FDF7D2FD2C
:1029B8000546494B1B6813F0020FD3D0FDF7CAFD3B
:1029C800401B0228F5D90320EFE0454B00221A608E
:1029D800FDF7C0FD0546404B5B6F13F0020F06D0B4
:1029E800FDF7B8FD401B0228F5D90320DDE0236878
:1029F80013F0040F79D0384B1B6C13F0805F33D180
:102A080000230193344B1A6C42F080521A641B6CF9
:102A180003F080530193019B0125324B1B6813F48B
:102A2800807F23D0A368012B34D0052B38D02A4BC4
:102A38001A6F22F001021A671A6F22F004021A674D
:102A4800A368002B36D0FDF785FD0646224B1B6F89
:102A580013F0020F48D1FDF77DFD801B41F288334A
:102A68009842F3D90320A0E00025D6E71D4A136851
:102A780043F480731360FDF76DFD0646194B1B6820
:102A880013F4807FCED1FDF765FD801B0228F5D9B0
:102A980003208AE0104A136F43F001031367CFE75E
:102AA8000D4B1A6F42F004021A671A6F42F00102C6
:102AB8001A67C5E7FDF74EFD0646074B1B6F13F077
:102AC800020F11D0FDF746FD801B41F28833984272
:102AD800F3D9032069E000BF0038024000004742F4
:102AE800800E474200700040E5B9A369002B5BD017
:102AF800304A926802F00C02082A58D0022B17D0EC
:102B08002D4B00221A60FDF725FD0446294B1B6852
:102B180013F0007F42D0FDF71DFD001B0228F5D9F8
:102B2800032042E0234A136C23F080531364DCE74C
:102B3800214B00221A60FDF70DFD05461D4B1B6851
:102B480013F0007F06D0FDF705FD401B0228F5D9DC
:102B580003202AE0E369226A1343626A43EA821384
:102B6800A26A5208013A43EA0243E26A43EA02636C
:102B7800104A5360104B01221A60FDF7EBFC044623
:102B88000C4B1B6813F0007F06D1FDF7E3FC001B1C
:102B98000228F5D9032008E0002006E0002004E020
:102BA80001207047012000E0002002B070BD012024
:102BB800FBE700BF0038024060004742324B9B6889
:102BC80003F00C03042B5CD0082B01D02F4870476E
:102BD8002DE9F04B2C4B5A6802F03F025B6813F466
:102BE800800F2BD0284B5B68C3F388131E46002741
:102BF8005C010025E41A65EB0705A90141EA946127
:102C0800A001001B61EB0501CB0043EA5073C4002F
:102C1800A01943EB07014B0243EAD0534402204674
:102C280019460023FDF7CCFA174B5B68C3F3014341
:102C380001335B00B0FBF3F0BDE8F08B124B5B682F
:102C4800C3F388131E4600275C010025E41A65EBD0
:102C58000705A90141EA9461A001001B61EB050188
:102C6800CB0043EA5073C400A01943EB07018B0261
:102C780043EA90538402204619460023FDF7A0FA40
:102C8800D2E70348704700BF003802400024F40030
:102C980000127A00002800F09D8070B504464F4B62
:102CA8001B6803F00F038B4209D2CBB24B4A137057
:102CB800136803F00F038B4201D0012070BD236815
:102CC80013F0020F17D013F0040F04D0444A93688E
:102CD80043F4E0539360236813F0080F04D0404A8C
:102CE800936843F4604393603D4A936823F0F0038C
:102CF800A068034393600D46236813F0010F32D098
:102D08006368012B21D09A1E012A25D9344A1268FA
:102D180012F0020F60D032498A6822F0030213438E
:102D28008B60FDF717FC06462D4B9B6803F00C03E0
:102D38006268B3EB820F16D0FDF70CFC801B41F2E2
:102D480088339842F0D90320B8E7254A126812F46C
:102D5800003FE0D10120B1E7214A126812F0007F5C
:102D6800D9D10120AAE71D4B1B6803F00F03AB4222
:102D780009D9EAB2194B1A701B6803F00F03AB426A
:102D880001D001209AE7236813F0040F06D0144AF3
:102D9800936823F4E053E1680B439360236813F0CE
:102DA800080F07D00E4A936823F46043216943EA69
:102DB800C1039360FFF702FF094B9B68C3F303133A
:102DC800084AD35CD840084B18600020FDF778FB10
:102DD800002073E70120704701206FE7003C0240A4
:102DE80000380240BC4500080C000020014B186860
:102DF800704700BF0C00002008B5FFF7F7FF044B31
:102E08009B68C3F38223034AD35CD84008BD00BF44
:102E180000380240CC45000808B5FFF7E7FF044B2F
:102E28009B68C3F34233034AD35CD84008BD00BF54
:102E380000380240CC45000830B583B0044603682A
:102E480013F0050F06D1236813F0020F2ED10020CE
:102E580003B030BD494B00221A60FDF77BFB0546E5
:102E6800474B1B6813F0006F06D0FDF773FB401B40
:102E78000228F5D90320EBE76268A3681B0743EA39
:102E880082133F4AC2F884303C4B01221A60FDF796
:102E980061FB05463A4B1B6813F0006FD3D1FDF771
:102EA80059FB401B0228F5D90320D1E700230193E1
:102EB800334B1A6C42F080521A641B6C03F0805337
:102EC8000193019B2F4A136843F480731360FDF745
:102ED80041FB05462B4B1B6813F4807F06D1FDF799
:102EE80039FB401B0228F5D90320B1E7244B1B6F9F
:102EF80013F4407312D0E26802F440729A420DD083
:102F08001F4B1A6F22F440721F49012008600020ED
:102F180008601A671B6F13F0010F13D1E36803F4FD
:102F28004072B2F5407F1ED0154A936823F4F81317
:102F3800936013490B6FE268C2F30B0213430B67EC
:102F4800002085E7FDF706FB05460D4B1B6F13F0C8
:102F5800020FE3D1FDF7FEFA401B41F28833984295
:102F6800F3D9032074E706498A6822F4F81223F09B
:102F7800704323F4407313438B60DAE768004742D9
:102F88000038024000700040400E474201282AD114
:102F9800174B9B6813F4000303D0012B25D1154868
:102FA8007047134B5B6813F4800F14D0104B5B68A9
:102FB80003F03F031048B0FBF3F00D4AD2F8843019
:102FC800C3F3881300FB03F0D2F88430C3F3027311
:102FD800B0FBF3F07047064B5B6803F03F0307480C
:102FE800B0FBF3F0E9E7002070470020704700BF0E
:102FF800003802400080BB0000127A000024F40070
:1030080000283BD010B504460023836290F8513065
:10301800002B2ED0022384F851302268136823F045
:10302800400313606368A2681343E268134322698C
:10303800134362691343A26902F400721343E269FD
:103048001343226A1343A16A22680B431360638BFC
:1030580003F00403616A22680B4353602268D36952
:1030680023F40063D36100206065012384F85130A4
:1030780010BD80F8503001F01DF9CBE701207047F2
:1030880010B4036A046A24F001040462846924F019
:10309800F00444EA021223F00A030B43826103623C
:1030A8005DF8044B704710B4036A23F01003036201
:1030B8008469036A24F4704444EA023223F0A003CA
:1030C80043EA0113826103625DF8044B7047836829
:1030D80023F0700341F0070119438160704710B471
:1030E800846824F47F4442EA03230B432343836028
:1030F8005DF8044B70470268D36843F00103D3605E
:103108000268136843F0010313600020704790F8C9
:103118003830012B7DD010B50446012380F83830B3
:10312800022380F839300268936823F47F4323F040
:10313800770393600B68402B57D010D9702B3ED083
:103148001FD8502B47D0602B32D1CA684968006815
:10315800FFF7A9FF60212068FFF7B9FF28E0102BCF
:103168004DD008D9202B4FD0302B21D130210068E9
:10317800FFF7ADFF1CE0DBB900210068FFF7A7FFF0
:1031880016E0B3F5805F0ED0B3F5005F10D1CB68C1
:103198004A6889680068FFF7A2FF2268936843F4C9
:1031A8008043936004E00268936823F00703936008
:1031B800012384F83930002084F8380010BDCB682A
:1031C8004A6889680068FFF78AFF2268936843F0B5
:1031D80077039360ECE7CA6849680068FFF750FF17
:1031E80050212068FFF773FFE2E7CA684968006862
:1031F800FFF746FF40212068FFF769FFD8E7102155
:103208000068FFF764FFD3E720210068FFF75FFF3E
:10321800CEE702207047704770477047704710B577
:10322800044603681A6912F0020F11D0DA6812F026
:10323800020F0DD06FF002021A61012303760368B2
:103248009B6913F0030F70D0FFF7E6FF0023237686
:1032580023681A6912F0040F12D0DA6812F0040F0A
:103268000ED06FF004021A610223237623689B694B
:1032780013F4407F5FD02046FFF7CEFF002323766C
:1032880023681A6912F0080F12D0DA6812F0080FD2
:103298000ED06FF008021A61042323762368DB69D5
:1032A80013F0030F4ED02046FFF7B6FF0023237616
:1032B80023681A6912F0100F12D0DA6812F0100F92
:1032C8000ED06FF010021A61082323762368DB6999
:1032D80013F4407F3DD02046FFF79EFF002323765E
:1032E80023681A6912F0010F03D0DA6812F0010F8F
:1032F80036D123681A6912F0800F03D0DA6812F009
:10330800800F34D123681A6912F0400F03D0DA68AD
:1033180012F0400F32D123681A6912F0200F03D03F
:10332800DA6812F0200F30D110BDFFF774FF204685
:10333800FFF773FF8AE72046FFF76DFF2046FFF788
:103348006CFF9BE72046FFF766FF2046FFF765FF07
:10335800ACE72046FFF75FFF2046FFF75EFFBDE7BB
:103368006FF001021A61204600F0C6FCC1E76FF059
:1033780080021A61204600F0B2F8C3E76FF04002FD
:103388001A612046FFF74AFFC5E76FF020021A616D
:10339800204600F0A3F8C7E703682E4A904212D0EF
:1033A800B0F1804F0FD0A2F57C4290420BD002F5CD
:1033B8008062904207D002F58062904203D002F505
:1033C8007842904203D123F070034A681343214A9C
:1033D80090422AD0B0F1804F27D0A2F57C4290428B
:1033E80023D002F5806290421FD002F5806290429D
:1033F8001BD002F57842904217D002F570529042E5
:1034080013D002F5806290420FD002F5806290429C
:103418000BD0A2F59832904207D002F58062904214
:1034280003D002F58062904203D123F44073CA6846
:10343800134303608B68C3620B688362054B984231
:1034480003D003F58063984201D10B69036301231C
:103458004361704700000140A8B110B5044690F8D8
:1034680039305BB1022384F83930211D2068FFF719
:1034780093FF012384F83930002010BD80F83830DC
:1034880000F050FFEEE70120704790F83830012B2C
:1034980022D030B4012280F83820022380F8393055
:1034A8000468636823F070036360046863680D68E8
:1034B8002B4363600468A36823F08003A360046857
:1034C800A36849680B43A36080F83920002380F87B
:1034D8003830184630BC7047022070477047704734
:1034E8002DE9F843044601680A6922F44052C3688A
:1034F80013430B610168CA6822F4164222F00C02D9
:1035080083680069034360690343E0690343134325
:10351800CB6021684A6922F44072A36913434B6166
:10352800E369B3F5004F60D02368B84A934200F0CE
:10353800148102F58062934200F00F81FFF75CFC72
:1035480000EB800000EB80006568AD00B0FBF5F58E
:10355800AF4FA7FB05356D092E01FFF74DFC00EBBA
:10356800800000EB80006568AD00B0FBF5F9FFF75F
:1035780043FC00EB800000EB80006568AD00B0FB09
:10358800F5F5A7FB05356D094FF0640808FB15959F
:103598002D013235A7FB05356D0905F0F0053544D9
:1035A800FFF72AFC00EB800000EB80006668B6009D
:1035B800B0FBF6F6FFF720FC00EB800000EB800084
:1035C80063689B00B0FBF3F0A7FB0030400908FBE1
:1035D80010684FEA081808F13208A7FB0837C7F344
:1035E800431723682F449F600DE12368874A93425D
:1035F8005BD002F58062934257D0FFF7FDFB00EBEA
:10360800800000EB800065686D00B0FBF5F5804F29
:10361800A7FB05356D092E01FFF7EEFB00EB8000D7
:1036280000EB800065686D00B0FBF5F9FFF7E4FB7F
:1036380000EB800000EB800065686D00B0FBF5F5DD
:10364800A7FB05356D094FF0640808FB1595ED00DB
:103658003235A7FB05356D096D0005F4F87535445D
:10366800FFF7CAFB00EB800000EB8000666876007D
:10367800B0FBF6F6FFF7C0FB00EB800000EB800024
:1036880063685B00B0FBF3F3A7FB03235B0908FB4C
:1036980013684FEAC80808F13208A7FB0837C7F3D0
:1036A800421723682F449F60ADE0FFF7B5FB00EB9E
:1036B800800000EB800065686D00B0FBF5F5544FA5
:1036C800A7FB05356D092E01FFF7A6FB00EB80006F
:1036D80000EB800065686D00B0FBF5F9FFF79CFB17
:1036E80000EB800000EB800065686D00B0FBF5F52D
:1036F800A7FB05356D094FF0640808FB1595ED002B
:103708003235A7FB05356D096D0005F4F8753544AC
:10371800FFF782FB00EB800000EB80006668760014
:10372800B0FBF6F6FFF778FB00EB800000EB8000BB
:1037380063685B00B0FBF3F3A7FB03235B0908FB9B
:1037480013684FEAC80808F13208A7FB0837C7F31F
:10375800421723682F449F6055E0FFF75DFB00EB9D
:10376800800000EB80006568AD00B0FBF5F5284FE0
:10377800A7FB05356D092E01FFF74EFB00EB800016
:1037880000EB80006568AD00B0FBF5F9FFF744FB7E
:1037980000EB800000EB80006568AD00B0FBF5F53C
:1037A800A7FB05356D094FF0640808FB15952D0139
:1037B8003235A7FB05356D0905F0F0053544FFF7EF
:1037C8002BFB00EB800000EB80006668B600B0FBC6
:1037D800F6F6FFF721FB00EB800000EB8000636842
:1037E8009B00B0FBF3F0A7FB0030400908FB106812
:1037F8004FEA081808F13208A7FB0837C7F3431740
:1038080023682F449F60BDE8F88300BF0010014083
:103818001F85EB5158B310B5044690F839300BB3F7
:10382800242384F839302268D36823F40053D36002
:103838002046FFF755FE2268136923F4904313616D
:103848002268536923F02A0353612268D36843F43A
:103858000053D3600020E063202384F8393084F8D3
:103868003A3010BD80F8383000F0A8FDD8E70120C4
:103878007047000030B4B0F5FA6F02D3A0F5FA60D3
:1038880080B292B2012306E05C1E0F4D2C5D2244EB
:1038980092B20133DBB28B42F6D3022904D910F07D
:1038A800030F01D1013292B200EBC00300EBC30356
:1038B80003EB83031A4492B2033002EBA00080B2F8
:1038C800013880B230BC7047D44500082DE9F0417A
:1038D8008CB000240794089409940A940B940194DA
:1038E800384B1A6B42F010021A631A6B02F010027E
:1038F8000192019A02941A6B42F080021A631A6BC1
:1039080002F080020292029A03941A6B42F00102BA
:103918001A631A6B02F001020392039A04941A6B59
:1039280042F002021A631A6B02F002020492049A2D
:1039380005941A6B42F008021A631A6B02F0080227
:103948000592059A06941A6B42F004021A631B6BDF
:1039580003F004030693069BDFF874802246FF21D8
:103968004046FDF74FF9184F22464FF4704138464C
:10397800FDF748F9154E22464FF210013046FDF783
:1039880041F9FF2307930125089509940A9407A98B
:103998004046FDF753F84FF4704307930895099490
:1039A8000A9407A93846FDF749F84FF21003079320
:1039B800089509940A9407A93046FDF73FF80CB01A
:1039C800BDE8F0810038024000040240000C0240CB
:1039D8000010024000B583B000210191094B1A6B19
:1039E80042F400121A631B6B03F400130193019B4A
:1039F8000A461020FCF7C6FD1020FCF7F7FD03B0BF
:103A08005DF804FB0038024008B50948094B03601B
:103A1800094B436000238360C3604FF48042026116
:103A280043618361C3610362FDF73CFC08BD00BFCD
:103A38007800002000540040A086010008B509481D
:103A4800094B03604FF40072426000238360C36037
:103A580002614BF6803242618361C3610362FEF703
:103A680005FC08BDA4040020003C004030B583B02C
:103A7800002400940194074D074B2B602846FCF75F
:103A8800D7FD00940194224669462846FCF7E2FDDA
:103A980003B030BDD80300200074004030B587B0B3
:103AA80000240294039404940594009401940E4D08
:103AB8004FF080432B6053236B60AC601323EB60A3
:103AC8002C612846FFF7C8FC4FF48053029302A9E3
:103AD8002846FFF71CFB20230093019469462846DB
:103AE800FFF7D3FC07B030BD5804002030B587B0CD
:103AF80000240294039404940594009401940E4DB8
:103B08000E4B2B6040F22B136B60AC604523EB60CF
:103B18002C612846FFF7A0FC4FF48053029302A9BA
:103B28002846FFF7F4FA0094019469462846FFF7FF
:103B3800ACFC07B030BD00BFD0000020000400403E
:103B480030B587B00024029403940494059400943B
:103B580001940D4D0D4B2B6001236B60AC60EB6045
:103B68002C612846FFF778FC4FF48053029302A992
:103B78002846FFF7CCFA0094019469462846FFF7D7
:103B880084FC07B030BD00BF3800002000080040AA
:103B980008B50848084B03604FF4E133436000233D
:103BA8008360C36003610C2242618361C361FFF7D4
:103BB80031FE08BD980300200010014008B50C48EC
:103BC8000C4B03604FF48273436000238360C3602F
:103BD800036143614FF4007282611822C26103627B
:103BE800436283620A23C362FFF70AFA08BD00BF73
:103BF800000400200030014000F00F02030903EB2D
:103C0800830358001044C0B27047000008B5D2B210
:103C1800C9B280B2FFF72EFE0630064B83FB0023A5
:103C28001A18C317C3EBA203C3EBC303C01AC0B26D
:103C380008BD00BF9324499270B582B0234E00237B
:103C48003370234C3225009501233246D02120467B
:103C5800FDF7B6FB009507233246D0212046FDF735
:103C680071FCB078FFF7C8FF1A4B18707078FFF72F
:103C7800C3FF194B18703078FFF7BEFF174B187049
:103C8800B079FFF7B9FF0446154B18707079FFF744
:103C9800B3FF0546134B18703079FFF7ADFF0246A6
:103CA800114B1870114BA3FB04135B09642101FB32
:103CB8001343DBB203F5FA630D490B60294620462E
:103CC800FFF7A4FF0B4B187002B070BD94040020DE
:103CD80078000020EC030020ED030020EE03002014
:103CE80030000020CC0000209C0400201F85EB51F0
:103CF80034000020FD0300200268A34B9A4200D044
:103D080070472DE9F041A14B1D78A14BA3FB05128B
:103D1800D208D4B202EB820251006D1AEDB29D4A6C
:103D28001278A3FB0213DB08DFB203EB830359000D
:103D3800521AD6B2DFF8688200224FF4805140460A
:103D4800FCF760FF00224FF400514046FCF75AFF91
:103D580000224FF480414046FCF754FF00224FF404
:103D680000414046FCF74EFF0122FF218A48FCF73C
:103D780049FF8A4B1B68013B032B12D8DFE803F08D
:103D8800022579B501224FF480518548FCF73AFFA6
:103D9800012C0ED03CB1022C11D0804A136801339B
:103DA8001360BDE8F08100223F217B48FCF72AFF21
:103DB800F3E7002206217848FCF724FFEDE700220C
:103DC8005B217548FCF71EFFE7E701224FF400511D
:103DD8007348FCF717FF092D0BD8DFE805F0051429
:103DE8001A20262C32383E4400223F216A48FCF72C
:103DF80009FF002280216848FCF704FF674A13681E
:103E080001331360CDE7002206216348FCF7FAFE70
:103E1800EFE700225B216048FCF7F4FEE9E70022A7
:103E28004F215D48FCF7EEFEE3E7002266215A4881
:103E3800FCF7E8FEDDE700226D215748FCF7E2FEBB
:103E4800D7E700227D215448FCF7DCFED1E70022A9
:103E580007215148FCF7D6FECBE700227F214E48C8
:103E6800FCF7D0FEC5E700226F214B48FCF7CAFEDD
:103E7800BFE701224FF480414948FCF7C3FE062FF3
:103E88000AD8DFE807F0040E141A20262C000022B6
:103E98003F214148FCF7B6FE404A136801331360DE
:103EA8007FE7002206213C48FCF7ACFEF4E700223D
:103EB8005B213948FCF7A6FEEEE700224F21364881
:103EC800FCF7A0FEE8E7002266213348FCF79AFEDB
:103ED800E2E700226D213048FCF794FEDCE700227F
:103EE8007D212D48FCF78EFED6E701224FF40041D4
:103EF8002B48FCF787FE092E0BD8DFE806F0050EE5
:103F0800141A20262C32383E00223F212248FCF782
:103F180079FE224B01221A6043E7002206211E483F
:103F2800FCF770FEF5E700225B211B48FCF76AFEF0
:103F3800EFE700224F211848FCF764FEE9E700226A
:103F480066211548FCF75EFEE3E700226D21124862
:103F5800FCF758FEDDE700227D210F48FCF752FEF2
:103F6800D7E7002207210C48FCF74CFED1E70022D6
:103F78007F210948FCF746FECBE700226F2106485F
:103F8800FCF740FEC5E700BF00040040EC0300203A
:103F9800CDCCCCCCED03002000100240080000205E
:103FA8000004024070B598B0302200210DEB0200E9
:103FB80000F0E8FA00240794089409940A940B94F2
:103FC800039404940594069401941F4B1A6C42F0D0
:103FD80080521A641B6C03F080530193019B029476
:103FE8001A4B1A6842F480421A601B6803F4804333
:103FF8000293029B01260C964FF480330D93022501
:1040080012954FF48003139304231493A822159256
:10401800169517930CA8FEF705FC0F230793089530
:1040280009944FF4A0530A934FF480530B9305213E
:1040380007A8FEF72FFE0396C0230493059503A84F
:10404800FEF7FAFE18B070BD00380240007000405C
:1040580008B5FCF759FAFFF7A5FFFFF737FCFFF79C
:10406800B9FCFFF7D1FCFFF7E9FCFFF7FFFCFFF70E
:1040780015FDFFF78DFDFFF739FDFFF761FDFFF730
:104088009DFD0348FFF737F8FFF7D6FDFCE700BFB3
:10409800D00000207047000082B0002100910B4B37
:1040A8005A6C42F480425A645A6C02F4804200927C
:1040B800009A01911A6C42F080521A641B6C03F04A
:1040C80080530193019B02B0704700BF0038024043
:1040D80000B589B0002303930493059306930793CF
:1040E8000268134B9A4202D009B05DF804FB002124
:1040F800019103F5E2331A6C42F000521A641A6C0B
:1041080002F000520192019A02911A6B42F00102E8
:104118001A631B6B03F001030293029B10230393A2
:104128000323049303A90348FCF788FCDCE700BFDA
:10413800007400400000024030B589B000230393AA
:10414800049305930693079302681D4B9A4201D086
:1041580009B030BD002401941A4D2B6B43F00203C3
:104168002B632B6B03F002030193019B4FF4107335
:104178000393122304930123059303230693042333
:10418800079303A91048FCF759FC02942B6C43F4DD
:1041980000132B642B6C03F400130293029B22463A
:1041A80021461F20FCF7EEF91F20FCF71FFA2246D4
:1041B80021462020FCF7E6F92020FCF717FAC7E78C
:1041C800005400400038024000040240F0B589B0B5
:1041D8000023039304930593069307930268304BD7
:1041E8009A4201D009B0F0BD04460025009503F5B8
:1041F800FE331A6C42F400421A641A6C02F400424C
:104208000092009A01951A6B42F004021A631A6B25
:1042180002F004020192019A02951A6B42F001021F
:104228001A631B6B03F001030293029B4FF4A45320
:104238000393022704970626079603A91948FCF753
:10424800FDFB4FF4004303930497059506950796E5
:1042580003A91548FCF7F2FB1448154B03604560A9
:1042680040238360C5604FF4806303614FF40063AB
:1042780043614FF4005383614FF48073C361056257
:104288000423436203238362C5620563FCF76EFA65
:1042980018B9064BA3639C63A4E7FFF7FBFEF8E796
:1042A800003C004000080240000002400C010020D1
:1042B8008860024000B589B00023039304930593F6
:1042C800069307930268154B9A4202D009B05DF82D
:1042D80004FB0021019103F584335A6C42F48052A7
:1042E8005A645A6C02F480520192019A02911A6B34
:1042F80042F002021A631B6B03F002030293029B53
:104308003823039302230493032306930523079377
:1043180003A90348FCF792FBD8E700BF003001402F
:104328000004024000B585B00368B3F1804F08D09F
:104338001F4A93421AD01F4A93422BD005B05DF80A
:1043480004FB0021019103F50E331A6C42F00102BF
:104358001A641B6C03F001030193019B0A461C209D
:10436800FCF710F91C20FCF741F9E7E7002102915E
:10437800114B1A6C42F002021A641B6C03F0020320
:104388000293029B0A461D20FCF7FCF81D20FCF74F
:104398002DF9D3E700230393074B1A6C42F004026C
:1043A8001A641B6C03F004030393039BC6E700BF66
:1043B80000040040000800400038024000B589B001
:1043C800002303930493059306930793026803F16C
:1043D800804303F588339A4202D009B05DF804FBA4
:1043E8000021019103F594335A6C42F010025A648B
:1043F8005A6C02F010020192019A02911A6B42F073
:1044080001021A631B6B03F001030293029B4FF432
:10441800C0630393022304930123059303230693A4
:104428000723079303A90248FCF708FBD5E700BF59
:10443800000002407047FEE7FEE7FEE7FEE7704730
:104448007047704708B5FCF779F808BD08B5024809
:10445800FCF706FA08BD00BF0C01002008B50248A9
:10446800FEF7DDFE08BD00BF5804002008B502486D
:10447800FEF7D5FE08BD00BFD000002008B50248F1
:10448800FDF76CFD08BD00BF7800002008B50248A4
:10449800FDF718FE08BD00BF780000200F49D1F8CD
:1044A800883043F47003C1F888300D4B1A6842F025
:1044B80001021A60002098601A6822F0847222F4BF
:1044C80080321A60074A5A601A6822F480221A60F9
:1044D800D8604FF000638B60704700BF00ED00E0CC
:1044E8000038024010300024DFF834D0002103E007
:1044F8000C4B5B58435004310B480C4B42189A4202
:10450800F6D30B4A02E0002342F8043B094B9A42D7
:10451800F9D3FFF7C3FF00F011F8FFF799FD7047D3
:1045280000000220F04500080000002010000020D4
:10453800100000202C080020FEE7000070B50D4E8A
:104548000D4CA41BA4100025A54209D10B4E0C4C00
:1045580000F020F8A41BA4100025A54205D170BDC9
:1045680056F8253098470135EEE756F82530984734
:104578000135F2E7E8450008E8450008E845000885
:10458800EC45000802440346934200D1704703F803
:10459800011BF9E7F8B500BFF8BC08BC9E46704798
:0C45A800F8B500BFF8BC08BC9E46704788
:1045B400000610160006101600000000000000009F
:1045C40001020304060708090000000001020304B5
:0C45D4001F1C1F1E1F1E1F1F1E1F1E1F6E
:0845E00018BCFF7F0100000080
:0445E800AD01000819
:0445EC008901000839
:1045F0000100000010000000010000000024F40091
:04000005080044F1BA
:00000001FF
