:020000040800F2
:1000000000000220C15200081D5200081F520008C3
:100010002152000823520008255200080000000069
:10002000000000000000000000000000275200084F
:1000300029520008000000002B5200082D52000831
:100040001153000811530008115300081153000800
:1000500011530008115300081153000811530008F0
:1000600011530008115300081153000811530008E0
:1000700011530008115300081153000811530008D0
:10008000355200081153000811530008115300089D
:1000900011530008115300081153000811530008B0
:1000A00011530008115300081153000811530008A0
:1000B000115300084552000811530008555200081A
:1000C000655200081153000811530008115300082D
:1000D0001153000811530008115300081153000870
:1000E0001153000811530008115300081153000860
:1000F0001153000811530008115300081153000850
:10010000115300081153000811530008115300083F
:10011000115300081153000811530008115300082F
:10012000115300081153000811530008115300081F
:10013000115300081153000811530008115300080F
:1001400011530008115300081153000811530008FF
:1001500011530008115300081153000811530008EF
:1001600011530008115300081153000811530008DF
:10017000115300081153000811530008000000003B
:0801800011530008115300089F
:1001880010B5054C237833B9044B13B10448AFF3C9
:1001980000800123237010BD14000020000000001F
:1001A8001860000808B5034B1BB103490348AFF3B7
:1001B800008008BD0000000018000020186000083A
:1001C80053B94AB9002908BF00281CBF4FF0FF31B6
:1001D8004FF0FF3000F072B9ADF1080C6DE904CEB4
:1001E80000F006F8DDF804E0DDE9022304B070470A
:1001F8002DE9F047089E04468846002B4BD18A42D9
:10020800154667D9B2FA82F24AB1C2F1200701FA5B
:1002180002F320FA07F7954047EA030894404FEAAB
:10022800154E230CB8FBFEF71FFA85FC0EFB17884A
:1002380043EA084307FB0CF1994209D9EB1807F187
:10024800FF3080F01B81994240F21881023F2B4415
:100258005B1AA4B2B3FBFEF00EFB103344EA03446E
:1002680000FB0CFCA44509D92C1900F1FF3380F0E0
:100278000781A44540F2048102382C4440EA074033
:10028800A4EB0C0400271EB1D4400023C6E90043A8
:100298003946BDE8F0878B4209D9002E00F0EB8083
:1002A8000027C6E9000138463946BDE8F087B3FAA9
:1002B80083F7002F47D18B4202D3824200F2FA80A3
:1002C800841A61EB030301209846002EE0D0C6E9AA
:1002D8000048DDE702B9FFDEB2FA82F2002A40F0F8
:1002E8008F80491B4FEA154E1FFA85F80127B1FB8D
:1002F800FEFC230C0EFB1C1143EA014308FB0CF126
:10030800994207D9EB180CF1FF3002D2994200F25A
:10031800CD808446591AA3B2B1FBFEF00EFB10142F
:1003280043EA044408FB00F8A04507D92C1900F15A
:10033800FF3302D2A04500F2B6801846A4EB0804A9
:1003480040EA0C409FE7C7F1200CBB4022FA0CFEA4
:100358004EEA030E01FA07F420FA0CF521FA0CF321
:100368004FEA1E482543B3FBF8F92C0C08FB193358
:100378001FFA8EFA44EA034309FB0AF49C4202FA84
:1003880007F200FA07F10BD91EEB030309F1FF305E
:1003980080F087809C4240F28480A9F1020973446E
:1003A8001B1BADB2B3FBF8F008FB103345EA03445E
:1003B80000FB0AFAA24508D91EEB040400F1FF333A
:1003C8006BD2A24569D90238744440EA0940A0FBBF
:1003D8000289A4EB0A044C45C2464B4654D351D07B
:1003E800002E69D0B1EB0A0564EB030404FA0CFC97
:1003F800FD40FC404CEA0505C6E90054002747E7E4
:10040800C2F1200320FA03F7954001FA02F021FA1D
:1004180003F34FEA154E3843010CB3FBFEF71FFAFE
:1004280085F80EFB173341EA034107FB08F38B42BB
:1004380004FA02F407D9691807F1FF3C2FD28B425E
:100448002DD9023F2944CB1A81B2B3FBFEF00EFB33
:10045800103341EA034100FB08F38B4207D96918BE
:1004680000F1FF3C17D28B4215D902382944C91A2A
:1004780040EA07473BE73746304609E70746E7E6DD
:100488001846FBE64145ABD2B8EB020A69EB0E020F
:1004980001381346A4E76046E9E7184695E767463A
:1004A800D1E781467CE702382C4447E7ACF1020CDF
:1004B8002B442FE7384608E73746E9E6704700BF80
:1004C80010B504460E4B18784FF47A73B3FBF0F36B
:1004D8000C4A1068B0FBF3F000F094F868B90F2CE0
:1004E80001D901200AE0002221464FF0FF3000F038
:1004F80049F8034B5C60002000E0012010BD00BFFC
:10050800000000201000002008B50B4B1A6842F4C8
:1005180000721A601A6842F480621A601A6842F41B
:1005280080721A60032000F01BF80020FFF7C8FF54
:1005380004F02AFD002008BD003C0240034A11686F
:10054800034B1B780B441360704700BFC4020020A4
:1005580000000020014B1868704700BFC40200204B
:10056800074AD36823F4E0631B041B0C000200F461
:10057800E060184340F0BF6040F40030D06070473E
:1005880000ED00E030B4174BDB68C3F30223C3F17E
:100598000704042C28BF04241D1D062D18D9033B6D
:1005A8004FF0FF3505FA04F421EA0401994005FAF1
:1005B80003F322EA0303194300280BDB0901C9B23C
:1005C80000F1604000F5614080F8001330BC7047CE
:1005D8000023E5E700F00F000901C9B2024B1954E6
:1005E800F4E700BF00ED00E014ED00E000F01F02AA
:1005F800400901239340024A42F82030704700BF67
:1006080000E100E00138B0F1807F0AD2064B586063
:10061800064AF02182F823100020986007221A6009
:1006280070470120704700BF10E000E000ED00E0D7
:1006380030B405682C6824F480242C600468636056
:100648008368402B05D0036899600368DA6030BC82
:10065800704703689A600368D960F8E70268D3B204
:10066800103B0B49A1FB03131B090A49C95CC1656F
:10067800032B06D822F47F7222F003028265806D74
:10068800704722F47F7222F0030204328265F6E793
:10069800ABAAAAAA30600008836A826992B9012BC2
:1006A8000AD01BB1022B01D000207047C36A13F097
:1006B800807F2CD100207047C36AB3F1C07F28D057
:1006C80000207047B2F5005F05D0022B29D9032B13
:1006D80015D000207047032B03D8DFE803F01C0473
:1006E8001C0A00207047C36A13F0807F15D10020D0
:1006F8007047C36AB3F1C07F11D000207047C36A46
:1007080013F0807F01D0012070470020704701203E
:100718007047012070470120704701207047012071
:10072800704701207047000070B50446FFF712FFBC
:10073800002C5BD00546002384F83430022384F86B
:1007480035302268136823F00103136023681A68A0
:1007580012F0010F0AD0FFF7FDFE401B0528F5D95E
:1007680020236365032084F8350070BD1A6820488B
:1007780010406168A2680A43E1680A4321690A4394
:1007880061690A43A1690A43E1690A43216A0A4384
:100798000243616A04291ED01A602668756925F02B
:1007A8000705636A1D43042B07D1A36A1D43E36A47
:1007B8001BB12046FFF770FF90B975612046FFF71F
:1007C8004DFFE26D3F239340836000206065012365
:1007D80084F83530C9E7E16A206B01430A43DBE757
:1007E80040236365012084F83500BEE70120BCE79B
:1007F8003F8010F038B5856D90F83440012C31D029
:10080800012480F8344090F83540E4B2012C04D03B
:10081800002380F83430022038BD0446022084F8D2
:100828003500002060652046FFF702FFE26D3F2398
:100838009340AB602268136843F016031360226884
:10084800536943F080035361236C23B12268136812
:1008580043F0080313602268136843F00103136030
:100868000020D9E70220D7E790F83530DBB2022B19
:1008780003D08023436501207047052380F8353075
:100888000268136823F0010313600020704700001A
:10089800F0B583B0044600230193724B1D68724B78
:1008A800A3FB0535AD0A876D3E68C26D08239340EA
:1008B800334210D003681A6812F0040F0BD01A687C
:1008C80022F004021A60C26D08239340BB60436D96
:1008D80043F001034365E26D01239340334209D09D
:1008E8002268526912F0800F04D0BB60636D43F038
:1008F80002036365E26D04239340334209D0226802
:10090800126812F0020F04D0BB60636D43F0040359
:100918006365E26D10239340334224D02268126845
:1009280012F0080F1FD0BB6023681A6812F4802FDA
:100938000DD01B6813F4002F04D1236C9BB1204603
:10094800984710E0A36C73B1204698470BE01A68EB
:1009580012F4807F03D11A6822F008021A60236C0F
:100968000BB120469847E26D20239340334255D07F
:100978002268126812F0100F50D0BB6094F835301E
:10098800DBB2052B0ED023681A6812F4802F33D0FF
:100998001B6813F4002F2AD1636C002B3ED020462D
:1009A80098473BE02268136823F016031360226817
:1009B800536923F080035361236CA3B12268136841
:1009C80023F008031360E26D3F239340BB600023CC
:1009D80084F83430012384F83530236D002B3FD060
:1009E800204698473CE0A36C002BE7D1EBE7E36B8C
:1009F800A3B12046984711E01A6812F4807F09D104
:100A08001A6822F010021A60002384F83430012397
:100A180084F83530E36B0BB120469847636DFBB122
:100A2800636D13F0010F17D0052384F83530226861
:100A3800136823F001031360019B01330193AB4258
:100A480004D823681B6813F0010FF5D1002384F83C
:100A58003430012384F83530E36C0BB120469847D5
:100A680003B0F0BD10000020B5814E1B00230F2BF2
:100A780000F2D780F0B482B039E0072200E000220B
:100A8800B2403A430234674E46F82420664A146856
:100A9800EA4302EA04064F6817F4803F01D045EAAA
:100AA8000406614C2660646802EA04064F6817F47D
:100AB800003F01D045EA04065B4C6660A46802EA80
:100AC80004064F6817F4801F01D045EA0406564C07
:100AD800A660E46822404E6816F4001F01D045EA7B
:100AE8000402514CE26001330F2B00F2978001227F
:100AF8009A400C6804EA0205AA42F4D14C68022C18
:100B080001D0122C10D1DE08083650F826C003F0A8
:100B18000704A7000F24BC402CEA040C0C69BC4055
:100B280044EA0C0440F8264004685F000326BE40EF
:100B3800F64306EA040C4C6804F00304BC4044EA9B
:100B48000C0404604C6804F1FF3CBCF1010F03D9AC
:100B5800112C01D0122C10D1846806EA040CCC6840
:100B6800BC4044EA0C048460446824EA02024C68ED
:100B7800C4F300149C4014434460C26816408A6859
:100B8800BA403243C2604A6812F0805FABD000229C
:100B98000192264A546C44F480445464526C02F422
:100BA80080420192019A9C08A61C1E4A52F826709F
:100BB80003F0030296000F22B24027EA02071C4AFC
:100BC80090423FF45CAF02F5806290421AD002F581
:100BD8008062904218D002F58062904216D002F5E9
:100BE8008062904214D002F58062904212D002F5E1
:100BF8008062904210D002F5806290423FF43DAF8F
:100C080008223DE701223BE7022239E7032237E7C2
:100C1800042235E7052233E7062231E702B0F0BCAB
:100C28007047704700380140003C014000380240DE
:100C38000000024012B90904816170478161704760
:100C4800436959404161704790F83E30DBB2402B10
:100C580013D00369B3F5804F1ED0036D002B2DD040
:100C6800036D012B33D1436CC3F3C813026803F03F
:100C7800060343F0F103136129E0036D2BB9436CBC
:100C8800026803F0FE03136121E0436C026843F03D
:100C98000103DBB213611AE090F83D30DBB2212B7F
:100CA80006D0436C026843F00103DBB213610EE027
:100CB800436C026803F0FE03136108E0436CC3F35E
:100CC800C813026803F0060343F0F0031361002021
:100CD8007047436C0268DBB213610020704710B4A0
:100CE8008BB090F83E30DAB2C16A046B90F83D30B0
:100CF800DBB2222B0CD00023099303685A690992AE
:100D08009B690993099B00200BB05DF8044B704761
:100D1800036D0BB9402A17D0036D1BB90369B3F5EE
:100D2800404F19D0438D9BB2002B25D10293036805
:100D38005A6902929A690292029A1A6842F40072F7
:100D48001A6000230365DEE7009303685A6900927E
:100D58009B690093009BD6E70023019303685A69B7
:100D680001929A690192019A1A6842F480721A6093
:100D7800036D01330365C6E7438D9BB2012B1AD07F
:100D8800438D9BB2022B6BD00268136843F48063D7
:100D9800136003685A6812F4006F03D05A6842F46B
:100DA80080525A600023089303685A6908929B6925
:100DB8000893089BC5E711F5803F16D004293DD05C
:100DC80008293BD0122C39D0C36A022B30D00268D4
:100DD800136823F4806313600023059303685A693A
:100DE80005929B690593059BABE70268136823F49A
:100DF8008063136003685A6812F4006F0CD01A6895
:100E080022F480621A600023039303685A690392EC
:100E18009B690393039B94E7002204925A69049206
:100E28009A690492049A1A6842F400721A6088E770
:100E38000268136843F480631360CDE7026813689F
:100E480023F4806313600023069303685A690692AB
:100E58009A690692069A1A6842F400721A6070E754
:100E6800C36A022B1BD00268136823F480631360E3
:100E78000268136843F40063136003685A6812F445
:100E8800006F03D05A6842F480525A6000230793D7
:100E980003685A6907929B690793079B51E70268A1
:100EA800136843F480631360E7E7438D9BB24BB14B
:100EB800436A5A1C426202681B781361438D013BE6
:100EC8009BB2438500207047438D9BB24BB10368AA
:100ED8001A69436A591C41621A70438D013B9BB2DF
:100EE80043850020704703685A6912F4806F0DD05B
:100EF8006FF480625A610423036400230363202291
:100F080080F83D2080F83C30012070470020704771
:100F1800F8B506460C4617461D461EE02DB1FFF7EC
:100F280019FB069BC01AA84217D900233363202255
:100F380086F83D2086F83E3086F83C3003201AE0DB
:100F480033685B6924EA03039BB2B3FA83F35B0952
:100F58009F420FD1B5F1FF3FE0D1C4F30743012B06
:100F6800EED033689B6924EA03039BB2B3FA83F398
:100F78005B09EDE70020F8BDF8B504460D461646B6
:100F88001F4632E01A6842F400721A6023686FF450
:100F980080625A610423236400232363202284F897
:100FA8003D2084F83C3001202DE026B1FFF7D2FA2D
:100FB800C01BB04219D900232363202284F83D20A6
:100FC80084F83C3003201EE023685B6925EA0303AC
:100FD8009BB2003318BF0123A3B123685A6912F4E6
:100FE800806FCFD1B6F1FF3FDFD1C5F30743012BA7
:100FF800EAD023689B6925EA03039BB2003318BF34
:101008000123E9E70020F8BDF0B583B004460D469A
:1010180016461F46C36A042B0DD0012B0BD013F5BF
:10102800803F08D0036B122B0AD10268136843F47F
:101038008073136004E02268136843F480731360BC
:101048000097334600224FF001112046FFF760FF5A
:1010580058BB2369B3F5804F10D1236805F0FE050E
:101068001D613B46324615492046FFF785FF03467A
:10107800E0B1236C042B1ED1012317E0EB11226889
:1010880003F0060343F0F00313613B4632460C4974
:101098002046FFF771FF20B1236C042B09D10123EF
:1010A80004E02368EDB21D61DBE70323184603B0B3
:1010B800F0BD0323FAE70323F8E700BF02000100AD
:1010C800080001002DE9F04184B004460D4616469B
:1010D8001F46C26A01680B6843F480630B60042AE8
:1010E8000DD0012A0BD012F5803F08D0036B112BCD
:1010F8000AD10268136843F48073136004E022681D
:10110800136843F4807313600097334600224FF04E
:1011180001112046FFF7FCFE002852D12369B3F5E0
:10112800804F12D1236845F00105EDB21D613B46A1
:1011380032462A492046FFF71FFF0346002841D0C0
:10114800236C042B48D101233CE04FEAE51808F052
:101158000608236848F0F0021A613B4632462049E7
:101168002046FFF709FF20B1236C042B2ED1012361
:1011780028E02368EDB21D613B46324617492046F8
:10118800FFF7FAFE20B1236C042B21D1012319E0CB
:10119800002203922368596903919969039103997D
:1011A800196841F480711960009733464FF00111B6
:1011B8002046FFF7ADFE68B9226848F0F1031361D5
:1011C800B5E70323184604B0BDE8F0810323F9E727
:1011D8000323F7E70323F5E70323F3E702000100FE
:1011E8000800010070B504460D46164623685B6981
:1011F80013F0800F19D12046FFF775FEB8B9B5F185
:10120800FF3FF3D025B1FFF7A5F9801BA842EDD920
:10121800236C43F02003236400232363202284F8F3
:101228003D2084F83C30032000E0002070BD012000
:10123800FCE770B504460D46164623685B6913F053
:10124800040F19D12046FFF74EFEB8B9B5F1FF3F9C
:10125800F3D025B1FFF77EF9801BA842EDD9236CA6
:1012680043F02003236400232363202284F83D20D5
:1012780084F83C30032000E0002070BD0120FCE72A
:1012880070B505460C4616462B685A6912F0400F91
:1012980022D15A6912F0100F11D124B1FFF75AF96F
:1012A800801BA042F0D92B6C43F020032B64202331
:1012B80085F83D30002385F83C30032070BD6FF081
:1012C80010025A6100232B642B63202285F83D20ED
:1012D80085F83C300120F1E70020EFE7002800F016
:1012E800828010B5044690F83D30002B41D024236D
:1012F80084F83D302268136823F00103136001F07D
:1013080025FE3A4BA3FB00239B0C226853606168BF
:10131800374A914232D80133226813626368344AEB
:10132800934235D85B00B0FBF3F0C0F30B03032BFB
:1013380000D804202368D861E369216A22680B4336
:1013480013602369E16822680B4393606369A169AC
:1013580022680B43D3602268136843F001031360CB
:1013680000202064202384F83D30206384F83E0068
:1013780010BD80F83C3003F023FEB8E74FF49672B6
:1013880002FB03F31B4AA2FB03239B090133C3E7B8
:10139800A16889B903EB4302B0FBF2F2C2F30B0276
:1013A800B2FA82F25209E2B991B903EB4303B0FBF6
:1013B800F3F040F40040BDE703EB830202EB820246
:1013C800B0FBF2F2C2F30B02B2FA82F25209EAE778
:1013D80003EB830303EB8303B0FBF3F040F44040DB
:1013E800A8E70120A6E70120704700BF83DE1B4362
:1013F800A0860100D34D62102DE9F04184B0044667
:101408000E4690461F46FFF7A5F894F83D30DBB22C
:10141800202B04D00226304604B0BDE8F0810546F2
:1014280000901923012254492046FFF771FD002836
:1014380040F0998094F83C30012B00F0968001230D
:1014480084F83C3023681A6812F0010F03D11A6837
:1014580042F001021A602268136823F400631360E3
:10146800212384F83D30102384F83E300023236480
:10147800C4F824806785A3F58033E362638D2385F0
:101488002B460A9A31462046FFF7BEFD064660B154
:10149800236C042B04D1002384F83C300126BAE7DE
:1014A800002384F83C300326B5E700230393236820
:1014B8005A6903929B690393039B10E0236C042BE6
:1014C80055D12268136843F4007313600126A2E71C
:1014D8002A460A992046FFF7ACFE00282BD1238D17
:1014E800002B32D02A460A992046FFF77BFE0028B7
:1014F800E4D1636A5A1C626222681B781361638DA7
:10150800013B9BB26385238D013B9BB223852268F7
:10151800516911F0040FDBD0002BD9D0636A591C34
:1015280061621B781361638D013B9BB26385238DD8
:10153800013B2385CCE7236C042B1AD1226813685E
:1015480043F400731360012665E72268136843F4C7
:1015580000731360202384F83D30002384F83E3064
:1015680084F83C3057E7022655E7022653E703265E
:1015780051E703264FE700BF020010002DE9F041B4
:1015880086B004460E4690461F46FEF7E3FF94F8E1
:101598003D30DBB2202B04D00226304606B0BDE831
:1015A800F08105460090192301228C492046FFF757
:1015B800AFFC002840F04B8194F83C30012B00F040
:1015C8004881012384F83C3023681A6812F0010F1F
:1015D80003D11A6842F001021A602268136823F4E2
:1015E80000631360222384F83D30102384F83E30D2
:1015F80000232364C4F824806785A3F58033E3625D
:10160800638D23852B460C9A31462046FFF75AFDF9
:10161800064660B1236C042B04D1002384F83C30C7
:101628000126BAE7002384F83C300326B5E7238D6A
:101638005BB9029323685A6902929A690292029AE4
:101648001A6842F400721A607AE0012B0FD0022B5C
:101658001FD02268136843F4806313600023059346
:1016680023685A6905929B690593059B68E022687F
:10167800136823F4806313600023039323685A6973
:1016880003929A690392039A1A6842F400721A60E4
:1016980056E02268136823F4806313602268136895
:1016A80043F4006313600023049323685A69049287
:1016B8009B690493049B43E02A460C992046FFF754
:1016C800DFFD68B923681A69636A591C61621A7078
:1016D800238D013B2385638D013B9BB263852FE0FE
:1016E800236C202B01D0012657E7032655E70095E8
:1016F8000C9B00223A492046FFF70AFC002840F0DC
:10170800AA802268136843F40073136023681A6977
:10171800636A591C61621A70238D013B2385638DAE
:10172800013B9BB2638523681A69636A591C61622D
:101738001A70238D013B2385638D013B9BB2638522
:10174800238D002B7AD0032B4CD8012BB4D0022B3D
:10175800CDD000950C9B002221492046FFF7D8FBED
:1017680000287AD12268136823F480631360236801
:101778001A69636A591C61621A70238D013B2385BB
:10178800638D013B9BB2638500950C9B0022144935
:101798002046FFF7BDFB002861D12268136843F497
:1017A8000073136023681A69636A591C61621A70AE
:1017B800238D013B2385638D013B9BB263852368A1
:1017C8001A69636A591C61621A70238D013B23856B
:1017D800638D013B9BB26385B2E700BF0200100036
:1017E800040001002A460C992046FFF749FDF0B98C
:1017F80023681A69636A591C61621A70238D013B58
:101808002385638D013B9BB2638523685A6912F077
:10181800040F95D01A69636A591C61621A70238D86
:10182800013B2385638D013B9BB2638588E7236C6D
:10183800202B01D00126B0E60326AEE6202384F84B
:101848003D30002384F83E3084F83C30A5E602267B
:10185800A3E60226A1E603269FE603269DE60326C5
:101868009BE600BF70477047704708B590F83D3059
:10187800DAB2438D9BB273B1436A591C4162016865
:101888001B780B61438D013B9BB24385438D9BB213
:101898000BB9292A01D0002008BD0268536823F437
:1018A8008063536021230363282380F83D30FFF7CA
:1018B800DBFFF0E7704790F83D30DAB2438D9BB21A
:1018C800F3B110B503681969436A5C1C4462197066
:1018D800438D013B9BB24385438D9BB20BB92A2AAA
:1018E80001D0002010BD0268536823F48063536060
:1018F80022230363282380F83D30FFF7DBFFF0E75E
:1019080000207047704708B503689A6912F0040F01
:1019180009D000219B6913F0800F06D0028BFFF7D6
:10192800F1FF002008BD0121F4E78289F7E770473D
:1019380008B590F83D30DBB2C26A042A01D0082A03
:1019480001D1282B07D0212B1FD003686FF48062A8
:101958005A61002008BD1A4BC3620268536823F419
:10196800E063536003686FF480625A610268136829
:1019780023F48063136000230363202280F83D2052
:1019880080F83E30FFF7D3FFE3E70D4BC362212316
:101998000363202380F83D30002380F83E3002683E
:1019A800536823F4E063536003686FF480625A61FC
:1019B8000268136823F480631360FFF755FFC8E7D4
:1019C8000000FFFF704710B590F83D30DBB290F88B
:1019D8003E20D2B2C46A018D09B9212B05D0212B32
:1019E8003CD0402A38D0002010BD042C04D0082C4C
:1019F80002D014F5803F19D10268536823F4E063DC
:101A080053600268136843F4007313600023036390
:101A1800202380F83D3090F83E30DBB2402B15D0C3
:101A2800002380F83E30FFF71DFFDCE702685368AB
:101A380023F4E063536011230363002380F83E30EE
:101A4800202380F83D30FFF70DFFCCE7002380F816
:101A58003E30FFF7B7FFC6E7222BC4D1438D9BB2B8
:101A68007BB190F83E30DBB2402B10D0436A5A1C51
:101A7800426202681B781361438D013B9BB2438528
:101A8800B1E70268536823F480635360ABE7036DE2
:101A98009BB9C36C012B08D0836CC3F3072302687E
:101AA8001361036D013303659DE7836C0268DBB244
:101AB8001361036D0233036595E7036D012B17D09E
:101AC800036D022B8FD190F83D30DBB2222B17D05B
:101AD80090F83D30DBB2212B85D1436A5A1C426213
:101AE80002681B781361438D013B9BB243857AE7FB
:101AF800836C0268DBB21361036D0133036572E71F
:101B08000268136843F4807313606CE708B5C26A0F
:101B180090F83D30DBB2212B01D0002008BD438D69
:101B28009BB203BB042A04D0082A02D012F5803FD6
:101B380024D10268536823F4E06353600268136891
:101B480043F40073136000230363202380F83D30BF
:101B580090F83E30DBB2402B20D0002380F83E3096
:101B6800FFF780FED9E7436A5A1C426202681B7875
:101B78001361438D013B9BB24385CEE702685368EE
:101B880023F4E063536011230363002380F83E309D
:101B9800202380F83D30FFF765FEBEE7002380F87C
:101BA8003E30FFF70FFFB8E7704708B590F83D30B3
:101BB800DBB2222B01D0002008BD438D9BB2032B42
:101BC80013D903681A69436A591C41621A70438D14
:101BD800013B9BB24385438D9BB2032BEBD102683B
:101BE800536823F480635360E5E7012BE3D8026868
:101BF800136823F4806313600268536823F4E06376
:101C0800536003681A69436A591C41621A70438D0C
:101C1800013B9BB24385202380F83D3000230363BA
:101C280090F83E30DBB2402B05D0002380F83E30E0
:101C3800FFF719FEBFE7002380F83E30FFF7B4FF37
:101C4800B9E708B5C26A438D9BB2042B13D0438D04
:101C58009BB2032B1FD0438D9BB2022B30D003685D
:101C68001A69436A591C41621A70438D013B9BB241
:101C78004385002008BD0268536823F480635360DD
:101C880003681A69436A591C41621A70438D013B03
:101C98009BB24385EDE70268536823F48063536081
:101CA8000268136823F48063136003681A69436A3F
:101CB800591C41621A70438D013B9BB24385D8E79A
:101CC800013A012A2DD90268136843F4007313609E
:101CD80003681A69436A591C41621A70438D013BB3
:101CE8009BB2438503681A69436A591C41621A709A
:101CF800438D013B9BB243850268536823F44073CC
:101D08005360202380F83D300023036390F83E3071
:101D1800DBB2402B10D0002380F83E30FFF7A3FD44
:101D2800A7E70268136823F48063136002681368E6
:101D380043F480731360CBE7002380F83E30FFF74D
:101D480033FF96E77047704710B5044690F83D306A
:101D5800293B012B37D990F83D30DBB2602B07D0F7
:101D680003685B6813F4006F02D1202380F83D30CC
:101D78000023236384F83E302268136823F4006349
:101D8800136023685A6812F4006F3FD05A6822F42F
:101D980000625A60626B92F83530DBB2012B18D0C2
:101DA8003A4B1365606BFEF75FFD00283FD0226851
:101DB800136823F001031360202384F83D30606B1F
:101DC800036D984733E000230363282380F83D30F0
:101DD800D2E7A36B2D4A1A65A06BFEF745FD30B319
:101DE80023685A6912F0400F04D01A69636A591CB3
:101DF80061621A702268136823F0010313602023BC
:101E080084F83D30A06B036D984710E094F83D20AE
:101E1800D2B2602A11D05A6912F0400F04D01A6960
:101E2800636A591C61621A702046FFF78BFF94F8A9
:101E38003D30DBB2282B17D010BD202284F83D207E
:101E4800002222645A6912F0400F04D01A69636AAA
:101E5800591C61621A702268136823F00103136029
:101E68002046FFF770FFE2E7236C13F0040FE3D07E
:101E7800074BE36200232363202284F83D2084F883
:101E88003E302046FFF753FDD6E700BFD9210008B2
:101E98000000FFFF10B582B090F83D30DBB201685A
:101EA8004A6822F4E0624A6000220192026851699D
:101EB8000191116841F001011160019A01680A68F5
:101EC80022F480620A6001684A6812F4006F14D034
:101ED80090F83D20D2B2222A0AD090F83D20D2B202
:101EE8002A2A05D0426B1268526892B2428504E0F1
:101EF800826B1268526892B24285428D92B2F2B1F8
:101F08004A6912F0040F08D00969426A541C4462F5
:101F18001170428D013A92B242850268516911F0FE
:101F2800400F08D01169426A541C44621170428DF6
:101F3800013A92B24285026C42F004020264026CD9
:101F4800A2B9282B15D02A2B13D0292B11D0026B1C
:101F5800222A01D0222B17D100230363202280F8E4
:101F68003D2080F83E30FFF7A5FC0DE0FFF7ECFEC2
:101F78000AE0074BC36200230363202280F83D2058
:101F880080F83E30FFF7D3FC002002B010BD00BF40
:101F98000000FFFFF8B5054603689F695C695E6845
:101FA80090F83E30DBB2102B25D0402B23D04C4B81
:101FB800234013B116F4007F6ED14A4B234013B16E
:101FC80016F4007F6BD1484B3B40002B6FD0474B3A
:101FD800234033B116F4806F03D0454B2340002BC8
:101FE80061D0434B234053B316F4007F27D02846D3
:101FF800FEF75BFF23E014F0011F02D016F4007F08
:102008001ED13C4B234013B116F4007F1CD1344B36
:10201800234013B116F4007F1AD1334B3B401BB356
:10202800324B23402BB116F4806F02D0304B234043
:1020380093B12F4B234013B116F4007F10D1F8BD94
:102048002846FEF701FEE8E72846FEF742FEE4E7E9
:102058002846FEF744FEE0E72846FFF7B4FCEEE723
:102068002846FFF753FDEAE7234B23402BB116F42C
:10207800806F02D01E4B234053B11D4B2340002BD1
:10208800DDD016F4007FDAD02846FFF7DAFDD6E770
:102098002846FFF78AFDD2E7FFF735FCCFE7284649
:1020A800FFF7F8FECBE72846FFF7DFFBC7E7124B41
:1020B80023402BB116F4806F02D00D4B234053B14F
:1020C8000B4B2340002BBAD016F4007FB7D028461C
:1020D800FEF7FAFEB3E72846FFF7EDFBAFE700BFD0
:1020E800020001001000010004001000800001003F
:1020F80004000100080001004000010070B504461A
:1021080003685D695E68314A154209D016F4807F1C
:1021180006D0026C42F0010202646FF480725A61C8
:1021280015F4813F0AD016F4807F07D0236C43F062
:102138000203236423686FF400725A6115F4823F26
:102148001AD016F4807F17D094F83E30DBB2628D37
:1021580091B294F83D20D2B2206B202B1DD0236C75
:1021680043F00403236494F83E30DBB2102B22D0F2
:1021780023686FF480625A6115F4843F0AD016F41C
:10218800807F07D0236C43F00803236423686FF42F
:1021980000625A61236CA3B970BD0029DFD1212ADE
:1021A80005D0292A03D0282AD9D12128D7D12046D9
:1021B800FFF7BEFBE0E72268136843F4007313607F
:1021C800D6E72046FFF7C0FDE6E700BF00010100A3
:1021D80008B5806B0268136823F4806313600023DA
:1021E8004385426B1365826B136590F83D30DBB213
:1021F800602B0DD0202380F83D30002380F83E303E
:102208000268136823F001031360FFF79BFD08BD04
:10221800202380F83D30002380F83E3003640268B4
:10222800136823F001031360FFF78DFDEFE700004B
:1022380000294CD010B50C46002A4AD090F84130FD
:10224800DBB2012B47D141620368DB6903F0070366
:10225800032B04D0052B02D00285428503E05200EF
:1022680092B20285428590F84030DBB2012B34D01F
:1022780021460446012380F84030002343640323A9
:1022880080F84130836B164A1A64836B154ADA6307
:10229800836B154ADA640268038D0C32806BFEF793
:1022A800A9FA2368DA6912F4806F03D1DA6942F473
:1022B8008062DA6123685A6812F0020F03D15A6803
:1022C80042F002025A60002084F8400002E0012037
:1022D8007047012010BD0220FCE70220FAE700BF8A
:1022E800F72200083B2300080D260008704708B5B0
:1022F800806BFFF7FBFF08BD704708B5436A9A1C5F
:10230800426202681B88D360438D013B9BB24385C0
:10231800438D9BB203B108BD0268536823F0A00344
:102328001B041B0C5360012380F84130FFF7E4FFC6
:10233800F1E708B5836B0268126812F4807F09D14F
:1023480019684A6822F002024A6000225A8501226E
:1023580083F841201846FFF7CFFF08BD704708B53E
:102368000368DA68C36A991CC1621A80438E013B0C
:102378009BB24386438E9BB203B108BD0268536883
:1023880023F060031B041B0C5360012380F84130C9
:10239800FFF7E4FFF1E77047002800F0BB8070B555
:1023A8000446022580F841505B4B436302F052FE1D
:1023B8002268D36923F47B6323F00F03D361236876
:1023C8001D622368DD696369022B5BD0E368002B1B
:1023D8003ED02026A368202B00D87600012000F0EC
:1023E8006FFE2369B3F5007F34D0B0FBF6F000EB45
:1023F800800043006269B3FBF2F30533474AA2FB4E
:102408000323DB0803F001029B1AC3F34F031102F5
:102418009A1EFD2A38D822690A43216813430B62A1
:102428006268A168E068238B03439BB20B439BB2AD
:1024380013439BB243F400631D432368DD61236AA1
:10244800012B2AD000206064012384F8413070BD3C
:102458001026BFE7E36853B1B600B0FBF6F000EB17
:10246800800043006269B3FBF2F30533C6E7F60068
:10247800B0FBF6F000EB800043006269B3FBF2F3B7
:102488000533BBE70021C3E7636C43F010036364C3
:102498002046FFF780FF0120D9E7214B63632268BC
:1024A800204B9A421ED04FF04022D36923F47B631D
:1024B80023F00F03D36122681A4B9A4214D04FF0CD
:1024C800402302221A622268164B9A420FD04FF01C
:1024D8004022D0696168B1F5007F0AD0C1B94FF4D4
:1024E800807608E0104AE0E7A3F58063E9E70E4A42
:1024F800EFE74FF48076A168E568238B2B439BB206
:102508000B439BB2334343F400630343D36199E71E
:102518000026F0E70120704735250008CDCCCCCC4B
:1025280079270008003800400034004010B584B016
:10253800044602689368039390F84130DBB2042B99
:1025480006D094F84130DBB2032B2ED004B010BD76
:10255800039B13F0010F03D0536813F0400F21D1F0
:10256800039B13F0400FECD023685A6812F0200F39
:10257800E7D05A6822F060021204120C5A60002355
:1025880001932368DA6801929B680193019B0123F8
:1025980084F84130636C43F0020363642046FFF71C
:1025A800FAFECEE7FFF7DBFEDAE7039B13F0020F34
:1025B80004D023685B6813F0800F1FD1039B13F0CE
:1025C800080FC3D023685A6812F0200FBED05A688B
:1025D80022F0A0021204120C5A600023029323680E
:1025E8009B680293029B012384F84130636C43F09B
:1025F800040363642046FFF7CEFEA7E72046FFF7F3
:102608007CFEDBE708B5806B0268536823F00303A0
:102618005360002343854386012380F84130436C8F
:1026280043F008034364FFF7B6FE08BD7047000097
:1026380008B5E9B9436A9A1C426202681B88D360EC
:10264800438D013B9BB24385438D9BB24BB90268D6
:10265800536823F0A0031B041B0C5360438E9BB2EA
:1026680003B108BD012380F84130FFF7DFFFF8E729
:10267800436A9A1C42621A880168134B99421ED019
:102688004FF04023DA60438D013B9BB24385438D75
:102698009BB2002BE5D102680B4B9A4212D04FF047
:1026A8004022536823F0A0035360438E9BB2002B53
:1026B800D7D1012380F84130FFF7B8FFD1E7A3F560
:1026C8008063DFE7014AECE700380040003400404F
:1026D80008B5E9B90368DA68C36A991CC1621A8047
:1026E800438E013B9BB24386438E9BB24BB9026833
:1026F800536823F060031B041B0C5360438D9BB28B
:1027080003B108BD012380F84130FFF78FFFF8E7D8
:102718000268154B9A4222D04FF04023DA68C36A08
:10272800991CC1621A80438E013B9BB24386438E3B
:102738009BB2002BE5D102680B4B9A4212D04FF0A6
:102748004022536823F060035360438D9BB2002BF3
:10275800D7D1012380F84130FFF768FFD1E7A3F50F
:102768008063DBE7014AECE70038004000340040B2
:1027780010B584B0044603689A6803927C4A934271
:102788005DD04FF040218A680292DA6902F4407203
:10279800B2F5007F04D0DA6912F4407F40F08180FE
:1027A800039A12F0020F03D05B6813F0800F48D130
:1027B800029B13F0010F09D022686D4B9A4245D055
:1027C8004FF040235B6813F0400F42D1029B13F097
:1027D800400F09D02268664B9A423FD04FF0402301
:1027E8005A6812F0200F3CD1039B13F0080F24D035
:1027F80023685A6812F0200F1FD05A6822F0A002EE
:102808001204120C5A602268594B9A4247D04FF072
:102818004022536823F06003536000230193236828
:102828009B680193019B012384F84130636C43F05A
:10283800040363642046FFF7AEFD04B010BD4D49A4
:10284800A1E700212046FFF7F3FEB1E7A3F5806377
:10285800B8E701212046FFF73BFFB7E7A3F5806300
:10286800BEE75A6822F060025A602268536823F073
:10287800A0031B041B0C5360002300932368DA6831
:1028880000929B680093009B012384F84130636C9D
:1028980043F0020363642046FFF77DFDA4E7354A51
:1028A800B7E7029B13F0020F03D04B6813F0800FB9
:1028B8004FD1039B13F0010F04D023685B6813F01A
:1028C800400F4BD1039B13F0400F1ED023685A686A
:1028D80012F0200F19D05A6822F060021204120C6C
:1028E8005A602268224B9A423DD04FF040225368EA
:1028F80023F0A0035360012384F84130636C43F054
:10290800020363642046FFF746FD029B13F0080F9D
:1029180093D02268164B9A4227D04FF040235A682A
:1029280012F0200F89D05A6822F0A0025A6022685B
:10293800536823F060031B041B0C5360012384F8C5
:102948004130636C43F0040363642046FFF723FDC2
:1029580073E701212046FFF76BFEAAE70021204616
:10296800FFF7B6FEAEE7034AC1E7A3F58063D6E7F3
:102978000038004000340040002800F0BB8170B5EA
:1029880082B00446036813F0010F3BD0A74B9B6845
:1029980003F00C03042B2CD0A44B9B6803F00C030E
:1029A800082B21D06368B3F5803F4FD0B3F5A02F33
:1029B80052D09E4B1A6822F480321A601A6822F4A8
:1029C80080221A606368002B50D0FDF7C3FD0546CE
:1029D800964B1B6813F4003F14D1FDF7BBFD401B59
:1029E8006428F5D903208AE1904B5B6813F4800FC3
:1029F800D8D08E4B1B6813F4003F03D06368002BBC
:102A080000F07A81236813F0020F55D0874B9B683A
:102A180013F00C0F3ED0854B9B6803F00C03082B7A
:102A280033D0E368002B68D0814B01221A60FDF790
:102A380091FD05467D4B1B6813F0020F54D1FDF73D
:102A480089FD401B0228F5D9032058E1774A13680D
:102A580043F480331360B5E7744B1A6842F480225C
:102A68001A601A6842F480321A60ABE7FDF772FD0B
:102A780005466E4B1B6813F4003FC3D0FDF76AFD93
:102A8800401B6428F5D9032039E1684B5B6813F4CF
:102A9800800FC6D1654B1B6813F0020F04D0E368A2
:102AA800012B01D001202AE1604A136823F0F803C2
:102AB800216943EAC1031360236813F0080F40D06B
:102AC800636963B35B4B01221A60FDF743FD05465A
:102AD800564B5B6F13F0020F33D1FDF73BFD401BE4
:102AE8000228F5D903200AE1504A136823F0F803B5
:102AF800216943EAC1031360DEE74D4B00221A60E7
:102B0800FDF728FD0546494B1B6813F0020FD3D08B
:102B1800FDF720FD401B0228F5D90320EFE0454BC7
:102B280000221A60FDF716FD0546404B5B6F13F057
:102B3800020F06D0FDF70EFD401B0228F5D9032031
:102B4800DDE0236813F0040F79D0384B1B6C13F0C9
:102B5800805F33D100230193344B1A6C42F08052CA
:102B68001A641B6C03F080530193019B0125324BBF
:102B78001B6813F4807F23D0A368012B34D0052B66
:102B880038D02A4B1A6F22F001021A671A6F22F006
:102B980004021A67A368002B36D0FDF7DBFC064653
:102BA800224B1B6F13F0020F48D1FDF7D3FC801B9B
:102BB80041F288339842F3D90320A0E00025D6E7F4
:102BC8001D4A136843F480731360FDF7C3FC06467F
:102BD800194B1B6813F4807FCED1FDF7BBFC801B1B
:102BE8000228F5D903208AE0104A136F43F0010345
:102BF8001367CFE70D4B1A6F42F004021A671A6F7A
:102C080042F001021A67C5E7FDF7A4FC0646074B28
:102C18001B6F13F0020F11D0FDF79CFC801B41F2D3
:102C280088339842F3D9032069E000BF0038024096
:102C380000004742800E474200700040E5B9A36992
:102C4800002B5BD0304A926802F00C02082A58D058
:102C5800022B17D02D4B00221A60FDF77BFC04468F
:102C6800294B1B6813F0007F42D0FDF773FC001B53
:102C78000228F5D9032042E0234A136C23F080533D
:102C88001364DCE7214B00221A60FDF763FC05465C
:102C98001D4B1B6813F0007F06D0FDF75BFC401B43
:102CA8000228F5D903202AE0E369226A1343626AFD
:102CB80043EA8213A26A5208013A43EA0243E26AEB
:102CC80043EA0263104A5360104B01221A60FDF771
:102CD80041FC04460C4B1B6813F0007F06D1FDF73E
:102CE80039FC001B0228F5D9032008E0002006E083
:102CF800002004E001207047012000E0002002B01D
:102D080070BD0120FBE700BF003802406000474269
:102D1800324B9B6803F00C03042B5CD0082B01D0CA
:102D28002F4870472DE9F04B2C4B5A6802F03F02B0
:102D38005B6813F4800F2BD0284B5B68C3F38813B0
:102D48001E4600275C010025E41A65EB0705A9016A
:102D580041EA9461A001001B61EB0501CB0043EA45
:102D68005073C400A01943EB07014B0243EAD05348
:102D78004402204619460023FDF722FA174B5B68E8
:102D8800C3F3014301335B00B0FBF3F0BDE8F08B04
:102D9800124B5B68C3F388131E4600275C010025AD
:102DA800E41A65EB0705A90141EA9461A001001B3B
:102DB80061EB0501CB0043EA5073C400A01943EB53
:102DC80007018B0243EA90538402204619460023E8
:102DD800FDF7F6F9D2E70348704700BF0038024014
:102DE8000024F40000127A00002800F09D8070B5DD
:102DF80004464F4B1B6803F00F038B4209D2CBB23A
:102E08004B4A1370136803F00F038B4201D0012063
:102E180070BD236813F0020F17D013F0040F04D00D
:102E2800444A936843F4E0539360236813F0080F0F
:102E380004D0404A936843F4604393603D4A9368E2
:102E480023F0F003A068034393600D46236813F052
:102E5800010F32D06368012B21D09A1E012A25D98F
:102E6800344A126812F0020F60D032498A6822F0A0
:102E7800030213438B60FDF76DFB06462D4B9B68E1
:102E880003F00C036268B3EB820F16D0FDF762FB08
:102E9800801B41F288339842F0D90320B8E7254ACD
:102EA800126812F4003FE0D10120B1E7214A12680C
:102EB80012F0007FD9D10120AAE71D4B1B6803F04F
:102EC8000F03AB4209D9EAB2194B1A701B6803F019
:102ED8000F03AB4201D001209AE7236813F0040FD7
:102EE80006D0144A936823F4E053E1680B439360D7
:102EF800236813F0080F07D00E4A936823F4604341
:102F0800216943EAC1039360FFF702FF094B9B68FD
:102F1800C3F30313084AD35CD840084B1860002059
:102F2800FDF7CEFA002073E70120704701206FE714
:102F3800003C0240003802403860000810000020C1
:102F4800014B1868704700BF1000002008B5FFF754
:102F5800F7FF044B9B68C3F38223034AD35CD84032
:102F680008BD00BF003802404860000830B583B093
:102F78000446036813F0050F06D1236813F0020F07
:102F88002ED1002003B030BD494B00221A60FDF756
:102F9800E1FA0546474B1B6813F0006F06D0FDF7B2
:102FA800D9FA401B0228F5D90320EBE76268A36829
:102FB8001B0743EA82133F4AC2F884303C4B012284
:102FC8001A60FDF7C7FA05463A4B1B6813F0006F05
:102FD800D3D1FDF7BFFA401B0228F5D90320D1E76A
:102FE80000230193334B1A6C42F080521A641B6C15
:102FF80003F080530193019B2F4A136843F48073B5
:103008001360FDF7A7FA05462B4B1B6813F4807F66
:1030180006D1FDF79FFA401B0228F5D90320B1E736
:10302800244B1B6F13F4407312D0E26802F4407211
:103038009A420DD01F4B1A6F22F440721F4901208B
:103048000860002008601A671B6F13F0010F13D186
:10305800E36803F44072B2F5407F1ED0154A9368C6
:1030680023F4F813936013490B6FE268C2F30B0261
:1030780013430B67002085E7FDF76CFA05460D4BF7
:103088001B6F13F0020FE3D1FDF764FA401B41F206
:1030980088339842F3D9032074E706498A6822F4F2
:1030A800F81223F0704323F4407313438B60DAE77C
:1030B800680047420038024000700040400E474216
:1030C80001282AD1174B9B6813F4000303D0012B66
:1030D80025D115487047134B5B6813F4800F14D043
:1030E800104B5B6803F03F031048B0FBF3F00D4A48
:1030F800D2F88430C3F3881300FB03F0D2F884308D
:10310800C3F30273B0FBF3F07047064B5B6803F040
:103118003F030748B0FBF3F0E9E7002070470020C1
:10312800704700BF003802400080BB0000127A00E0
:103138000024F400F8B505460F4616461C463BE049
:103148002CB1FDF707FA069BC01AA04234D32A68AF
:10315800536823F0E00353606B68B3F5827F0BD0AC
:10316800AB6AB3F5005F14D0012385F85130002312
:1031780085F85030032027E0AB68B3F5004F02D044
:10318800B3F5806FECD12A68136823F0400313600D
:10319800E6E72A68136823F400531B041B0C13602A
:1031A8002A68136843F400531360DDE70123B34230
:1031B80009D0B4F1FF3FC3D12B689B6837EA0303FA
:1031C800F4D00023F3E70020F8BD10B582B0044620
:1031D80000920B4600228021FFF7ACFF034610B98E
:1031E800184602B010BD636D43F0200363650323E6
:1031F800F6E700283BD010B504460023836290F818
:103208005130002B2ED0022384F8513022681368E5
:1032180023F0400313606368A2681343E268134312
:103228002269134362691343A26902F400721343CB
:10323800E2691343226A1343A16A22680B431360AD
:10324800638B03F00403616A22680B4353602268AE
:10325800D36923F40063D36100206065012384F8F7
:10326800513010BD80F8503001F068FFCBE70120E5
:1032780070472DE9F04184B01E4690F85030012B7C
:1032880000F0C88004460D469046012380F850306F
:10329800FDF760F9074694F85130DBB2012B0AD0EC
:1032A8000223012284F85120002284F85020184675
:1032B80004B0BDE8F081002D00F0A480B8F1000F43
:1032C80000F0A280032384F851300023636525634E
:1032D800A4F83480A4F83680A363A387E3876364E3
:1032E8002364A368B3F5004F1BD023681A6812F053
:1032F800400F03D11A6842F040021A60E368B3F540
:10330800006F14D063681BB1E38E9BB2012B3ED1D2
:10331800236815F8012B1A73E38E013B9BB2E386F1
:1033280035E02268136843F480431360DDE763687F
:103338001BB1E38E9BB2012B0DD1236835F8022B0C
:10334800DA60E38E013B9BB2E38604E0002E5DD099
:10335800B6F1FF3F0FD1E38E9BB27BB323689A6827
:1033680012F0020FF2D035F8022BDA60E38E013B3F
:103378009BB2E386EFE7FDF7EDF8C01BB042EAD356
:1033880003238EE7002E43D0B6F1FF3F0FD1E38E23
:103398009BB29BB123689A6812F0020FF2D015F81D
:1033A800012B1A73E38E013B9BB2E386EFE7FDF72F
:1033B800D1F8C01BB042EAD3032372E70097334623
:1033C800012202212046FFF7B5FE08B1032368E772
:1033D8003A4631462046FFF7F8FE034618B1202347
:1033E800636501235DE7A26832B903922268D16858
:1033F800039192680392039A626D002A3FF451AFD9
:1034080001234EE701234CE701234AE7032348E75A
:10341800032346E702234AE72DE9F04385B099469E
:103428000C9D90F85030012B00F0108104460F4697
:103438001646012380F85030FDF78CF8804694F842
:103448005130DBB26268012B15D0B2F5827F0AD009
:103458000223012284F85120002284F850201846C3
:1034680005B0BDE8F083A268002A40F0E780042B8D
:1034780001D00223EDE7002F00F0E280002E00F0DB
:10348800E180B9F1000F00F0DF8094F85130DBB231
:10349800012B2BD000236365A663A4F83E90A4F803
:1034A8003C902763A4F83690A4F8349023646364AE
:1034B80023681A6812F0400F03D11A6842F04002DC
:1034C8001A60E368B3F5006F14D063681BB1E38E2C
:1034D8009BB2012B07D1236817F8012B1A73E38ECF
:1034E800013B9BB2E3864FF0010961E0052384F8B4
:1034F8005130CFE763681BB1E38E9BB2012B07D134
:10350800236837F8022BDA60E38E013B9BB2E3862F
:103518004FF0010913E0E38F9BB26BB123689A68FF
:1035280012F0010F08D0DB6826F8023BE38F013B5D
:103538009BB2E3874FF00109B5F1FF3F1CD1E38E41
:103548009BB21BB9E38F9BB2002B55D0B9F1000F8A
:10355800E1D0E38E9BB2002BDDD023689A6812F08D
:10356800020FD8D037F8022BDA60E38E013B9BB20A
:10357800E3864FF00009CEE7FCF7ECFFA0EB08006C
:10358800A842DCD3032364E7E38F9BB26BB12368C3
:103598009A6812F0010F08D0DB683370E38F013BA3
:1035A8009BB2E38701364FF00109B5F1FF3F1BD10C
:1035B800E38E9BB213B9E38F9BB2EBB1B9F1000F65
:1035C800E2D0E38E9BB2002BDED023689A6812F01B
:1035D800020FD9D03A781A73E38E013B9BB2E38687
:1035E80001374FF00009CFE7FCF7B4FFA0EB080064
:1035F800A842DDD303232CE7CDF800802B46012217
:1036080002212046FFF796FD08B1032321E7424631
:1036180029462046FFF7D9FD034618B120236365E4
:10362800012316E7A268002A7FF413AF03922268E9
:10363800D168039192680392039A0AE7022308E784
:10364800012306E7012304E7012302E7022306E733
:1036580090F85100704710B4036A046A24F001041A
:103668000462846924F0F00444EA021223F00A0395
:103678000B43826103625DF8044B704710B4036A20
:1036880023F0100303628469036A24F4704444EA53
:10369800023223F0A00343EA0113826103625DF85A
:1036A800044B7047836823F0700341F00701194306
:1036B8008160704710B4846824F47F4442EA03238D
:1036C8000B43234383605DF8044B70470268D3685B
:1036D80043F00103D3600268136843F001031360E9
:1036E8000020704790F83830012B7DD010B5044683
:1036F800012380F83830022380F839300268936853
:1037080023F47F4323F0770393600B68402B57D053
:1037180010D9702B3ED01FD8502B47D0602B32D1F8
:10372800CA6849680068FFF7A9FF60212068FFF7A9
:10373800B9FF28E0102B4DD008D9202B4FD0302BC3
:1037480021D130210068FFF7ADFF1CE0DBB9002173
:103758000068FFF7A7FF16E0B3F5805F0ED0B3F55A
:10376800005F10D1CB684A6889680068FFF7A2FF3C
:103778002268936843F48043936004E00268936886
:1037880023F007039360012384F83930002084F87C
:10379800380010BDCB684A6889680068FFF78AFF5F
:1037A8002268936843F077039360ECE7CA68496836
:1037B8000068FFF750FF50212068FFF773FFE2E72A
:1037C800CA6849680068FFF746FF40212068FFF78C
:1037D80069FFD8E710210068FFF764FFD3E72021CD
:1037E8000068FFF75FFFCEE7022070477047704719
:1037F8007047704710B5044603681A6912F0020F43
:1038080011D0DA6812F0020F0DD06FF002021A61BF
:103818000123037603689B6913F0030F70D0FFF749
:10382800E6FF0023237623681A6912F0040F12D0EA
:10383800DA6812F0040F0ED06FF004021A61022346
:10384800237623689B6913F4407F5FD02046FFF7F7
:10385800CEFF0023237623681A6912F0080F12D0CE
:10386800DA6812F0080F0ED06FF008021A6104230C
:1038780023762368DB6913F0030F4ED02046FFF749
:10388800B6FF0023237623681A6912F0100F12D0AE
:10389800DA6812F0100F0ED06FF010021A610823C8
:1038A80023762368DB6913F4407F3DD02046FFF779
:1038B8009EFF0023237623681A6912F0010F03D0B4
:1038C800DA6812F0010F36D123681A6912F0800FF6
:1038D80003D0DA6812F0800F34D123681A6912F025
:1038E800400F03D0DA6812F0400F32D123681A690A
:1038F80012F0200F03D0DA6812F0200F30D110BD7B
:10390800FFF774FF2046FFF773FF8AE72046FFF7AB
:103918006DFF2046FFF76CFF9BE72046FFF766FF29
:103928002046FFF765FFACE72046FFF75FFF20461C
:10393800FFF75EFFBDE76FF001021A61204600F055
:1039480031FDC1E76FF080021A61204600F0B3F83C
:10395800C3E76FF040021A612046FFF74AFFC5E748
:103968006FF020021A61204600F0A4F8C7E70000B3
:1039780003682E4A904212D0B0F1804F0FD0A2F5C2
:103988007C4290420BD002F58062904207D002F54B
:103998008062904203D002F57842904203D123F02E
:1039A80070034A681343214A90422AD0B0F1804FED
:1039B80027D0A2F57C42904223D002F58062904243
:1039C8001FD002F5806290421BD002F578429042E7
:1039D80017D002F57052904213D002F580629042DF
:1039E8000FD002F5806290420BD0A2F59832904237
:1039F80007D002F58062904203D002F580629042BF
:103A080003D123F44073CA68134303608B68C3620D
:103A18000B688362054B984203D003F58063984294
:103A280001D10B6903630123436170470000014022
:103A3800A8B110B5044690F839305BB1022384F878
:103A48003930211D2068FFF793FF012384F83930AE
:103A5800002010BD80F8383001F0A8FBEEE7012007
:103A6800704790F83830012B22D030B4012280F80A
:103A78003820022380F839300468636823F0700323
:103A88006360046863680D682B4363600468A36817
:103A980023F08003A3600468A36849680B43A3600C
:103AA80080F83920002380F83830184630BC704739
:103AB800022070477047704710B582B0064C2070DE
:103AC8000B78637064230093022322469421201DFF
:103AD800FDF792FC02B010BD3000002070B582B036
:103AE8000E460A4A144604F8040B6425009501237F
:103AF80094212046FDF780FC00950123324694214D
:103B08002046FDF73BFD02B070BD00BF300000202D
:103B180084B070B504AC84E80F009DF86460444B31
:103B2800002283F840201A68D36943F48063D36184
:103B3800012210213F48FDF77DF83F4C542204A98B
:103B4800201D02F051FA0123637021460220FFF77D
:103B5800B3FF2546AF2305F8013F29460420FFF7A8
:103B6800ABFF8023637029460520FFF7A5FF214698
:103B78000620FFF7B3FF637803F0200343F0070341
:103B8800637029460620FFF797FF29460820FFF7AC
:103B9800A5FF637803F0F00343F00103637029463F
:103BA8000820FFF789FF29460920FFF797FF637868
:103BB80003F0F00343F00103637029460920FFF77F
:103BC8007BFF29460E20FFF789FF012E28D016B962
:103BD800194B02225A70184D6C1C21460E20FFF713
:103BE8006BFF21460F20FFF779FF00266E702146F4
:103BF8000F20FFF761FF6E7021461420FFF75CFF6E
:103C080021461520FFF758FF21461A20FFF754FFD9
:103C180021461B20FFF750FFBDE8704004B07047F5
:103C2800637843F0C00303F0C7036370D3E700BFB2
:103C380068040020000C02403000002008B503286A
:103C480006D8DFE800F0020F13170C4BF0225A7069
:103C58000A494B7843F00F0301F8013F0420FFF7AE
:103C68002BFF08BD054BB0225A70F1E7034BE02249
:103C78005A70EDE7014BA0225A70E9E730000020A6
:103C880038B50446A0F13203DBB25B00114D05F8EC
:103C9800013F29461420FFF70FFF29461520FFF79B
:103CA8000BFF642C14D804EB440423010A4A82FB5A
:103CB80003235B09183BDBB2064C04F8013F21469D
:103CC8002020FFF7F9FE21462120FFF7F5FE38BD39
:103CD8001823F1E7300000201F85EB5138B5194D46
:103CE8002C46992304F8013F21460020FFF7E4FE03
:103CF80080236B7021464720FFF7DEFE21463220E5
:103D0800FFF7ECFE6B7863F07F036B70214632207F
:103D1800FFF7D2FE21463220FFF7E0FE6B7803F072
:103D28007F036B7021463220FFF7C6FE00206870C3
:103D38002146FFF7C1FE9E236B7021460220FFF744
:103D4800BBFE38BD30000020014B00221A707047BE
:103D58008800002000B583B08DF807000748FFF7FA
:103D680077FC0128FAD141F2883301220DF10701CD
:103D78000248FFF77EFA03B05DF804FB0404002054
:103D880000B585B0FF238DF80F3000238DF80E3075
:103D98000A48FFF75DFC0128FAD141F28833009305
:103DA80001230DF10E020DF10F010448FFF734FB5A
:103DB8009DF80E0005B05DF804FB00BF0404002068
:103DC80010B582B0002404E0FF20FFF7C3FF0134E0
:103DD800E4B2092CF8D940238DF8003000248DF87E
:103DE80001408DF802408DF803408DF8044095237A
:103DF8008DF8053007E002AB234413F8080CFFF7F1
:103E0800A9FF0134E4B2052CF5D941F6FF7400E0AE
:103E1800013CFFF7B5FF012801D0002CF8D1FF20A5
:103E2800FFF798FF024B01221A7002B010BD00BFC5
:103E38008800002008B5074B32225A70FFF7A0FF10
:103E4800FFF79EFFFF2803D0024B5B78002BF7D1CA
:103E580008BD00BF8800002038B504460D46FFF7AE
:103E6800E9FFFF2801D0FF2038BD2046FFF772FF89
:103E7800280EFFF76FFFC5F30740FFF76BFFC5F389
:103E88000720FFF767FFE8B2FFF764FF402C11D067
:103E98000020482C10D0FFF75DFF4C2C0ED00A24D0
:103EA800FFF76EFF10F0800FDED0631E13F0FF04E3
:103EB800F6D1D9E79520ECE78720ECE7FFF760FF1C
:103EC800EDE710B50446FFF75BFF207010BD00005A
:103ED80070B504460E460F4B0A229A70FFF750FF42
:103EE800FF2803D10B4B9B78002BF7D1FE2801D07C
:103EF800002070BD651C2046FFF7E3FF284602340A
:103F0800FFF7DFFF023EF5D1FFF73AFFFFF738FF73
:103F18000120EEE78800002070B506460C46FFF742
:103F280089FFFF2801D0002070BD2046FFF712FF4F
:103F3800FD2C27D00024354615F8020BFFF70AFFA1
:103F48007078FFF707FF601E2E4610F0FF04F2D1CD
:103F5800FFF716FFFFF714FF0025402D08D8FFF7DD
:103F68000FFF044600F01F03052B01D00135F4E7CD
:103F7800FFF706FF0028FBD004F01F00052803D038
:103F88000020D1E70024F7E70120CDE7002840F022
:103F9800AA8030B583B00446544B1B7813F0020F47
:103FA80004D0524B1878C0B203B030BDFFF708FFF9
:103FB80000214020FFF750FF054601280FD04C4B49
:103FC800DC70FFF7DDFE002C00F08A80474A13788A
:103FD80003F0FE031370454B1878C0B2E4E7444B76
:103FE80064229A704FF4D5714820FFF735FF0128F5
:103FF80040D1254607E0FFF7C3FE02AB2B4403F888
:10400800040C0135EDB2032DF5D99DF80630012BCE
:10401800D5D19DF80730AA2BD1D102E0344B9B783B
:1040280063B100217720FFF717FF0128F6D84FF07A
:1040380080416920FFF710FF0028EFD12C4B9B78B7
:10404800002BBCD000217A20FFF706FF054640B1BF
:10405800B5E7FFF795FE02AB2B4403F8040C0135D6
:10406800EDB2032DF5D99DF8043013F0400F35D08B
:104078000624A4E700217720FFF7EEFE012810D8D8
:1040880000216920FFF7E8FE01280AD8022508E088
:1040980000217720FFF7E0FE012818D9144B9B7800
:1040A8003BB1022DF4D000214120FFF7D5FE0028B6
:1040B800F4D10F4B9B78002B81D04FF40071502026
:1040C800FFF7CAFE00287FF47AAF2C4677E7002175
:1040D8006920FFF7C1FE0028E0D1EAE702246EE775
:1040E800FFF732FE77E70120704700BF0800002085
:1040F8008800002018B9034B1878C0B27047012017
:10410800704700BF08000020002839D138B50D4697
:104118001C46002B36D01D4B1B7813F0010F33D1F2
:104128001B4BDB7813F0040F00D15202012C18D07E
:1041380011465220FFF790FE68B94FF400712846E7
:10414800FFF7C6FE18B105F50075013CF5D1002151
:104158004C20FFF781FEFFF713FE201C18BF01203B
:1041680038BD11465120FFF777FE0028F3D14FF4F0
:1041780000712846FFF7ACFE0028ECD00024EAE7DF
:10418800042070470420EBE70320E9E7080000203B
:104198008800002000284CD170B50D4616461C46F4
:1041A800002B48D0274B1B7813F0010F45D1254B26
:1041B8001B7813F0040F42D1234BDB7813F0040F64
:1041C80000D15602012C1BD013F0020F26D1314624
:1041D8005920FFF741FE68B9FC212846FFF79CFEED
:1041E80018B105F50075013CF6D1FD210020FFF757
:1041F80093FEE0B1FFF7C4FD201C18BF012070BD7D
:1042080031465820FFF728FE0028F3D1FE21284622
:10421800FFF782FE0028EDD00024EBE7002177208D
:10422800FFF71AFE21465720FFF716FECFE70124B5
:10423800E0E7042070470420E1E70320DFE70220DD
:10424800DDE700BF080000208800002030B4B0F58A
:10425800FA6F02D3A0F5FA6080B292B2012306E0A9
:104268005C1E0F4D2C5D224492B20133DBB28B42AF
:10427800F6D3022904D910F0030F01D1013292B20A
:1042880000EBC00300EBC30303EB83031A4492B2B1
:10429800033002EBA00080B2013880B230BC704716
:1042A8004064000800F00F02030903EB8303580081
:1042B8001044C0B27047000008B5D2B2C9B280B28B
:1042C800FFF7C4FF0630064B83FB00231A18C317F9
:1042D800C3EBA203C3EBC303C01AC0B208BD00BF3F
:1042E8009324499270B582B0234E00233370234C37
:1042F8003225009501233246D0212046FDF77CF86F
:10430800009507233246D0212046FDF737F9B078CB
:10431800FFF7C8FF1A4B18707078FFF7C3FF194BE7
:1043280018703078FFF7BEFF174B1870B079FFF799
:10433800B9FF0446154B18707079FFF7B3FF0546AF
:10434800134B18703079FFF7ADFF0246114B187008
:10435800114BA3FB04135B09642101FB1343DBB27C
:1043680003F5FA630D490B6029462046FFF7A4FFC1
:104378000B4B187002B070BD5C0400200C030020C9
:10438800000400200104002002040020C8020020CC
:1043980060030020640400201F85EB51CC0200203C
:1043A800030400200268A34B9A4200D070472DE90D
:1043B800F041A14B1D78A14BA3FB0512D208D4B242
:1043C80002EB820251006D1AEDB29D4A1278A3FBEE
:1043D8000213DB08DFB203EB83035900521AD6B28B
:1043E800DFF8688200224FF480514046FCF722FC37
:1043F80000224FF400514046FCF71CFC00224FF409
:1044080080414046FCF716FC00224FF4004140462C
:10441800FCF710FC0122FF218A48FCF70BFC8A4BB1
:104428001B68013B032B12D8DFE803F0022579B59E
:1044380001224FF480518548FCF7FCFB012C0ED07B
:104448003CB1022C11D0804A136801331360BDE8D7
:10445800F08100223F217B48FCF7ECFBF3E70022C8
:1044680006217848FCF7E6FBEDE700225B2175485A
:10447800FCF7E0FBE7E701224FF400517348FCF733
:10448800D9FB092D0BD8DFE805F005141A20262CD6
:1044980032383E4400223F216A48FCF7CBFB002219
:1044A80080216848FCF7C6FB674A1368013313602C
:1044B800CDE7002206216348FCF7BCFBEFE70022AA
:1044C8005B216048FCF7B6FBE9E700224F215D4815
:1044D800FCF7B0FBE3E7002266215A48FCF7AAFB89
:1044E800DDE700226D215748FCF7A4FBD7E700223F
:1044F8007D215448FCF79EFBD1E700220721514853
:10450800FCF798FBCBE700227F214E48FCF792FB93
:10451800C5E700226F214B48FCF78CFBBFE701225F
:104528004FF480414948FCF785FB062F0AD8DFE89D
:1045380007F0040E141A20262C0000223F214148BF
:10454800FCF778FB404A1368013313607FE70022C9
:1045580006213C48FCF76EFBF4E700225B21394852
:10456800FCF768FBEEE700224F213648FCF762FBB8
:10457800E8E7002266213348FCF75CFBE2E700220B
:104588006D213048FCF756FBDCE700227D212D48E1
:10459800FCF750FBD6E701224FF400412B48FCF70B
:1045A80049FB092E0BD8DFE806F0050E141A202661
:1045B8002C32383E00223F212248FCF73BFB224B9D
:1045C80001221A6043E7002206211E48FCF732FB4D
:1045D800F5E700225B211B48FCF72CFBEFE70022E4
:1045E8004F211848FCF726FBE9E700226621154809
:1045F800FCF720FBE3E700226D211248FCF71AFBC9
:10460800DDE700227D210F48FCF714FBD7E70022E5
:1046180007210C48FCF70EFBD1E700227F2109484F
:10462800FCF708FBCBE700226F210648FCF702FBEA
:10463800C5E700BF0004004000040020CDCCCCCC6E
:1046480001040020001002400C0000200004024079
:104658004278007840EA02207047C278837843EABB
:104668000222437843EA0223007840EA0320704795
:1046780030B4451C037808781B1A013A04D04C1C46
:1046880028462146002BF4D0184630BC704710B499
:104698000468E4B12246511C1378202B02D90A463B
:1046A8003A2BF8D13A2B04D0002318465DF8044B76
:1046B80070472378A3F13002D2B2092A0AD802340B
:1046C8008C420AD1303B002B0ADC0160EDE74FF049
:1046D800FF33EAE74FF0FF33E7E74FF0FF33E4E754
:1046E8004FF0FF33E1E738B5C3780BB9002038BD88
:1046F800044600F130050123C26A29464078FFF7D5
:1047080049FDA0B90023E370E16A236ACB1AA269C4
:1047180093420ED2A378022B01D00020E7E70123B1
:104728000A4429466078FFF735FD0020DFE70120BD
:10473800DDE70020DBE770B5C36A8B4212D0044680
:104748000D46FFF7D0FF064668B901232A4604F153
:1047580030016078FFF7D8FC10B101264FF0FF3523
:10476800E56200E00026304670BD000010B5044642
:104778000023C3704FF0FF33C362FFF7DCFFF8B9C3
:1047880004F22E20FFF764FF4AF65523984219D108
:1047980094F83030E92B03D0EB2B01D0E82B13D160
:1047A80003220B4904F16600FFF762FF70B105228E
:1047B800084904F18200FFF75BFF20B1022002E004
:1047C800042000E0032010BD0220FCE70020FAE7E7
:1047D80060600008646000082DE9F04784B00F4667
:1047E800164600230B60FFF752FF051EC0F24A81F0
:1047F800B94B53F82540002C00F048813C6006F086
:10480800FE06237873B16078FFF774FC10F0010F8F
:1048180008D1002E00F03C8110F0040F40F03A81DE
:10482800002030E100232370E8B26070FFF7AEFB90
:1048380010F0010F40F030811EB110F0040F40F06D
:104848002D8100212046FFF791FF022800F0878084
:104858000026042800F02481012800F2238104F1B5
:104868003B00FFF7F5FEB0F5007F40F01D8104F135
:104878004600FFF7EDFE074620B904F15400FFF7A4
:10488800ECFE0746A76194F84020A270531EDBB2E5
:10489800012B00F20B8107FB02F594F83D80A4F888
:1048A8000A80B8F1000F00F0038108F1FF3318EA1D
:1048B800030F40F0FF8004F14100FFF7C9FE824674
:1048C800208110F00F0F40F0F78004F14300FFF74C
:1048D800BFFE814620B904F15000FFF7BEFE8146B5
:1048E80004F13E00FFF7B4FE0146002800F0E68020
:1048F800421902EB1A129145C0F0E280A9EB0203BB
:10490800B3FBF8F3002B00F0DD80744883423ED9F6
:104918004FF000094FF6F570834201D84FF00209B5
:1049280040F6F570834235D9B9F1000F34D10D2026
:10493800A9E0002004AB03EB850343F8100C013514
:10494800032D0ED804F130002B0103F5DF73184452
:104958000379002BEDD00830FFF77FFEEAE700254A
:10496800EEE700250AE031462046FFF7FFFE012862
:104978007FF66FAF0135032D3FF66BAF04AB03EB4A
:10498800850353F8106C002EEDD10320F2E74FF0A9
:104998000309BFE74FF0010903F10208C4F81480C6
:1049A800E6618B1923623244A262B9F1030F26D063
:1049B800BAF1000F00F08C802B446362B9F1020F4A
:1049C8002ED008EB480208F0010303EB520303F270
:1049D800FF13B7EB532F7DD34FF0FF332361E36011
:1049E80080232371B9F1030F1DD084F800903A4A4F
:1049F800938801339BB29380E380002043E004F165
:104A08005A00FFF725FE00285ED1BAF1000F5DD1EC
:104A180004F15C00FFF721FE60624FEA8803D6E7E5
:104A28004FEA4803D3E704F16000FFF711FE0128BD
:104A3800DBD1711C2046FFF77EFE0028D5D100236C
:104A4800237104F22E20FFF703FE4AF655239842FD
:104A5800CBD104F13000FFF700FE214B9842C4D1BE
:104A680004F50570FFF7F9FD1E4B9842BDD104F51A
:104A78000670FFF7F2FD206104F50770FFF7EDFD02
:104A8800E060B2E70B2004B0BDE8F0870C20FAE73D
:104A98000020F8E70A20F6E70320F4E70A20F2E707
:104AA8000120F0E70D20EEE70D20ECE70D20EAE706
:104AB8000D20E8E70D20E6E70D20E4E70D20E2E70A
:104AC8000D20E0E70D20DEE70D20DCE70D20DAE71A
:104AD8000D20D8E70D20D6E78C000020F5FFFF0F4A
:104AE800525261417272416110B584B001900091D7
:104AF800144604A840F8041DFFF7C9FD002817DB79
:104B08000C4B53F820300BB100221A70019B0BB1EB
:104B180000221A70074B019A43F8202014B900208C
:104B280004B010BD002201A96846FFF755FEF7E75B
:104B38000B20F5E78C0000202DE9F0418CB0002413
:104B48000794089409940A940B940194384B1A6BAF
:104B580042F010021A631A6B02F010020192019AD5
:104B680002941A6B42F080021A631A6B02F08002F8
:104B78000292029A03941A6B42F001021A631A6BAA
:104B880002F001020392039A04941A6B42F00202A3
:104B98001A631A6B02F002020492049A05941A6BC3
:104BA80042F008021A631A6B02F008020592059A8D
:104BB80006941A6B42F004021A631B6B03F0040399
:104BC8000693069BDFF874802246FF214046FCF7D7
:104BD80031F8184F22464FF470413846FCF72AF84E
:104BE800154E224641F210013046FCF723F8FF2308
:104BF80007930125089509940A9407A94046FBF7ED
:104C080035FF4FF470430793089509940A9407A950
:104C18003846FBF72BFF41F21003079308950994D8
:104C28000A9407A93046FBF721FF0CB0BDE8F081D4
:104C38000038024000040240000C0240001002400C
:104C480000B583B000210191094B1A6B42F40012A0
:104C58001A631B6B03F400130193019B0A4610208F
:104C6800FBF790FC1020FBF7C1FC03B05DF804FBD8
:104C78000038024008B50948094B0360094B4360F6
:104C880000238360C3604FF4804202614361836103
:104C9800C3610362FCF722FB08BD00BF0C030020C0
:104CA80000540040A086010008B50948094B03607C
:104CB8004FF40072426000238360C36002614BF6C8
:104CC800803242618361C3610362FDF765FB08BD01
:104CD80068040020003C004030B587B000240294EE
:104CE800039404940594009401940E4D0E4B2B608C
:104CF80040F22B136B60AC604523EB602C612846B7
:104D0800FEF796FE4FF48053029302A92846FEF759
:104D1800E9FC0094019469462846FEF7A2FE07B014
:104D280030BD00BF640300200004004030B587B0E8
:104D380000240294039404940594009401940D4D66
:104D48000D4B2B6001236B60AC60EB602C61284637
:104D5800FEF76EFE4FF48053029302A92846FEF731
:104D6800C1FC0094019469462846FEF77AFE07B014
:104D780030BD00BFD00200200008004008B50C4834
:104D88000C4B03604FF48273436000238360C3605D
:104D9800036143614FF4007282611822C2610362A9
:104DA800436283620A23C362FEF723FA08BD00BF89
:104DB800040400200030014070B598B03022002172
:104DC8000DEB020001F01BF90024079408940994E4
:104DD8000A940B94039404940594069401941F4B2D
:104DE8001A6C42F080521A641B6C03F080530193D2
:104DF800019B02941A4B1A6842F480421A601B689D
:104E080003F480430293029B01260C964FF48033EF
:104E18000D93022512954FF48003139304231493E2
:104E2800A8221592169517930CA8FDF7A5FD0F2338
:104E38000793089509944FF4A0530A934FF48053AD
:104E48000B93052107A8FDF7CFFF0396C023049312
:104E5800059503A8FEF78AF818B070BD003802401F
:104E68000070004030B593B0384B394A1A60394B5E
:104E780021221A80FBF748FBFFF79EFFFFF75CFE35
:104E8800FFF7DEFEFFF7F6FEFFF70EFFFFF724FF42
:104E9800FFF74CFFFFF772FF2F4C012311934422B9
:104EA80004F11001684601F09FF894E80F00FEF73E
:104EB8002FFE4B20FEF7E4FE0320FEF7BFFEFEF7B1
:104EC8000DFF002423E0650007EE905AF8EEE77A1C
:104ED8009FED227A67EE877A1C4B93ED000A27EE46
:104EE800800A00F013FA1E4B83ED000ADFED1D7AED
:104EF80060EE277AFDEEE77A17EE903A1BB21A4A6F
:104F080022F81530013522F815300134A4B2114BBE
:104F18001B88A342D7D85B009AB213491348FDF700
:104F280087F91348FEF7D2FB002212491248FFF70F
:104F3800DBFD124B187010B1FFF7D4F9FCE74FF402
:104F480080510F48FBF77CFEF6E700BF0007002002
:104F58008FC2F53CB40400200C030020D00F494058
:104F6800040700200000FA45080700206804002014
:104F7800640300206C60000894000020F9060020FB
:104F8800000C02407047000082B0002100910B4BDA
:104F98005A6C42F480425A645A6C02F4804200927D
:104FA800009A01911A6C42F080521A641B6C03F04B
:104FB80080530193019B02B0704700BF0038024044
:104FC80030B589B0002303930493059306930793A0
:104FD80002681D4B9A4201D009B030BD00240194EB
:104FE8001A4D2B6B43F002032B632B6B03F0020368
:104FF8000193019B4FF4107303931223049301232D
:105008000593032306930423079303A91048FBF78A
:105018002DFD02942B6C43F400132B642B6C03F4CA
:1050280000130293029B224621461F20FBF7AAFA8F
:105038001F20FBF7DBFA224621462020FBF7A2FAC5
:105048002020FBF7D3FAC7E700540040003802409D
:1050580000040240F0B589B000230393049305933C
:10506800069307930268304B9A4201D009B0F0BD0D
:1050780004460025009503F5FE331A6C42F40042FD
:105088001A641A6C02F400420092009A01951A6B95
:1050980042F001021A631A6B02F001020192019AAE
:1050A80002951A6B42F004021A631B6B03F00403A7
:1050B8000293029B10230393022704970626079660
:1050C80003A91A48FBF7D2FC4FF4A453039304979F
:1050D80005950695079603A91548FBF7C7FC1548DB
:1050E800154B0360456040238360C5604FF48063BF
:1050F80003614FF4006343614FF4005383614FF43D
:105108008073C36105620423436203238362C5621B
:105118000563FBF709FB18B9064BA3639C63A5E776
:10512800FFF730FFF8E700BF003C004000000240F6
:1051380000080240A00300208860024000B589B042
:105148000023039304930593069307930268154B72
:105158009A4202D009B05DF804FB0021019103F5E1
:1051680084335A6C42F480525A645A6C02F4805266
:105178000192019A02911A6B42F002021A631B6BA8
:1051880003F002030293029B382303930223049340
:10519800032306930523079303A90348FBF766FC3B
:1051A800D8E700BF003001400004024000B583B0DA
:1051B8000368154A934205D0144A934216D003B0A7
:1051C8005DF804FB00210091114B1A6C42F00202B9
:1051D8001A641B6C03F002030093009B0A461D200F
:1051E800FBF7D0F91D20FBF701FAE8E7002301934C
:1051F800074B1A6C42F004021A641B6C03F0040398
:105208000193019BDBE700BF000400400008004059
:10521800003802407047FEE7FEE7FEE7FEE770470A
:105228007047704708B5FBF789F908BD08B502480B
:10523800FBF72EFB08BD00BFA003002008B50248FD
:10524800FEF7D8FA08BD00BF6403002008B502487D
:10525800FCF7A0FE08BD00BF0C03002008B50248FB
:10526800FCF74CFF08BD00BF0C0300200F49D1F824
:10527800883043F47003C1F888300D4B1A6842F047
:1052880001021A60002098601A6822F0847222F4E1
:1052980080321A60074A5A601A6822F480221A601B
:1052A800D8604FF000638B60704700BF00ED00E0EE
:1052B8000038024010300024DFF834D0002103E029
:1052C8000C4B5B58435004310B480C4B42189A4224
:1052D800F6D30B4A02E0002342F8043B094B9A42FA
:1052E800F9D3FFF7C3FF00F05BFEFFF7BBFD704784
:1052F800000002205C640008000000201400002068
:1053080014000020140B0020FEE7000000B510EE8A
:10531800103A214A23F00043934283B01ADDB3F1D7
:10532800FF4F04DB30EE400A03B05DF804FB68462B
:1053380000F036F800F00300012813D0022820D02E
:10534800B8B1DDED010A9DED000A00F075F9B1EE86
:10535800400AE9E70020DFED110A00F017FD03B06D
:105368005DF804FBDDED010A9DED000A00F064F92B
:10537800DAE70120DDED010A9DED000A00F006FDE7
:10538800D2E70120DDED010A9DED000A00F0FEFCE8
:10539800B1EE400AC8E700BFD80F493F000000003F
:1053A80070B510EE103A964A23F00044944286B045
:1053B800054669DD934A944210EE106A1ADC002B08
:1053C80024F00F04DFED907A904A64DD944270EE89
:1053D800677A00F0CF809FED8E7A77EEC76A01205A
:1053E80077EEE67AC5ED006A77EEC77AC5ED017A01
:1053F80006B070BD874A944261DDB4F1FF4F80F278
:10540800B180E215863AA4EBC25307EE903ABDEE9E
:10541800E77ADFED816AB8EEC77A77EEC77A8DED65
:10542800037A67EEA67ABDEEE77AB8EEC77A77EE2A
:10543800C77A8DED047A67EEA67AF5EE407AF1EE3A
:1054480010FACDED057A40F0C780B5EE407AF1EE5E
:1054580010FA0CBF01230223704901910221009127
:1054680003A8294600F06AF9002E12DA95ED007AB1
:10547800D5ED017AB1EE477AF1EE677A404285EDD3
:10548800007AC5ED017A04E0002285ED000A426049
:10549800002006B070BD944270EE277A00F0898033
:1054A8009FED5B7A77EE876A4FF0FF3077EEE67A0A
:1054B800C5ED006A77EE877AC5ED017AE9E700F075
:1054C800ADFCDFED576ADFED505A9FED517AF6EEED
:1054D800007AE0EE267AFDEEE77A17EE900AF8EE0B
:1054E800E76A1F28B1EE666AA6EE250A66EE877A95
:1054F80052DD30EE677A17EE103AE415C3F3C7535E
:10550800E31A082B52DDDFED477A9FED477AF0EE7C
:10551800405AE6EE275A30EE650AA6EE270AF0EE64
:10552800407AD6EE877A35EEE77A17EE103AC3F36B
:10553800C753E41A192C51DC85ED007AB0EE650AE0
:1055480030EE470A002E30EE670A85ED010AA0DA30
:10555800B1EE477AB1EE400A85ED007A85ED010A91
:10556800404296E770EE407A0020C5ED017AC5ED1D
:10557800007A8EE7DFED2B6A9FED2B7A77EEE67ADD
:10558800012077EEC76A77EEE67AC5ED006A77EE16
:10559800C77AC5ED017A7CE7421E244B53F82230C6
:1055A80024F0FF029A4230EE677AA4D085ED007AA3
:1055B800C6E7DFED1C6A9FED1C7A77EEA67A4FF0FE
:1055C800FF3077EE876A77EEE67AC5ED006A77EE08
:1055D800877AC5ED017A5CE703233DE79FED147AEE
:1055E8009FED145AB0EE650AA6EE070A75EEC07A6A
:1055F800E6EE077AD6EE857A30EE677AD6E700BF10
:10560800D80F493FE3CB1640800FC93FD00FC93FA1
:1056180043443537800F494300008043F060000859
:1056280084F9223F0044353708A3852E70600008AE
:1056380000A3852E32318D2410EE103A23F000435A
:10564800B3F1485F2CDAFDEEC07A17EE903A002BE2
:105658005BD020EE007ADFED314A9FED315ADFED65
:10566800315A9FED316ADFED317ADFED316AA7EE0D
:10567800245AE7EE055AA7EE256AE7EE067AE7EE22
:10568800276A66EE876A60EEC00AB6EE006AE7EE41
:10569800260AF7EE007AD7EE060A37EEE00A7047D8
:1056A80020EE007ADFED1D4A9FED1D5ADFED1D5AF1
:1056B8009FED1D6ADFED1D7ADFED1D6A1D4AA7EE1D
:1056C800245A9342E5EE075AA5EE876AE6EE077A72
:1056D800E7EE876A66EE876AD5DD174A934217DCDC
:1056E80003F17F4307EE903AB7EE006A36EE676A39
:1056F80060EEC00AF6EE005AE7EE260AD7EE257AE3
:1057080077EEE07A36EE670A7047B7EE000A704720
:10571800B6EE076AF5EE027AEAE700BF4ED747AD64
:10572800F6740F317CF293B4010DD037610BB6BA21
:10573800ABAA2A3D9999993E0000483F2DE9F04FC0
:105748002DED048BD7B003F1FF390293D31E48BF68
:10575800131DB24C649D0591DB1023EAE37354F8E2
:105768002560039303F10108A2EBC80816EB0902B0
:105778008646A3EB090316D41A449FEDA97A6598C7
:10578800511C1AAA002BA4BF50F8234007EE904AD8
:1057980003F10103ACBFF8EEE77AF0EE477A8B42EB
:1057A800E2EC017AEED1029B002E4FEA83044FEA25
:1057B800860A1DDB1AAB181943AA7346191902EB9E
:1057C8000A0742ADF446B9F1000FDFED957A09DB1F
:1057D80002466346F3EC016A32ED017A8B42E6EE4B
:1057E800877AF7D1E5EC017ABD4200F10400EAD1ED
:1057F800AAF1080306ADEB1804939FED8B9ADFED31
:10580800898A009605ABB34674449A4442AF7646FB
:105818004FEA8B0156AB0B44BBF1000F13ED140A92
:1058280016DD07EB8B032A4660EE097AB0EE407A64
:10583800FDEEE77A73ED016AF8EEE77ABB42A7EE70
:10584800E87A37EEA60ABDEEC77AA2EC017AEBD168
:105858004046019100F030FBB0EE408AB4EE000AF9
:1058680028EE000A00F0E2FAF2EE007AA0EE678A6B
:10587800B8F1000F0199FDEEC89AF8EEE97A38EE12
:10588800678A40F3C4800BF1FF3CC8F1080355F860
:105898002C2042FA03F000FA03F3D31A45F82C300F
:1058A80019EE90CA8444C8F1070209EE90CA43FA77
:1058B80002F2002A31DD19EE903ABBF1000F03F134
:1058C800010309EE903A40F329822868002840F045
:1058D8008680BBF1010F0BD0AE464FF0010C5EF88D
:1058E800040F0CF1010300287CD19B459C46F6D19E
:1058F800B8F1000F0EDDB8F1010F00F03281B8F1F8
:10590800020F07D10BF1FF3155F8213003F03F03A7
:1059180045F82130022A00F01281B5EE408AF1EEF6
:1059280010FA40F09580009B0BF1FF3C63450EDCBC
:105938000BF18041013905EB8101002051F8043950
:10594800514540EA0300F9D1002840F01381009B3B
:10595800013B55F82330002B40F00081049B4FF0A9
:10596800010C53F804290CF1010C002AF9D0DC448D
:105978000BF1010EE64530DC039B029A0EEB0301A6
:105988005A4403EB0C0B1AAB01F1804103EB820282
:10599800659B013903EB810107EB8E0E03EB8B0B43
:1059A80051F8043F9FED1E7A07EE903AF8EEE77A39
:1059B8001046B9F1000FE0EC017A09DB334601E04B
:1059C80072ED017AF3EC016AA342A6EEA77AF7D149
:1059D8005945AEEC017A0246E2D1E34618E70123C5
:1059E8004FF0000CC0F580709B4545F82C000CDD8D
:1059F80055F82300294405EB830300E01868C0F13B
:105A0800FF0043F8040B8B42F8D1012070E70FD157
:105A18000BF1FF3355F8232012124AE734640008CB
:105A280000000000000080430000803B0000C93FE8
:105A3800F6EE007AB4EEE78AF1EE10FA80F25881B9
:105A4800B5EE408AF1EE10FA4FF000023FF46BAF6A
:105A5800B0EE480AC8F100009146009E00F02CFA0A
:105A68001FED107AB4EEC70AF1EE10FAC0F25881B1
:105A78005FED137A60EE277A0BF10103FDEEE77A0A
:105A880008F10808F8EEE77AA7EEC70AFDEEE77A0C
:105A9800BDEEC00A10EE102A45F82B2017EE902A0A
:105AA80045F823204046B7EE000A009300F004FAB8
:105AB800009B002BC0F24B81980042AA00F1040C15
:105AC8001FED277A1044011D05EB0C0272ED017AD7
