:020000040800F2
:1000000000000220857900086578000867780008FC
:10001000697800086B7800086D780008000000001F
:100020000000000000000000000000006F780008E1
:1000300071780008000000007378000875780008E7
:10004000D5790008D5790008D5790008D579000858
:10005000D5790008D57900087D78000887780008F0
:1000600091780008D5790008D5790008D57900087D
:10007000D5790008D5790008D5790008D579000828
:100080009D780008D5790008D5790008D579000851
:10009000D5790008D5790008D5790008AD78000831
:1000A000D5790008D5790008D5790008D5790008F8
:1000B000D5780008E5780008F5780008057900088B
:1000C00015790008D5790008D5790008D579000898
:1000D000D5790008D5790008D5790008D5790008C8
:1000E00025790008D5790008D5790008D579000868
:1000F000D5790008D5790008D5790008D5790008A8
:10010000D5790008D5790008D5790008D579000897
:10011000D5790008D5790008D5790008D579000887
:10012000D5790008D5790008D5790008D579000877
:10013000D5790008D5790008D5790008D579000867
:10014000D5790008D5790008D5790008D579000857
:10015000D5790008D5790008D5790008D579000847
:10016000D5790008D5790008D5790008D579000837
:10017000D5790008D5790008D5790008000000007D
:08018000D5790008D5790008CB
:1001880010B5054C237833B9044B13B10448AFF3C9
:1001980000800123237010BD18000020000000001B
:1001A8002087000808B5034B1BB103490348AFF388
:1001B800008008BD000000001C0000202087000807
:1001C80081F0004102E000BF83F0004330B54FEA00
:1001D80041044FEA430594EA050F08BF90EA020F6D
:1001E8001FBF54EA000C55EA020C7FEA645C7FEA00
:1001F800655C00F0E2804FEA5454D4EB5555B8BF23
:100208006D420CDD2C4480EA020281EA030382EA93
:10021800000083EA010180EA020281EA0303362D25
:1002280088BF30BD11F0004F4FEA01314FF4801CF8
:100238004CEA113102D0404261EB410113F0004F0A
:100248004FEA03334CEA133302D0524263EB4303C1
:1002580094EA050F00F0A780A4F10104D5F1200E5F
:100268000DDB02FA0EFC22FA05F2801841F10001BA
:1002780003FA0EF2801843FA05F359410EE0A5F18E
:1002880020050EF1200E012A03FA0EFC28BF4CF0BF
:10029800020C43FA05F3C01851EBE37101F0004575
:1002A80007D54FF0000EDCF1000C7EEB00006EEB82
:1002B8000101B1F5801F1BD3B1F5001F0CD349080C
:1002C8005FEA30004FEA3C0C04F101044FEA445263
:1002D80012F5800F80F09A80BCF1004F08BF5FEAEA
:1002E800500C50F1000041EB045141EA050130BDCA
:1002F8005FEA4C0C404141EB010111F4801FA4F16D
:100308000104E9D191F0000F04BF01460020B1FAC1
:1003180081F308BF2033A3F10B03B3F120020CDAF9
:100328000C3208DD02F1140CC2F10C0201FA0CF0D7
:1003380021FA02F10CE002F11402D8BFC2F1200C3C
:1003480001FA02F120FA0CFCDCBF41EA0C019040F2
:10035800E41AA2BF01EB0451294330BD6FEA04043B
:100368001F3C1CDA0C340EDC04F11404C4F1200226
:1003780020FA04F001FA02F340EA030021FA04F338
:1003880045EA030130BDC4F10C04C4F1200220FA8F
:1003980002F001FA04F340EA0300294630BD21FACD
:1003A80004F0294630BD94F0000F83F4801306BF93
:1003B80081F480110134013D4EE77FEA645C18BF87
:1003C8007FEA655C29D094EA050F08BF90EA020F1E
:1003D80005D054EA000C04BF1946104630BD91EA16
:1003E800030F1EBF0021002030BD5FEA545C05D119
:1003F8004000494128BF41F0004130BD14F5800458
:100408003CBF01F5801130BD01F0004545F0FE41CB
:1004180041F470014FF0000030BD7FEA645C1ABF00
:10042800194610467FEA655C1CBF0B46024650EA37
:10043800013406BF52EA033591EA030F41F4002163
:1004480030BD00BF90F0000F04BF0021704730B5E9
:100458004FF4806404F132044FF000054FF00001BE
:1004680050E700BF90F0000F04BF0021704730B57F
:100478004FF4806404F1320410F0004548BF404254
:100488004FF000013EE700BF42004FEAE2014FEAA9
:1004980031014FEA02701FBF12F07F4393F07F4F84
:1004A80081F06051704732F07F4208BF704793F087
:1004B8007F4F04BF41F40021704730B54FF460749A
:1004C80001F0004521F000411CE700BF50EA01029D
:1004D80008BF704730B54FF000050AE050EA010246
:1004E80008BF704730B511F0004502D5404261EBB6
:1004F80041014FF4806404F132045FEA915C3FF4F7
:10050800D8AE4FF003025FEADC0C18BF03325FEA93
:10051800DC0C18BF033202EBDC02C2F1200300FA44
:1005280003FC20FA02F001FA03FE40EA0E0021FA69
:1005380002F11444BDE600BF70B54FF0FF0C4CF457
:10054800E06C1CEA11541DBF1CEA135594EA0C0F09
:1005580095EA0C0F00F0DEF82C4481EA030621EA44
:100568004C5123EA4C5350EA013518BF52EA03357F
:1005780041F4801143F4801338D0A0FB02CE4FF031
:100588000005E1FB02E506F00042E0FB03E54FF061
:100598000006E1FB03569CF0000F18BF4EF0010E59
:1005A800A4F1FF04B6F5007F64F5407404D25FEA55
:1005B8004E0E6D4146EB060642EAC62141EA555108
:1005C8004FEAC52040EA5E504FEACE2EB4F1FD0C4A
:1005D80088BFBCF5E06F1ED8BEF1004F08BF5FEAC8
:1005E800500E50F1000041EB045170BD06F000467A
:1005F80046EA010140EA020081EA0301B4EB5C0427
:10060800C2BFD4EB0C0541EA045170BD41F480111E
:100618004FF0000E013C00F3AB8014F1360FDEBF43
:10062800002001F0004170BDC4F10004203C35DA1F
:100638000C341BDC04F11404C4F1200500FA05F3A2
:1006480020FA04F001FA05F240EA020001F0004243
:1006580021F0004110EBD37021FA04F642EB0601B9
:100668005EEA430E08BF20EAD37070BDC4F10C04E3
:10067800C4F1200500FA04F320FA05F001FA04F2A7
:1006880040EA020001F0004110EBD37041F1000193
:100698005EEA430E08BF20EAD37070BDC4F120059E
:1006A80000FA05F24EEA020E20FA04F301FA05F206
:1006B80043EA020321FA04F001F0004121FA04F2AE
:1006C80020EA020000EBD3705EEA430E08BF20EA7E
:1006D800D37070BD94F0000F0FD101F000464000B8
:1006E80041EB010111F4801F08BF013CF7D041EA3A
:1006F800060195F0000F18BF704703F0004652003E
:1007080043EB030313F4801F08BF013DF7D043EA0E
:100718000603704794EA0C0F0CEA135518BF95EAC4
:100728000C0F0CD050EA410618BF52EA4306D1D14B
:1007380081EA030101F000414FF0000070BD50EA6A
:10074800410606BF1046194652EA430619D094EAF4
:100758000C0F02D150EA013613D195EA0C0F05D1DE
:1007680052EA03361CBF104619460AD181EA030132
:1007780001F0004141F0FE4141F470014FF00000EA
:1007880070BD41F0FE4141F4780170BD70B54FF085
:10079800FF0C4CF4E06C1CEA11541DBF1CEA135505
:1007A80094EA0C0F95EA0C0F00F0A7F8A4EB0504E7
:1007B80081EA030E52EA03354FEA013100F08880DE
:1007C8004FEA03334FF0805545EA131343EA1263A7
:1007D8004FEA022245EA111545EA10654FEA00265C
:1007E8000EF000419D4208BF964244F1FD0404F515
:1007F800407402D25B084FEA3202B61A65EB030571
:100808005B084FEA32024FF480104FF4002CB6EB2D
:10081800020E75EB030E22BFB61A754640EA0C00AD
:100828005B084FEA3202B6EB020E75EB030E22BFED
:10083800B61A754640EA5C005B084FEA3202B6EB2E
:10084800020E75EB030E22BFB61A754640EA9C00ED
:100858005B084FEA3202B6EB020E75EB030E22BFBD
:10086800B61A754640EADC0055EA060E18D04FEA7B
:10087800051545EA16754FEA06164FEAC30343EA1B
:1008880052734FEAC2025FEA1C1CC0D111F4801FE8
:100898000BD141EA00014FF000004FF0004CB6E7E1
:1008A80011F4801F04BF01430020B4F1FD0C88BF80
:1008B800BCF5E06F3FF6AFAEB5EB030C04BFB6EB8B
:1008C800020C5FEA500C50F1000041EB045170BD7E
:1008D8000EF0004E4EEA113114EB5C04C2BFD4EBAB
:1008E8000C0541EA045170BD41F480114FF0000E2F
:1008F800013C90E645EA060E8DE60CEA135594EAAB
:100908000C0F08BF95EA0C0F3FF43BAF94EA0C0FAD
:100918000AD150EA01347FF434AF95EA0C0F7FF422
:1009280025AF104619462CE795EA0C0F06D152EA76
:1009380003353FF4FDAE1046194622E750EA41065A
:1009480018BF52EA43067FF4C5AE50EA41047FF46B
:100958000DAF52EA43057FF4EBAE12E74A0011D21D
:1009680012F5001211D20DD56FF47873B3EB625201
:100978000ED44FEAC12343F0004343EA505323FA0D
:1009880002F070474FF00000704750EA013002D182
:100998004FF0FF3070474FF00000704753B94AB925
:1009A800002908BF00281CBF4FF0FF314FF0FF306F
:1009B80000F072B9ADF1080C6DE904CE00F006F84C
:1009C800DDF804E0DDE9022304B070472DE9F047C3
:1009D800089E04468846002B4BD18A42154667D9A3
:1009E800B2FA82F24AB1C2F1200701FA02F320FA00
:1009F80007F7954047EA030894404FEA154E230C41
:100A0800B8FBFEF71FFA85FC0EFB178843EA08437C
:100A180007FB0CF1994209D9EB1807F1FF3080F078
:100A28001B81994240F21881023F2B445B1AA4B201
:100A3800B3FBFEF00EFB103344EA034400FB0CFC4E
:100A4800A44509D92C1900F1FF3380F00781A4458A
:100A580040F2048102382C4440EA0740A4EB0C041D
:100A680000271EB1D4400023C6E900433946BDE83B
:100A7800F0878B4209D9002E00F0EB800027C6E9E9
:100A8800000138463946BDE8F087B3FA83F7002FEE
:100A980047D18B4202D3824200F2FA80841A61EB7A
:100AA800030301209846002EE0D0C6E90048DDE7A0
:100AB80002B9FFDEB2FA82F2002A40F08F80491BA9
:100AC8004FEA154E1FFA85F80127B1FBFEFC230CEF
:100AD8000EFB1C1143EA014308FB0CF1994207D9AC
:100AE800EB180CF1FF3002D2994200F2CD80844617
:100AF800591AA3B2B1FBFEF00EFB101443EA0444EA
:100B080008FB00F8A04507D92C1900F1FF3302D2E1
:100B1800A04500F2B6801846A4EB080440EA0C4051
:100B28009FE7C7F1200CBB4022FA0CFE4EEA030EE9
:100B380001FA07F420FA0CF521FA0CF34FEA1E48E3
:100B48002543B3FBF8F92C0C08FB19331FFA8EFA6E
:100B580044EA034309FB0AF49C4202FA07F200FA4A
:100B680007F10BD91EEB030309F1FF3080F08780F2
:100B78009C4240F28480A9F1020973441B1BADB268
:100B8800B3FBF8F008FB103345EA034400FB0AFA0C
:100B9800A24508D91EEB040400F1FF336BD2A2452D
:100BA80069D90238744440EA0940A0FB0289A4EBE1
:100BB8000A044C45C2464B4654D351D0002E69D046
:100BC800B1EB0A0564EB030404FA0CFCFD40FC409D
:100BD8004CEA0505C6E90054002747E7C2F120039F
:100BE80020FA03F7954001FA02F021FA03F34FEADD
:100BF800154E3843010CB3FBFEF71FFA85F80EFBC0
:100C0800173341EA034107FB08F38B4204FA02F465
:100C180007D9691807F1FF3C2FD28B422DD9023F23
:100C28002944CB1A81B2B3FBFEF00EFB103341EA24
:100C3800034100FB08F38B4207D9691800F1FF3C18
:100C480017D28B4215D902382944C91A40EA0747F6
:100C58003BE73746304609E70746E7E61846FBE62E
:100C68004145ABD2B8EB020A69EB0E0201381346D4
:100C7800A4E76046E9E7184695E76746D1E7814665
:100C88007CE702382C4447E7ACF1020C2B442FE7F1
:100C9800384608E73746E9E6704700BF10F8012BE9
:100CA80011F8013B012A28BF9A42F7D0D01A7047A1
:100CB80010B504460E4B18784FF47A73B3FBF0F373
:100CC8000C4A1068B0FBF3F000F096F868B90F2CE6
:100CD80001D901200AE0002221464FF0FF3000F040
:100CE80049F8034B5C60002000E0012010BD00BF04
:100CF800000000201400002008B50B4B1A6842F4CD
:100D080000721A601A6842F480621A601A6842F423
:100D180080721A60032000F01BF80020FFF7C8FF5C
:100D280006F038FC002008BD003C0240034A116868
:100D3800034B1B780B441360704700BFF002002080
:100D480000000020014B1868704700BFF002002027
:100D5800074AD36823F4E0631B041B0C000200F469
:100D6800E060184340F0BF6040F40030D060704746
:100D780000ED00E030B4174BDB68C3F30223C3F186
:100D88000704042C28BF04241D1D062D18D9033B75
:100D98004FF0FF3505FA04F421EA0401994005FAF9
:100DA80003F322EA0303194300280BDB0901C9B244
:100DB80000F1604000F5614080F8001330BC7047D6
:100DC8000023E5E700F00F000901C9B2024B1954EE
:100DD800F4E700BF00ED00E014ED00E0002807DBB9
:100DE80000F01F02400901239340024A42F82030D4
:100DF800704700BF00E100E00138B0F1807F0AD2FF
:100E0800064B5860064AF02182F8231000209860AB
:100E180007221A6070470120704700BF10E000E009
:100E280000ED00E030B405682C6824F480242C60C0
:100E3800046863608368402B05D003689960036881
:100E4800DA6030BC704703689A600368D960F8E7D5
:100E58000268D3B2103B0B49A1FB03131B090A49D3
:100E6800C95CC165032B06D822F47F7222F0030205
:100E78008265806D704722F47F7222F0030204328B
:100E88008265F6E7ABAAAAAA38870008836A82694E
:100E980092B9012B0AD01BB1022B01D00020704758
:100EA800C36A13F0807F2CD100207047C36AB3F166
:100EB800C07F28D000207047B2F5005F05D0022B14
:100EC80029D9032B15D000207047032B03D8DFE85E
:100ED80003F01C041C0A00207047C36A13F0807FCB
:100EE80015D100207047C36AB3F1C07F11D000202C
:100EF8007047C36A13F0807F01D00120704700203B
:100F08007047012070470120704701207047012079
:100F180070470120704701207047000070B50446F3
:100F2800FFF710FF002C5BD00546002384F834300F
:100F3800022384F835302268136823F00103136014
:100F480023681A6812F0010F0AD0FFF7FBFE401B56
:100F58000528F5D920236365032084F8350070BD82
:100F68001A68204810406168A2680A43E1680A4389
:100F780021690A4361690A43A1690A43E1690A438D
:100F8800216A0A430243616A04291ED01A6026684E
:100F9800756925F00705636A1D43042B07D1A36A09
:100FA8001D43E36A1BB12046FFF770FF90B97561D6
:100FB8002046FFF74DFFE26D3F23934083600020FA
:100FC8006065012384F83530C9E7E16A206B014385
:100FD8000A43DBE740236365012084F83500BEE758
:100FE8000120BCE73F8010F038B5856D90F834409B
:100FF800012C31D0012480F8344090F83540E4B217
:10100800012C04D0002380F83430022038BD044677
:10101800022084F83500002060652046FFF702FFB3
:10102800E26D3F239340AB602268136843F01603D8
:1010380013602268536943F080035361236C23B122
:101048002268136843F0080313602268136843F0AA
:10105800010313600020D9E70220D7E790F8353064
:10106800DBB2022B03D080234365012070470523A0
:1010780080F835300268136823F0010313600020FC
:1010880070470000F0B583B0044600230193724B0B
:101098001D68724BA3FB0535AD0A876D3E68C26DAE
:1010A80008239340334210D003681A6812F0040FE3
:1010B8000BD01A6822F004021A60C26D082393400C
:1010C800BB60436D43F001034365E26D0123934028
:1010D800334209D02268526912F0800F04D0BB60F5
:1010E800636D43F002036365E26D0423934033426A
:1010F80009D02268126812F0020F04D0BB60636D39
:1011080043F004036365E26D10239340334224D017
:101118002268126812F0080F1FD0BB6023681A6893
:1011280012F4802F0DD01B6813F4002F04D1236C08
:101138009BB12046984710E0A36C73B120469847AE
:101148000BE01A6812F4807F03D11A6822F00802B3
:101158001A60236C0BB120469847E26D2023934018
:10116800334255D02268126812F0100F50D0BB607D
:1011780094F83530DBB2052B0ED023681A6812F4C8
:10118800802F33D01B6813F4002F2AD1636C002BF7
:101198003ED0204698473BE02268136823F01603A8
:1011A80013602268536923F080035361236CA3B151
:1011B8002268136823F008031360E26D3F2393400D
:1011C800BB60002384F83430012384F83530236D64
:1011D800002B3FD0204698473CE0A36C002BE7D17A
:1011E800EBE7E36BA3B12046984711E01A6812F4C5
:1011F800807F09D11A6822F010021A60002384F84F
:101208003430012384F83530E36B0BB1204698471E
:10121800636DFBB1636D13F0010F17D0052384F8DC
:1012280035302268136823F001031360019B0133F2
:101238000193AB4204D823681B6813F0010FF5D162
:10124800002384F83430012384F83530E36C0BB183
:101258002046984703B0F0BD14000020B5814E1B0E
:1012680090F835007047000000230F2B00F2D7805C
:10127800F0B482B039E0072200E00022B2403A43DD
:101288000234674E46F82420664A1468EA4302EAA4
:1012980004064F6817F4803F01D045EA0406614C04
:1012A8002660646802EA04064F6817F4003F01D01C
:1012B80045EA04065B4C6660A46802EA04064F68C7
:1012C80017F4801F01D045EA0406564CA660E4686E
:1012D80022404E6816F4001F01D045EA0402514C22
:1012E800E26001330F2B00F2978001229A400C68CC
:1012F80004EA0205AA42F4D14C68022C01D0122C4F
:1013080010D1DE08083650F826C003F00704A700FD
:101318000F24BC402CEA040C0C69BC4044EA0C04C1
:1013280040F8264004685F000326BE40F64306EAFC
:10133800040C4C6804F00304BC4044EA0C04046048
:101348004C6804F1FF3CBCF1010F03D9112C01D00A
:10135800122C10D1846806EA040CCC68BC4044EA1C
:101368000C048460446824EA02024C68C4F3001444
:101378009C4014434460C26816408A68BA403243AD
:10138800C2604A6812F0805FABD000220192264A00
:10139800546C44F480445464526C02F480420192C8
:1013A800019A9C08A61C1E4A52F8267003F00302F4
:1013B80096000F22B24027EA02071C4A90423FF4E7
:1013C8005CAF02F5806290421AD002F580629042CA
:1013D80018D002F58062904216D002F580629042E1
:1013E80014D002F58062904212D002F580629042D9
:1013F80010D002F5806290423FF43DAF08223DE7ED
:1014080001223BE7022239E7032237E7042235E7C6
:10141800052233E7062231E702B0F0BC7047704777
:1014280000380140003C0140003802400000024002
:101438000369194201D1002070470120704712B991
:1014480009048161704781617047436931EA030388
:1014580001D08161704709048161704708B5054B67
:101468005B69034200D108BD024B586103F0E4FDFB
:10147800F9E700BF003C014090F83E30DBB2402B5A
:101488000AD00369B3F5804F15D0036D002B36D011
:10149800036D012B3DD07047036D2BB9436C026877
:1014A80003F0FE0313617047436C026843F00103C5
:1014B800DBB21361704790F83D30DBB2212B0FD0BF
:1014C800436C026843F00103DBB21361436B6BB1F9
:1014D800DB6B7BB10268536843F400635360704769
:1014E800436C026803F0FE031361EFE7826B002A86
:1014F800EED1D0E7836BDB6B002BEBD1CBE7436CF2
:10150800C3F3C813026803F0060343F0F003136142
:101518007047436CC3F3C813026803F0060343F033
:10152800F1031361B7E7436C0268DBB21361436BE5
:101538003BB1DB6B4BB10268536843F40063536003
:101548007047826B002AF4D1FAE7836BDB6B002BC0
:10155800F1D1F5E710B48BB090F83E30DAB2C16A39
:10156800046B90F83D30DBB2222B0BD0002309939B
:1015780003685A6909929B690993099B0BB05DF846
:10158800044B7047036D0BB9402A17D0036D1BB984
:101598000369B3F5404F19D0438D9BB2002B25D179
:1015A800029303685A6902929A690292029A1A6827
:1015B80042F400721A6000230365DFE700930368B2
:1015C8005A6900929B690093009BD7E70023019317
:1015D80003685A6901929A690192019A1A6842F459
:1015E80080721A60036D01330365C7E7438D9BB2B0
:1015F800012B25D0438D9BB2022B7BD00268136848
:1016080043F48063136003685A6812F4006F0ED0C5
:1016180011F5803F07D0012905D0082903D01029EA
:1016280001D0202903D15A6842F480525A6000231D
:10163800089303685A6908929B690893089BBAE75C
:1016480011F5803F11D0082934D0202932D0122C2E
:101658002ED0042940D002293ED010293CD002685F
:10166800136823F4806313603BE00268136823F473
:101678008063136003685A6812F4006F0CD01A680C
:1016880022F480621A600023039303685A69039264
:101698009B690393039B8EE7002204925A69049284
:1016A8009A690492049A1A6842F400721A6082E7EE
:1016B8000129CED00268136823F4806313600023E5
:1016C800069303685A6906929A690692069A1A68F6
:1016D80042F400721A606EE70268136843F480638C
:1016E80013600023059303685A6905929B69059363
:1016F800059B60E704290ED002290CD010290AD0D6
:101708000268136823F4806313600268136843F463
:101718000063136004E00268136843F48063136095
:1017280003685A6812F4006F0ED011F5803F07D095
:10173800012905D0082903D0102901D0202903D177
:101748005A6842F480525A600023079303685A6922
:1017580007929B690793079B2DE7438D9BB253B173
:10176800426A036812781A61436A01334362438DFF
:10177800013B9BB243857047438D9BB253B10368CD
:101788001A69436A1A70436A01334362438D013B05
:101798009BB24385704703685A6912F4806F11D071
:1017A8006FF480625A6100230363202280F83D2091
:1017B80080F83E30026C42F00402026480F83C304B
:1017C8000120704700207047C36AB3F52A0F04D080
:1017D800C36AB3F12A4F03D070470123C36270472D
:1017E8000823C362F8E7F8B506460C4617461D46B7
:1017F80022E0FFF7A7FA069BC01AA84200D8DDB975
:1018080000233363202286F83D2086F83E30326C70
:1018180042F02002326486F83C3001201AE0336836
:101828005B6924EA03039BB2B3FA83F35B099F4223
:101838000FD1B5F1FF3FDCD1C4F30743012BEED044
:1018480033689B6924EA03039BB2B3FA83F35B0909
:10185800EDE70020F8BDF8B504460D4616461F46CC
:101868003CE01A6842F400721A6023686FF48062E0
:101878005A6100232363202284F83D2084F83E30F7
:10188800226C42F00402226484F83C30012033E0E8
:10189800FFF758FAC01BB04200D8FEB900232363F3
:1018A800202284F83D2084F83E30226C42F0200249
:1018B800226484F83C3001201EE023685B6925EA35
:1018C80003039BB2003318BF0123A3B123685A69ED
:1018D80012F4806FC5D1B6F1FF3FD9D1C5F30743E4
:1018E800012BEAD023689B6925EA03039BB20033E6
:1018F80018BF0123E9E70020F8BD0000F0B583B068
:1019080004460F4615461E46C36A082B0DD0012B08
:101918000BD013F5803F08D0036B122B0AD1026855
:10192800136843F48073136004E02268136843F477
:101938008073136000962B4600224FF00111204659
:10194800FFF751FF18BB2369B3F5804F0DD123680A
:1019580007F0FE071F6133462A4610492046FFF765
:101968007AFF0346A0B1012312E0FB11226803F0BD
:10197800060343F0F003136133462A46084920461C
:10198800FFF769FF38B92368FFB21F61E3E7012356
:10199800184603B0F0BD0123FAE700BF02000100BA
:1019A800080001002DE9F04184B004460D461646B2
:1019B8001F46C26A01680B6843F480630B60082AFB
:1019C8000DD0012A0BD012F5803F08D0036B112BE4
:1019D8000AD10268136843F48073136004E0226834
:1019E800136843F4807313600097334600224FF066
:1019F80001112046FFF7F7FE002849D12369B3F506
:101A0800804F0FD1236845F00105EDB21D613B46BB
:101A1800324623492046FFF71EFF0346002838D0E8
:101A2800012336E04FEAE51808F00608236848F075
:101A3800F0021A613B4632461A492046FFF70BFF6F
:101A480008B1012325E02368EDB21D613B4632460B
:101A580013492046FFF7FFFE08B1012319E00022D1
:101A68000392236859690391996903910399196845
:101A780041F480711960009733464FF001112046F8
:101A8800FFF7B1FE48B9226848F0F1031361BEE7D9
:101A98000123184604B0BDE8F0810123F9E700BF2F
:101AA800020001000800010070B504460D46164604
:101AB80023685B6913F0800F1CD12046FFF76BFE8B
:101AC800D0B9B5F1FF3FF3D0FFF73CF9801BA8422E
:101AD80001D8002DECD100232363202284F83D2077
:101AE80084F83E30226C42F02002226484F83C30B4
:101AF800012000E0002070BD0120FCE770B504461D
:101B08000D46164623685B6913F0040F1CD1204666
:101B1800FFF741FED0B9B5F1FF3FF3D0FFF712F957
:101B2800801BA84201D8002DECD10023236320227A
:101B380084F83D2084F83E30226C42F02002226472
:101B480084F83C30012000E0002070BD0120FCE753
:101B580070B505460C4616462B685A6912F0400FB8
:101B680029D15A6912F0100F15D1FFF7EBF8801B35
:101B7800A04201D8002CEFD100232B63202285F846
:101B88003D2085F83E302A6C42F020022A6485F810
:101B98003C30012070BD6FF010025A6100232B63A6
:101BA800202285F83D2085F83E302A6C2A6485F885
:101BB8003C300120EEE70020ECE70000002800F0B0
:101BC800BE80F8B5044690F83D30002B6BD0242336
:101BD80084F83D302268136823F00103136001F094
:101BE800DBFE6268584B9A4262D8584B98428CBFC9
:101BF80000230123002B40F0A480554BA3FB0023B6
:101C08009B0C21684A6822F03F021A434A60256803
:101C18002A6A22F03F0266684B498E424ED8013349
:101C280013432B622568E96921F44F4121F0FF0134
:101C38006368454A93424BD801385B00B0FBF3F325
:101C48000133C3F30B03042B38BF04230B43EB61AD
:101C580021680B6823F0C003E269206A024313433A
:101C68000B6021688B6823F4034323F0FF03226988
:101C7800E068024313438B602168CB6823F0FF03BD
:101C88006269A06902431343CB602268136843F07A
:101C98000103136000202064202384F83D30206372
:101CA80084F83E00F8BD80F83C3005F08FFC8EE7E4
:101CB800284B98428CBF002301239BE74FF4967171
:101CC80001FB03F32449A1FB03139B090133A7E795
:101CD800A268BAB9461E03EB4307B6FBF7F601360E
:101CE800C6F30B06B6FA86F6760936BBC2B90138D2
:101CF80003EB4303B0FBF3F30133C3F30B0242F4EA
:101D08000043A3E7461E03EB830707EB8707B6FBF1
:101D1800F7F60136C6F30B06B6FA86F67609E4E757
:101D2800013803EB830303EB8303B0FBF3F20132C7
:101D3800C2F30B0242F4404388E7012386E70120FF
:101D480070470120AEE700BFA08601007F841E0017
:101D580083DE1B43FF083D00D34D62102DE9F0419F
:101D680084B004460E4690461F46FEF7EBFF94F8F3
:101D78003D30DBB2202B04D00226304604B0BDE84B
:101D8800F08105460090192301224F492046FFF7AC
:101D98002AFD002840F0918094F83C30012B00F097
:101DA8008E80012384F83C3023681A6812F0010FF2
:101DB80003D11A6842F001021A602268136823F4FA
:101DC80000631360212384F83D30102384F83E30EB
:101DD80000232364C4F824806785638D23853B4BE7
:101DE800E3622B460A9A31462046FFF787FD0646EE
:101DF800002866D10023039323685A6903929B69DC
:101E08000393039B12E0236C042B01D00126B4E753
:101E18002268136843F4007313600126ADE72A466D
:101E28000A992046FFF76AFE00282CD1238D002B43
:101E380035D02A460A992046FFF736FE0028E2D117
:101E4800626A236812781A61616A4B1C6362638D47
:101E5800013B9BB26385238D013B9BB2238522689E
:101E6800506910F0040FDAD0002BD8D04B781361EA
:101E7800636A01336362638D013B9BB26385238D83
:101E8800013B2385CBE7236C042B01D0012674E7A3
:101E98002268136843F40073136001266DE7226813
:101EA800136843F400731360202384F83D30002343
:101EB80084F83E3084F83C305FE702265DE702266E
:101EC8005BE7012659E700BF020010000000FFFF92
:101ED8002DE9F04186B004460E4690461F46FEF7AF
:101EE80031FF94F83D30DBB2202B04D00226304677
:101EF80006B0BDE8F08105460090192301229E49ED
:101F08002046FFF770FC002840F0348194F83C30FC
:101F1800012B00F03781012384F83C3023681A68CC
:101F280012F0010F03D11A6842F001021A60226808
:101F3800136823F400631360222384F83D301023D0
:101F480084F83E3000232364C4F824806785638DB9
:101F580023858A4BE3622B460C9A31462046FFF7CD
:101F680021FD0646002840F00F81238D5BB90293BE
:101F780023685A6902929A690292029A1A6842F48C
:101F880000721A6077E0012B0FD0022B1FD0226855
:101F9800136843F4806313600023059323685A6928
:101FA80005929B690593059B65E02268136823F4F5
:101FB800806313600023039323685A6903929A6924
:101FC8000392039A1A6842F400721A6053E0226876
:101FD800136823F4806313602268136843F4006372
:101FE80013600023049323685A6904929B6904933D
:101FF800049B40E02A460C992046FFF7A9FD0028DB
:1020080040F0C48023681A69636A1A70636A0133EE
:102018006362238D013B2385638D013B9BB26385FE
:1020280029E000950C9B002255492046FFF7DBFB71
:10203800002840F0AD802268136843F400731360F1
:1020480023681A69636A1A70626A531C6362238D73
:10205800013B2385638D013B9BB2638523681B6924
:102068005370636A01336362238D013B2385638D5B
:10207800013B9BB26385238D002B72D0032B49D87B
:10208800012BB7D0022BCCD000950C9B00223C49E9
:102098002046FFF7A8FB00287CD12268136823F4A8
:1020A8008063136023681A69636A1A70636A01336C
:1020B8006362238D013B2385638D013B9BB263855E
:1020C80000950C9B00222E492046FFF78CFB002828
:1020D80062D12268136843F40073136023681A6995
:1020E800636A1A70626A531C6362238D013B2385FD
:1020F800638D013B9BB2638523681B695370636AD8
:1021080001336362238D013B2385638D013B9BB2C1
:102118006385B0E72A460C992046FFF719FD002889
:102128003CD123681A69636A1A70626A531C636235
:10213800238D013B2385638D013B9BB26385236817
:10214800596911F0040F96D01B695370636A013303
:102158006362238D013B2385638D013B9BB26385BD
:1021680089E7202384F83D30002384F83E3084F842
:102178003C30BCE60226BAE6020010000000FFFF71
:10218800040001000226B2E60126B0E60126AEE60A
:102198000126ACE60126AAE60126A8E60126A6E65F
:1021A80070477047704708B590F83D30DAB2438DF4
:1021B8009BB27BB1416A036809781961436A0133AC
:1021C8004362438D013B9BB24385438D9BB20BB960
:1021D800292A00D008BD0268536823F4806353603D
:1021E80021230363282380F83D30FFF7DBFFF1E765
:1021F800704708B590F83D30DAB2438D9BB27BB199
:1022080003681969436A1970436A01334362438D4D
:10221800013B9BB24385438D9BB20BB92A2A00D060
:1022280008BD0268536823F4806353602223036364
:10223800282380F83D30FFF7DBFFF1E7704708B54A
:1022480090F83D3003F02803282B07D003686FF07F
:1022580002025A61002380F83C3008BD02685368C6
:1022680023F48063536011F0040F0BD0002311F0A6
:10227800800F09D18289002180F83C101946FFF7A8
:10228800DDFFEAE70123F2E7028BF4E7704700007D
:1022980008B590F83D30DBB2C26A082A01D0202A7E
:1022A80001D1282B06D0212B1ED003686FF4806241
:1022B8005A6108BD1A4BC3620268536823F4E0638D
:1022C800536003686FF480625A610268136823F4EC
:1022D8008063136000230363202280F83D2080F888
:1022E8003E30FFF7D3FFE4E70D4BC36221230363BE
:1022F800202380F83D30002380F83E300268536880
:1023080023F4E063536003686FF480625A610268E3
:10231800136823F480631360FFF744FFC9E700BF25
:102328000000FFFF704710B590F83D30DBB290F821
:102338003E20D2B2C46A018D09B9212B04D0212BC9
:102348003BD0402A37D010BD082C04D0202C02D016
:1023580014F5803F19D10268536823F4E063536091
:102368000268136843F40073136000230363202397
:1023780080F83D3090F83E30DBB2402B15D000237A
:1023880080F83E30FFF70CFFDDE70268536823F45E
:10239800E063536011230363002380F83E30202359
:1023A80080F83D30FFF7FCFECDE7002380F83E3093
:1023B800FFF7B8FFC7E7222BC5D1438D9BB283B186
:1023C80090F83E30DBB2402B11D0426A0368127895
:1023D8001A61436A01334362438D013B9BB24385D3
:1023E800B1E70268536823F480635360ABE7036D79
:1023F8009BB9C36C012B08D0836CC3F30723026815
:102408001361036D013303659DE7836C0268DBB2DA
:102418001361036D0233036595E7036D012B18D033
:10242800036D022B8FD190F83D30DBB2222B18D0F0
:1024380090F83D30DBB2212B85D1426A03681278CF
:102448001A61436A01334362438D013B9BB2438562
:1024580079E7836C0268DBB21361036D01330365AE
:1024680071E70268136843F4807313606BE708B57B
:10247800C26A90F83D30DBB2212B00D008BD438DF5
:102488009BB203BB082A04D0202A02D012F5803F51
:1024980025D10268536823F4E06353600268136827
:1024A80043F40073136000230363202380F83D3056
:1024B80090F83E30DBB2402B21D0002380F83E302C
:1024C800FFF76EFEDAE7426A036812781A61436A18
:1024D80001334362438D013B9BB24385CEE70268DB
:1024E800536823F4E063536011230363002380F8E7
:1024F8003E30202380F83D30FFF752FEBEE7002330
:1025080080F83E30FFF70EFFB8E7704708B590F83F
:102518003D30DBB2222B00D008BD438D9BB2032B8C
:1025280014D903681A69436A1A70436A013343620B
:10253800438D013B9BB24385438D9BB2032BEBD16B
:102548000268536823F480635360E5E7C26A022A8D
:10255800E2D0012BE0D80268136823F4806313608B
:102568000268536823F4E063536003681A69436A96
:102578001A70436A01334362438D013B9BB2438522
:10258800202380F83D3090F83E30DBB2402B07D056
:10259800002380F83E3012230363FFF702FEBBE7F7
:1025A800002380F83E300363FFF7AFFFB4E708B5B8
:1025B800C26A438D9BB2042B13D0438D9BB2032B6D
:1025C80020D0438D9BB2022B36D003681A69436A28
:1025D8001A70436A01334362438D013B9BB24385C2
:1025E8000FE00268536823F48063536003681A6934
:1025F800436A1A70436A01334362438D013B9BB2BD
:10260800438508BD01684B6823F480634B60042A46
:1026180006D0022A04D00268136823F4806313608A
:1026280003681A69436A1A70436A01334362438D27
:10263800013B9BB24385E4E7012A0BD0102A09D05D
:10264800042A36D0022A34D00268136843F400738F
:10265800136004E00268136823F48063136003685E
:102668001A69436A1A70426A531C4362438D013BDC
:102678009BB2438503681B695370436A0133436205
:10268800438D013B9BB243850268536823F4407332
:102698005360202380F83D3090F83E30DBB2402B69
:1026A8000DD0002380F83E3012230363FFF779FD35
:1026B800A7E70268136843F480631360CFE7002339
:1026C80080F83E300363FFF720FF9AE770477047B2
:1026D80010B5806B90F83D20416B0023CB63816B74
:1026E800CB630468216821F4806121604385416BD4
:1026F8000B65816B0B6501680B6823F001030B60A8
:1027080090F83D30DBB2602B0DD0D2B202F0280237
:10271800282A12D0202380F83D30002380F83E304C
:10272800FFF7D4FF10BD202380F83D30002380F848
:102738003E300364FFF7CBFFF4E70268136843F009
:10274800010313600268136843F480631360002375
:102758000363282380F83D30E2E7000010B5044603
:1027680090F83D30DBB290F83E20D2B2102A33D038
:1027780003F02802282A37D02268526812F4006F22
:1027880004D1602B02D0202384F83D30002323633A
:1027980084F83E3023685A6812F4006F48D05A68AB
:1027A80022F400625A60626B92F83530DBB2012B7A
:1027B80020D0424B1365606BFEF750FC002849D0CF
:1027C8002268136823F001031360202384F83D3046
:1027D800606B036D98473DE0222BC9D101680A68F8
:1027E80022F400620A60C3E700232363282384F8E5
:1027F8003D30CFE7A36B314A1A65A06BFEF72EFC7C
:1028080040B323685A6912F0400F05D01A69636A09
:102818001A70636A013363622268136823F0010344
:102828001360202384F83D30A06B036D984711E0B6
:1028380094F83D20D2B2602A16D05A6912F0400F9F
:1028480005D01A69636A1A70636A013363622046A5
:10285800FFF73CFF94F83D30DBB2226C12F0040F16
:1028680001D0282B18D010BD202284F83D2000224A
:1028780022645A6912F0400F05D01A69636A1A7007
:10288800636A013363622268136823F001031360EB
:102898002046FFF71CFFDDE72268536823F4E06356
:1028A8005360074BE36200232363202284F83D2012
:1028B80084F83E302046FFF7E9FCD4E7D926000823
:1028C8000000FFFF30B583B0044690F83D50EDB2EC
:1028D8000268536823F4E06353600023019303689C
:1028E8005A6901921A6842F001021A60019B026853
:1028F800136823F48063136003685A6812F4006F46
:1029080038D0222D21D02A2D1FD0426B1268526850
:1029180092B24285428D92B21AB1026C42F0040220
:1029280002645A6822F400625A60606BFEF798FCF1
:1029380001281FD0636B434A1A65606BFEF78EFB54
:10294800C0B1606B036D984714E0A26B12685268BF
:1029580092B26285628D92B21AB1226C42F0040280
:1029680022645A6822F400625A60A06BFEF778FC71
:10297800012840D1638D9BB223B323685A6912F0B2
:10298800040F09D01A69636A1A70636A01336362B3
:10299800638D013B9BB2638523685A6912F0400F2F
:1029A80009D01A69636A1A70636A01336362638DB6
:1029B800013B9BB26385638D9BB21BB1236C43F0D3
:1029C80004032364236C13BB2A2D25D094F83D30CF
:1029D800DBB2282B29D0236B222B01D0222D19D131
:1029E80000232363202284F83D2084F83E302046CB
:1029F800FFF7FEFB0EE0A36B124A1A65A06BFEF709
:102A08002DFB0028B6D0A06B036D9847B2E720468F
:102A1800FFF7A4FE03B030BD00232363282384F806
:102A28003D302046FFF7E4FBD0E7074BE362002385
:102A38002363202284F83D2084F83E302046FFF7A7
:102A480025FCE7E7D92600080000FFFF70B504461B
:102A580002685568C66A90F83E30DBB290F83D10BF
:102A6800102B14D0C8B2402B11D0236C002B71D07E
:102A78005369002113F0020F6FD015F4007F6CD05A
:102A8800236C03B191692046FFF7D9FB70BD9069AB
:102A9800536913F0010105D1B6F52A0FF6D0B6F146
:102AA8002A4FF3D011B115F4007F25D113F0080F88
:102AB80002D015F4007F26D113F0020F02D015F4CE
:102AC800007F24D110F0040F29D0526812F4006F4F
:102AD800DCD113F0800F05D015F4806F02D013F00D
:102AE800040F18D013F0040FD0D015F4007FCDD008
:102AF8002046FFF7BCFCC9E72046FEF765FE2046E6
:102B0800FEF7BAFCC2E72046FEF70DFDBEE72046F9
:102B1800FEF720FDBAE72046FFF705FCB6E7526846
:102B280012F4006FB2D113F0400F05D015F4806F86
:102B380002D013F0040F09D013F0040FA6D015F437
:102B4800007FA3D02046FFF732FD9FE72046FFF71E
:102B5800DDFC9BE7916953698CE713F0100F02D0F5
:102B680015F4007F17D1212819D0292817D013F080
:102B7800400F05D015F4806F02D013F0040F27D052
:102B880013F0040F82D015F4007F3FF47FAF204686
:102B9800FEF7F2FD7AE72046FFF794FE76E713F09A
:102BA800800F05D015F4806F02D013F0040F0BD0FE
:102BB80013F0040F3FF46AAF15F4007F3FF466AFDB
:102BC8002046FEF7CAFD61E72046FFF7ECFA5DE70D
:102BD8002046FFF70EFB59E7F8B5044603685D6920
:102BE8005F6815F4807F07D017F4807F3BD06FF4BF
:102BF80080725A61012600E0002615F4007F08D093
:102C080017F4807F05D046F0020623686FF400723F
:102C18005A6115F4806F18D017F4807F15D094F896
:102C28003E30DBB2628D91B294F83D20D2B2206B77
:102C3800202B1AD023686FF480625A6146F004068C
:102C480094F83E30DBB2102B1DD015F4006F08D07D
:102C580017F4807F05D046F0080623686FF40062F9
:102C68005A61B6B9F8BD0026C7E70029E2D1212A82
:102C780005D0292A03D0282ADCD12128DAD12046F8
:102C8800FFF706FBE1E72268136843F4007313605B
:102C9800DBE7236C1E4326642046FFF75FFDE1E770
:102CA800002800F0BF8070B5044690F84130002B32
:102CB80051D0022284F841202168CB6923F47B6338
:102CC80023F00F03CB6123681A626369934263D0D0
:102CD800E368002B46D11025A368202B00D86D008F
:102CE800012000F013FF2369B3F5007F3CD0B0FB4F
:102CF800F5F000EB800043006269B3FBF2F30533A3
:102D0800494AA2FB0323DB0803F001029B1A5B0874
:102D18001202991EFD2941D821690A4321681343EB
:102D28000B622168CB6923F47B6323F00F0362688D
:102D3800A0680243E0680243A0690243134343F4D6
:102D48000063CB61236A012B2ED00020606401232D
:102D580084F8413070BD80F84030344B436304F050
:102D68007FFCA6E72025B7E7E36853B1AD00B0FBC9
:102D7800F5F000EB800043006269B3FBF2F3053322
:102D8800BEE7ED00B0FBF5F000EB800043006269A0
:102D9800B3FBF2F30533B3E70022BAE7636C43F001
:102DA800100363640120D5E7214B63632268214B3C
:102DB8009A421FD04FF04022D36923F47B6323F05B
:102DC8000F03D36122681B4B9A4215D04FF0402362
:102DD80002221A622268174B9A4210D04FF0402103
:102DE800CA6992B26368B3F5007F0AD0C3B94FF4D9
:102DF800807608E0104ADFE7A3F58063E8E70E492C
:102E0800EEE74FF48076A068E568238B2B439BB2EE
:102E180003439BB23343134343F40063CB6194E70A
:102E28000026F0E701207047CDCCCCCCC32F00089A
:102E3800F5310008003800400034004000295DD01A
:102E480010B5002A5DD090F84030DBB2012B5BD082
:102E5800012380F8403090F84130DBB2012B10D1CB
:102E6800032380F841300023436441620368DB692F
:102E780003F00703032B09D0052B07D002854285F1
:102E880008E0002380F8403002233BE0520092B271
:102E9800028542850446836B1C4A1A64836B1C4A6C
:102EA800DA63836B1B4ADA640268038D0C32416A69
:102EB800806BFEF799F80346A8B92268D16911F426
:102EC800806F03D1D16941F48061D1612268516872
:102ED80011F0020F03D1516841F002015160002244
:102EE80084F840200EE0636C43F008036364012318
:102EF80084F84130002284F8402003E0012318467A
:102F080070470123184610BD0223FBE7232F000852
:102F1800652F000893300008704708B5806BFFF7ED
:102F2800FBFF08BD704708B5426A03681288DA607B
:102F3800436A02334362438D013B9BB24385438D11
:102F48009BB203B108BD0268536823F0A003536025
:102F5800012380F84130FFF7E5FFF3E708B5836BFD
:102F6800C2694AB919684A6822F002024A60002216
:102F78005A85012283F841201846FFF7D3FF08BD80
:102F8800704708B50368DA68C36A1A80C36A0233EF
:102F9800C362438E013B9BB24386438E9BB203B10F
:102FA80008BD0268536823F060035360012380F86A
:102FB8004130FFF7E5FFF3E7704710B584B00446EA
:102FC80002689368039390F84130DBB2042B06D073
:102FD80094F84130DBB2032B2CD004B010BD039B16
:102FE80013F0010F03D0536813F0400F1FD1039B58
:102FF80013F0400FECD023685A6812F0200FE7D086
:103008005A6822F060025A60002301932368DA6844
:1030180001929B680193019B012384F84130636C02
:1030280043F0020363642046FFF7C6FFD0E7FFF7CB
:10303800A8FFDCE7039B13F0020F04D023685B684A
:1030480013F0800F1DD1039B13F0080FC5D0236820
:103058005A6812F0200FC0D05A6822F0A0025A60B5
:103068000023029323689B680293029B012384F840
:103078004130636C43F0040363642046FFF79CFF10
:10308800ABE72046FFF74FFFDDE708B5806B026826
:10309800536823F0030353600023438543860123C9
:1030A80080F84130436C43F008034364FFF784FF22
:1030B80008BD704708B5436A9A1C426202681B88BB
:1030C800D360438D013B9BB24385438D9BB23BB993
:1030D8000268536823F0A0035360438E9BB203B188
:1030E80008BD012380F84130FFF7E3FFF8E700004F
:1030F80008B50268144B9A421BD04FF04023DA6897
:10310800C36A991CC1621A80438E013B9BB24386F5
:10311800438E9BB263B902680B4B9A420CD04FF0B6
:103128004022536823F060035360438D9BB22BB158
:1031380008BDA3F58063E2E7044AF2E7012380F8BB
:103148004130FFF7B6FFF3E7003800400034004095
:1031580008B5436A9A1C42621A880168124B994260
:1031680017D04FF04023DA60438D013B9BB2438573
:10317800438D9BB263B902680B4B9A420CD04FF057
:103188004022536823F0A0035360438E9BB22BB1B7
:1031980008BDA3F58063E6E7044AF2E7012380F857
:1031A8004130FFF786FFF3E7003800400034004065
:1031B80008B50368DA68C36A991CC1621A80438E2D
:1031C800013B9BB24386438E9BB23BB9026853686E
:1031D80023F060035360438D9BB203B108BD012304
:1031E80080F84130FFF765FFF8E7000010B586B0BA
:1031F800044603689A680592704A93426FD04FF06C
:103208004022916804915B68039353680293636852
:10321800B3F5007F01D0002B70D1059B13F0020F8E
:1032280003D0039B13F0800F5CD1049B13F0010FB4
:1032380003D0029B13F0400F58D1049B13F0400FAA
:1032480024D0029B13F0200F20D022685B4B9A42B7
:1032580050D04FF04022536823F060035360226837
:10326800536823F0A0035360002300932368DA68AF
:1032780000929B680093009B012384F84130636CA3
:1032880043F0020363642046FFF796FE059B13F0A4
:10329800080F22D0039B13F0200F1ED0226853681A
:1032A80023F0A00353602268444B9A4224D04FF085
:1032B8004022536823F0600353600023019323687E
:1032C8009B680193019B012384F84130636C43F0B0
:1032D800040363642046FFF76FFE06B010BDA2F535
:1032E80080628EE72046FFF7E5FE9EE72046FFF75F
:1032F800FFFEA2E7324AAEE7314ADAE7049B13F051
:10330800020F03D0029B13F0800F4AD1059B13F0E4
:10331800010F03D0039B13F0400F46D1059B13F018
:10332800400F1CD0039B13F0200F18D0226853685D
:1033380023F0600353602268204B9A4239D04FF043
:103348004022536823F0A0035360012384F84130DE
:10335800636C43F0020363642046FFF72DFE049B71
:1033680013F0080FB9D0029B13F0200FB5D02268D4
:10337800124B9A421FD04FF04022536823F0A0030B
:1033880053602268536823F060035360012384F874
:103398004130636C43F0040363642046FFF70CFE7E
:1033A8009BE72046FFF7D4FEB0E72046FFF700FF73
:1033B800B4E7034AC5E7024ADFE700BF0038004028
:1033C80000340040002800F0BB8170B582B004468C
:1033D800036813F0010F3BD0A74B9B6803F00C0365
:1033E800042B2CD0A44B9B6803F00C03082B21D092
:1033F8006368B3F5803F4FD0B3F5A02F52D09E4BF2
:103408001A6822F480321A601A6822F480221A603C
:103418006368002B50D0FDF795FC0546964B1B685A
:1034280013F4003F14D1FDF78DFC401B6428F5D937
:1034380003208AE1904B5B6813F4800FD8D08E4B41
:103448001B6813F4003F03D06368002B00F07A81F7
:10345800236813F0020F55D0874B9B6813F00C0FAD
:103468003ED0854B9B6803F00C03082B33D0E368F0
:10347800002B68D0814B01221A60FDF763FC0546DA
:103488007D4B1B6813F0020F54D1FDF75BFC401B0A
:103498000228F5D9032058E1774A136843F48033AA
:1034A8001360B5E7744B1A6842F480221A601A68F0
:1034B80042F480321A60ABE7FDF744FC05466E4BD8
:1034C8001B6813F4003FC3D0FDF73CFC401B642885
:1034D800F5D9032039E1684B5B6813F4800FC6D136
:1034E800654B1B6813F0020F04D0E368012B01D071
:1034F80001202AE1604A136823F0F803216943EAAE
:10350800C1031360236813F0080F40D0636963B3E5
:103518005B4B01221A60FDF715FC0546564B5B6FA5
:1035280013F0020F33D1FDF70DFC401B0228F5D92B
:1035380003200AE1504A136823F0F803216943EA9B
:10354800C1031360DEE74D4B00221A60FDF7FAFB5A
:103558000546494B1B6813F0020FD3D0FDF7F2FB69
:10356800401B0228F5D90320EFE0454B00221A60E2
:10357800FDF7E8FB0546404B5B6F13F0020F06D0E2
:10358800FDF7E0FB401B0228F5D90320DDE02368A6
:1035980013F0040F79D0384B1B6C13F0805F33D1D4
:1035A80000230193344B1A6C42F080521A641B6C4E
:1035B80003F080530193019B0125324B1B6813F4E0
:1035C800807F23D0A368012B34D0052B38D02A4B19
:1035D8001A6F22F001021A671A6F22F004021A67A2
:1035E800A368002B36D0FDF7ADFB0646224B1B6FB8
:1035F80013F0020F48D1FDF7A5FB801B41F2883379
:103608009842F3D90320A0E00025D6E71D4A1368A5
:1036180043F480731360FDF795FB0646194B1B684E
:1036280013F4807FCED1FDF78DFB801B0228F5D9DE
:1036380003208AE0104A136F43F001031367CFE7B2
:103648000D4B1A6F42F004021A671A6F42F001021A
:103658001A67C5E7FDF776FB0646074B1B6F13F0A5
:10366800020F11D0FDF76EFB801B41F288339842A0
:10367800F3D9032069E000BF003802400000474248
:10368800800E474200700040E5B9A369002B5BD06B
:10369800304A926802F00C02082A58D0022B17D040
:1036A8002D4B00221A60FDF74DFB0446294B1B6881
:1036B80013F0007F42D0FDF745FB001B0228F5D927
:1036C800032042E0234A136C23F080531364DCE7A1
:1036D800214B00221A60FDF735FB05461D4B1B6880
:1036E80013F0007F06D0FDF72DFB401B0228F5D90B
:1036F80003202AE0E369226A1343626A43EA8213D9
:10370800A26A5208013A43EA0243E26A43EA0263C0
:10371800104A5360104B01221A60FDF713FB044650
:103728000C4B1B6813F0007F06D1FDF70BFB001B49
:103738000228F5D9032008E0002006E0002004E074
:1037480001207047012000E0002002B070BD012078
:10375800FBE700BF0038024060004742324B9B68DD
:1037680003F00C03042B5CD0082B01D02F487047C2
:103778002DE9F04B2C4B5A6802F03F025B6813F4BA
:10378800800F2BD0284B5B68C3F388131E46002795
:103798005C010025E41A65EB0705A90141EA94617B
:1037A800A001001B61EB0501CB0043EA5073C40084
:1037B800A01943EB07014B0243EAD05344022046C9
:1037C80019460023FDF7EAF8174B5B68C3F301437A
:1037D80001335B00B0FBF3F0BDE8F08B124B5B6884
:1037E800C3F388131E4600275C010025E41A65EB25
:1037F8000705A90141EA9461A001001B61EB0501DD
:10380800CB0043EA5073C400A01943EB07018B02B5
:1038180043EA90538402204619460023FDF7BEF878
:10382800D2E70348704700BF003802400024F40084
:1038380000127A00002800F09D8070B504464F4BB6
:103848001B6803F00F038B4209D2CBB24B4A1370AB
:10385800136803F00F038B4201D0012070BD236869
:1038680013F0020F17D013F0040F04D0444A9368E2
:1038780043F4E0539360236813F0080F04D0404AE0
:10388800936843F4604393603D4A936823F0F003E0
:10389800A068034393600D46236813F0010F32D0EC
:1038A8006368012B21D09A1E012A25D9344A12684F
:1038B80012F0020F60D032498A6822F003021343E3
:1038C8008B60FDF73FFA06462D4B9B6803F00C030F
:1038D8006268B3EB820F16D0FDF734FA801B41F211
:1038E80088339842F0D90320B8E7254A126812F4C1
:1038F800003FE0D10120B1E7214A126812F0007FB1
:10390800D9D10120AAE71D4B1B6803F00F03AB4276
:1039180009D9EAB2194B1A701B6803F00F03AB42BE
:1039280001D001209AE7236813F0040F06D0144A47
:10393800936823F4E053E1680B439360236813F022
:10394800080F07D00E4A936823F46043216943EABD
:10395800C1039360FFF702FF094B9B68C3F303138E
:10396800084AD35CD840084B18600020FDF7A0F93E
:10397800002073E70120704701206FE7003C0240F8
:10398800003802404087000814000020014B1868E6
:10399800704700BF1400002008B5FFF7F7FF044B7D
:1039A8009B68C3F38223034AD35CD84008BD00BF99
:1039B800003802405087000830B583B004460368D9
:1039C80013F0050F06D1236813F0020F2ED1002043
:1039D80003B030BD494B00221A60FDF7B3F9054624
:1039E800474B1B6813F0006F06D0FDF7ABF9401B7F
:1039F8000228F5D90320EBE76268A3681B0743EAAE
:103A080082133F4AC2F884303C4B01221A60FDF70A
:103A180099F905463A4B1B6813F0006FD3D1FDF7AF
:103A280091F9401B0228F5D90320D1E7002301931F
:103A3800334B1A6C42F080521A641B6C03F08053AB
:103A48000193019B2F4A136843F480731360FDF7B9
:103A580079F905462B4B1B6813F4807F06D1FDF7D7
:103A680071F9401B0228F5D90320B1E7244B1B6FDD
:103A780013F4407312D0E26802F440729A420DD0F7
:103A88001F4B1A6F22F440721F4901200860002062
:103A980008601A671B6F13F0010F13D1E36803F472
:103AA8004072B2F5407F1ED0154A936823F4F8138C
:103AB800936013490B6FE268C2F30B0213430B6761
:103AC800002085E7FDF73EF905460D4B1B6F13F007
:103AD800020FE3D1FDF736F9401B41F288339842D3
:103AE800F3D9032074E706498A6822F4F81223F010
:103AF800704323F4407313438B60DAE7680047424E
:103B08000038024000700040400E474201282AD188
:103B1800174B9B6813F4000303D0012B25D11548DC
:103B28007047134B5B6813F4800F14D0104B5B681D
:103B380003F03F031048B0FBF3F00D4AD2F884308D
:103B4800C3F3881300FB03F0D2F88430C3F3027385
:103B5800B0FBF3F07047064B5B6803F03F03074880
:103B6800B0FBF3F0E9E7002070470020704700BF82
:103B7800003802400080BB0000127A000024F400E4
:103B8800F8B505460F4616461C462B689B6837EA6B
:103B980003030CBF01230023B34237D0B4F1FF3F26
:103BA800F3D0FDF7CFF8069BC01AA04201D2002C33
:103BB800EBD12A68536823F0E00353606B68B3F5D0
:103BC800827F0BD0AB6AB3F5005F14D0012385F870
:103BD8005130002385F85030032018E0AB68B3F566
:103BE800004F02D0B3F5806FECD12A68136823F038
:103BF80040031360E6E72A68136823F40053136050
:103C08002A68136843F400531360DFE70020F8BD07
:103C180030B585B0164C2468164DA5FB0434640DE8
:103C28004FF47A7505FB04F403944468B4F5827F75
:103C38000BD0039BC3B1039B013B039303689B68B1
:103C480013F0800FF5D100230FE00B4604460092D5
:103C580000228021FFF794FF034630B1636D43F0E3
:103C680020036365032300E00023184605B030BD38
:103C780014000020819F5E1600283BD010B5044632
:103C88000023836290F85130002B2ED0022384F851
:103C980051302268136823F0400313606368A268F8
:103CA8001343E26813432269134362691343A26909
:103CB80002F400721343E2691343226A1343A16AB0
:103CC80022680B431360638B03F00403616A226864
:103CD8000B4353602268D36923F40063D361002047
:103CE8006065012384F8513010BD80F8503003F02E
:103CF8002BFDCBE7012070472DE9F04182B090F809
:103D08005040012C00F0C3801D46174688460446E3
:103D1800012380F85030FDF715F8064694F8513025
:103D2800DBB2012B09D00220012384F85130002393
:103D380084F8503002B0BDE8F081B8F1000F00F00F
:103D48009880002F00F09780032384F851300023D7
:103D58006365C4F83080A786E786A363A387E387F3
:103D680063642364A368B3F5004F1CD023681A6802
:103D780012F0400F03D11A6842F040021A60E3685B
:103D8800B3F5006F15D063680BB1012F49D1226BD1
:103D9800236812781A73236B01332363E38E013B84
:103DA8009BB2E3863DE02268136843F480431360C6
:103DB800DCE763680BB1012F15D1226B23681288E9
:103DC800DA60236B02332363E38E013B9BB2E38605
:103DD80009E0FCF7B7FF801BA84202D3B5F1FF3F0B
:103DE8004BD1002D4BD0E38E9BB2002B2CD02368F7
:103DF8009A6812F0020FECD0226B1288DA60236BFB
:103E080002332363E38E013B9BB2E386EBE7FCF7C7
:103E180099FF801BA84202D3B5F1FF3F31D1002D95
:103E280031D0E38E9BB27BB123689A6812F0020FFF
:103E3800EDD0226B12781A73236B01332363E38E60
:103E4800013B9BB2E386ECE7324629462046FFF762
:103E5800DFFE08B120236365A36833B901932368A3
:103E6800DA6801929B680193019B636D6BB900202E
:103E78005AE7012058E7012056E7032054E70320BA
:103E880052E7032050E703204EE701204CE70220C9
:103E980050E72DE9F04383B0DDF8288090F85040D2
:103EA800012C00F00B811D4617460E4604460123DF
:103EB80080F85030FCF746FF814694F85100C0B2B4
:103EC8006368012815D0B3F5827F0AD00223012246
:103ED80084F85120002284F85020184603B0BDE829
:103EE800F083A368002B40F0DB80042801D0022374
:103EF800EDE7002E00F0D680002F00F0D580002DD1
:103F080000F0D48094F85130DBB2042B02D00523A2
:103F180084F8513000236365A763E587A587266386
:103F2800E586A5862364636423681A6812F0400F47
:103F380003D11A6842F040021A60E368B3F5006FD3
:103F480010D063680BB1012D0AD1226B2368127857
:103F58001A73236B01332363E38E013B9BB2E38621
:103F6800012569E063680BB1012D0AD1226B236832
:103F78001288DA60236B02332363E38E013B9BB222
:103F8800E38601251BE023689A6812F0010F0DD023
:103F9800E28F92B252B1DA68A36B1A80A36B023334
:103FA800A363E38F013B9BB2E3870125FCF7CAFEBD
:103FB800A0EB0900404502D3B8F1FF3F78D1E38E6A
:103FC8009BB21BB9E38F9BB2002B52D023689A682F
:103FD80012F0020FD7D0E28E92B2002AD3D0002D71
:103FE800D1D0226B1288DA60236B02332363E38E0D
:103FF800013B9BB2E3860025C5E723689A6812F067
:10400800010F0DD0E28F92B252B1DA68A36B1A7029
:10401800A36B0133A363E38F013B9BB2E3870125C5
:10402800FCF790FEA0EB0900404502D3B8F1FF3F32
:1040380040D1B8F1000F3FD0E38E9BB213B9E38FA4
:104048009BB2B3B123689A6812F0020FD5D0E28E02
:1040580092B2002AD1D0002DCFD0226B12781A73D9
:10406800236B01332363E38E013B9BB2E386002578
:10407800C3E74A4641462046FFF7CAFD034618B142
:1040880020236365012322E7A268002A7FF41FAF7B
:1040980001922268D168019192680192019A16E70B
:1040A800022314E7012312E7012310E701230EE797
:1040B80003230CE703230AE7032308E702230CE79B
:1040C80090F85100704710B4036A046A24F00104A0
:1040D8000462846924F0F00444EA021223F00A031B
:1040E8000B43826103625DF8044B704710B4036AA6
:1040F80023F0100303628469036A24F4704444EAD9
:10410800023223F0A00343EA0113826103625DF8DF
:10411800044B7047836823F07003194341F007018B
:10412800816070470268D36843F00103D360026876
:10413800936803F00703062B03D0136843F00103C9
:10414800136000207047704770477047704710B57C
:10415800044603681A6912F0020F11D0DA6812F0E7
:10416800020F0DD06FF002021A6101230377036872
:104178009B6913F0030F70D0FFF7E6FF0023237746
:1041880023681A6912F0040F12D0DA6812F0040FCB
:104198000ED06FF004021A610223237723689B690B
:1041A80013F4407F5FD02046FFF7CEFF002323772C
:1041B80023681A6912F0080F12D0DA6812F0080F93
:1041C8000ED06FF008021A61042323772368DB6995
:1041D80013F0030F4ED02046FFF7B6FF00232377D6
:1041E80023681A6912F0100F12D0DA6812F0100F53
:1041F8000ED06FF010021A61082323772368DB6959
:1042080013F4407F3DD02046FFF79EFF002323771D
:1042180023681A6912F0010F03D0DA6812F0010F4F
:1042280036D123681A6912F0800F03D0DA6812F0C9
:10423800800F34D123681A6912F0400F03D0DA686E
:1042480012F0400F32D123681A6912F0200F03D000
:10425800DA6812F0200F30D110BDFFF774FF204646
:10426800FFF773FF8AE72046FFF76DFF2046FFF749
:104278006CFF9BE72046FFF766FF2046FFF765FFC8
:10428800ACE72046FFF75FFF2046FFF75EFFBDE77C
:104298006FF001021A61204601F090F8C1E76FF053
:1042A80080021A61204600F029F9C3E76FF0400246
:1042B8001A612046FFF74AFFC5E76FF020021A612E
:1042C800204600F01AF9C7E70368304A904212D036
:1042D800B0F1804F0FD0A2F57C4290420BD002F58E
:1042E8008062904207D002F58062904203D002F5C6
:1042F8007842904203D123F070034A681343234A5B
:1043080090422AD0B0F1804F27D0A2F57C4290424B
:1043180023D002F5806290421FD002F5806290425D
:104328001BD002F57842904217D002F570529042A5
:1043380013D002F5806290420FD002F5806290425D
:104348000BD0A2F59832904207D002F580629042D5
:1043580003D002F58062904203D123F44073CA6807
:10436800134323F080034A69134303608B68C362D5
:104378000B688362054B984203D003F5806398422B
:1043880001D10B69036301234361704700000140B9
:10439800A8B110B5044690F83D305BB1022384F80B
:1043A8003D30211D2068FFF78FFF012384F83D3041
:1043B800002010BD80F83C3003F0FEF9EEE7012044
:1043C800704710B4846824F47F4442EA03230B4303
:1043D800234383605DF8044B704790F83C30012B11
:1043E80066D010B50446012380F83C30022380F8DB
:1043F8003D300268936823F47F4323F0770393608A
:104408000B68402B4AD013D9602B3DD01ED9702B96
:1044180028D0B3F5005F30D1CB684A688968006856
:10442800FFF7CFFF2268936843F48043936024E04A
:10443800102B06D004D9202B03D0302B01D01CE040
:10444800DBB919462068FFF765FE16E0502B14D13A
:10445800CA6849680068FFF736FE50212068FFF7F0
:1044680059FE0AE0CB684A6889680068FFF7A9FF27
:104478002268936843F077039360012384F83D3002
:10448800002084F83C0010BDCA6849680068FFF73E
:104498002DFE60212068FFF73DFEEEE7CA684968F7
:1044A8000068FFF710FE40212068FFF733FEE4E7BD
:1044B8000220704790F83C30012B1CD070B40126C4
:1044C80080F83C60022380F83D30026855689368A4
:1044D80025F070050C682C4323F080054B682B43AE
:1044E80054600268936080F83D60002380F83C3097
:1044F800184670BC7047022070477047704700002C
:1045080010B582B0064C20700B786370642300935A
:10451800022322469421201DFDF720FC02B010BD85
:104528003400002070B582B00E460A4A144604F8DA
:10453800040B64250095012394212046FDF70EFC09
:1045480000950123324694212046FDF7C1FC02B0B4
:1045580070BD00BF3400002084B070B504AC84E89E
:104568000F009DF86460444B002283F840201A68CD
:10457800D36943F48063D361012210213F48FCF7DB
:104588005EFF3F4C542204A9201D04F08FF801233C
:10459800637021460220FFF7B3FF2546AF2305F8D5
:1045A800013F29460420FFF7ABFF802363702946AB
:1045B8000520FFF7A5FF21460620FFF7B3FF637824
:1045C80003F0200343F00703637029460620FFF732
:1045D80097FF29460820FFF7A5FF637803F0F0034B
:1045E80043F00103637029460820FFF789FF294635
:1045F8000920FFF797FF637803F0F00343F0010306
:10460800637029460920FFF77BFF29460E20FFF734
:1046180089FF012E28D016B9194B02225A70184D5D
:104628006C1C21460E20FFF76BFF21460F20FFF779
:1046380079FF00266E7021460F20FFF761FF6E702C
:1046480021461420FFF75CFF21461520FFF758FF8D
:1046580021461A20FFF754FF21461B20FFF750FF81
:10466800BDE8704004B07047637843F0C00303F0BE
:10467800C7036370D3E700BFAC040020000C0240FE
:104688003400002008B5032806D8DFE800F0020F40
:1046980013170C4BF0225A700A494B7843F00F035A
:1046A80001F8013F0420FFF72BFF08BD054BB0229E
:1046B8005A70F1E7034BE0225A70EDE7014BA02254
:1046C8005A70E9E73400002038B50446A0F13203F7
:1046D800DBB25B00114D05F8013F29461420FFF7B6
:1046E8000FFF29461520FFF70BFF642C14D804EBA5
:1046F800440423010A4A82FB03235B09183BDBB20B
:10470800064C04F8013F21462020FFF7F9FE214618
:104718002120FFF7F5FE38BD1823F1E7340000200B
:104728001F85EB5138B5194D2C46992304F8013FE4
:1047380021460020FFF7E4FE80236B7021464720C6
:10474800FFF7DEFE21463220FFF7ECFE6B7863F0C0
:104758007F036B7021463220FFF7D2FE21463220BC
:10476800FFF7E0FE6B7803F07F036B702146322081
:10477800FFF7C6FE002068702146FFF7C1FE9E23A2
:104788006B7021460220FFF7BBFE38BD34000020C5
:10479800014B00221A7070478C000020014B1878DA
:1047A800704700BF8C00002000B583B08DF807006B
:1047B8000748FFF785FC0128FAD141F28833012226
:1047C8000DF107010248FFF797FA03B05DF804FB03
:1047D8004404002000B585B0FF238DF80F30002376
:1047E8008DF80E300A48FFF76BFC0128FAD141F228
:1047F8008833009301230DF10E020DF10F010448D7
:10480800FFF747FB9DF80E0005B05DF804FB00BFFD
:104818004404002010B582B0002404E0FF20FFF714
:10482800C3FF0134E4B2092CF8D940238DF80030D5
:1048380000248DF801408DF802408DF803408DF872
:10484800044095238DF8053007E002AB234413F8A4
:10485800080CFFF7A9FF0134E4B2052CF5D941F69D
:10486800FF7400E0013CFFF7B5FF012801D0002CE0
:10487800F8D1FF20FFF798FF024B01221A7002B00F
:1048880010BD00BF8C00002008B5074B32225A70BB
:10489800FFF7A0FFFFF79EFFFF2803D0024B5B78CE
:1048A800002BF7D108BD00BF8C00002038B50446A6
:1048B8000D46FFF7E9FFFF2801D0FF2038BD20464D
:1048C800FFF772FF280EFFF76FFFC5F30740FFF7EA
:1048D8006BFFC5F30720FFF767FFE8B2FFF764FF38
:1048E800402C11D00020482C10D0FFF75DFF4C2C35
:1048F8000ED00A24FFF76EFF10F0800FDED0631E83
:1049080013F0FF04F6D1D9E79520ECE78720ECE710
:10491800FFF760FFEDE710B50446FFF75BFF207077
:1049280010BD000070B504460E460F4B0A229A705F
:10493800FFF750FFFF2803D10B4B9B78002BF7D1D3
:10494800FE2801D0002070BD651C2046FFF7E3FF5C
:1049580028460234FFF7DFFF023EF5D1FFF73AFFA2
:10496800FFF738FF0120EEE78C00002070B50646FF
:104978000C46FFF789FFFF2801D0002070BD2046B4
:10498800FFF712FFFD2C27D00024354615F8020B3F
:10499800FFF70AFF7078FFF707FF601E2E4610F03A
:1049A800FF04F2D1FFF716FFFFF714FF0025402D93
:1049B80008D8FFF70FFF044600F01F03052B01D0AE
:1049C8000135F4E7FFF706FF0028FBD004F01F00CD
:1049D800052803D00020D1E70024F7E70120CDE720
:1049E800002840F0AA8030B583B00446544B1B78A9
:1049F80013F0020F04D0524B1878C0B203B030BD88
:104A0800FFF708FF00214020FFF750FF0546012867
:104A18000FD04C4BDC70FFF7DDFE002C00F08A80D5
:104A2800474A137803F0FE031370454B1878C0B259
:104A3800E4E7444B64229A704FF4D5714820FFF79D
:104A480035FF012840D1254607E0FFF7C3FE02AB3A
:104A58002B4403F8040C0135EDB2032DF5D99DF86C
:104A68000630012BD5D19DF80730AA2BD1D102E011
:104A7800344B9B7863B100217720FFF717FF01289B
:104A8800F6D84FF080416920FFF710FF0028EFD1DA
:104A98002C4B9B78002BBCD000217A20FFF706FF17
:104AA800054640B1B5E7FFF795FE02AB2B4403F886
:104AB800040C0135EDB2032DF5D99DF8043013F03F
:104AC800400F35D00624A4E700217720FFF7EEFE3B
:104AD800012810D800216920FFF7E8FE01280AD82C
:104AE800022508E000217720FFF7E0FE012818D909
:104AF800144B9B783BB1022DF4D000214120FFF7E5
:104B0800D5FE0028F4D10F4B9B78002B81D04FF4B1
:104B180000715020FFF7CAFE00287FF47AAF2C46B8
:104B280077E700216920FFF7C1FE0028E0D1EAE716
:104B380002246EE7FFF72CFE77E70120704700BFDD
:104B4800080000208C00002018B9034B1878C0B268
:104B580070470120704700BF08000020002839D1A5
:104B680038B50D461C46002B36D01D4B1B7813F06C
:104B7800010F33D11B4BDB7813F0040F00D1520225
:104B8800012C18D011465220FFF790FE68B94FF457
:104B980000712846FFF7C6FE18B105F50075013CFF
:104BA800F5D100214C20FFF781FEFFF713FE201CF2
:104BB80018BF012038BD11465120FFF777FE0028A5
:104BC800F3D14FF400712846FFF7ACFE0028ECD073
:104BD8000024EAE7042070470420EBE70320E9E714
:104BE800080000208C00002000284CD170B50D462C
:104BF80016461C46002B48D0274B1B7813F0010F94
:104C080045D1254B1B7813F0040F42D1234BDB7899
:104C180013F0040F00D15602012C1BD013F0020F21
:104C280026D131465920FFF741FE68B9FC212846B4
:104C3800FFF79CFE18B105F50075013CF6D1FD2182
:104C48000020FFF793FEE0B1FFF7C4FD201C18BF5A
:104C5800012070BD31465820FFF728FE0028F3D107
:104C6800FE212846FFF782FE0028EDD00024EBE75E
:104C780000217720FFF71AFE21465720FFF716FE7E
:104C8800CFE70124E0E7042070470420E1E7032090
:104C9800DFE70220DDE700BF080000208C000020CD
:104CA80070B584B0002840F0CB801446072925D081
:104CB800654B1B7813F0010F40F0C480352900F2D2
:104CC800B580DFE801F07E3575B3B3B3B3B3B3B3E2
:104CD800B3B3B3B3B3B3B3B3B3B3B3B3B3B3B3B39C
:104CE800B3B3B3B3B3B3B3B3B3B3B3B3B3B3B3B38C
:104CF800B3B3B3B3B3B3B3B3B38492A01378012BF4
:104D08000DD01BB1022B0ED0042457E0FFF746FD4F
:104D180008B9002452E0FFF73BFD00244EE0FFF7FE
:104D280079FD00244AE0FFF739FD6070002445E072
:104D380000214920FFF7BAFD08B101243CE0102109
:104D48006846FFF7EFFD002872D09DF800309B09F8
:104D5800012B20D09DF8052002F00F029DF80A30A3
:104D680002EBD3129DF809305B0003F006031A44E6
:104D78009DF808309DF807109B0903EB81039DF807
:104D88000610890201F440610B440133073A93404D
:104D98002360002410E09DF809309DF8082003EBFB
:104DA80002239BB201339BB29B022360002403E0E1
:104DB8004FF4007313800024FFF70CFD204604B065
:104DC80070BDFFF761FDFF2834D00124F4E700210E
:104DD8004920FFF76BFD08B10124EDE710212046BB
:104DE800FFF7A0FD40BB0124E6E700214A20FFF7BA
:104DF8005DFD08B10124DFE710212046FFF792FD91
:104E0800E0B90124D8E700217A20FFF74FFD0546D5
:104E180040B10124D0E7661CFFF7DCFC20700135A7
:104E2800EDB23446032DF6D90024C5E70424C3E7C0
:104E38000124C1E70024BFE70024BDE70024BBE745
:104E48000424BBE70324B9E70800002000487047A2
:104E5800C05CC53630B4B0F5FA6F02D3A0F5FA607D
:104E680080B292B2012306E05C1E0F4D2C5D2244F5
:104E780092B20133DBB28B42F6D3022904D910F087
:104E8800030F01D1013292B200EBC00300EBC30360
:104E980003EB83031A4492B2033002EBA00080B202
:104EA800013880B230BC7047588B000800F00F0200
:104EB800030903EB830358001044C0B27047000095
:104EC800054BA3FB0023DB0803EB83014A00801A90
:104ED80040EA0310C0B27047CDCCCCCC08B5D2B2F2
:104EE800C9B280B2FFF7B6FF0630064B83FB00233A
:104EF8001A18C317C3EBA203C3EBC303C01AC0B28B
:104F080008BD00BF9324499270B582B0234E002398
:104F18003370234C3225009501233246D021204698
:104F2800FCF71CFF009507233246D0212046FCF7EA
:104F3800CFFFB078FFF7BAFF1A4B18707078FFF7F9
:104F4800B5FF194B18703078FFF7B0FF174B187082
:104F5800B079FFF7ABFF0446154B18707079FFF76F
:104F6800A5FF0546134B18703079FFF79FFF0246DF
:104F7800114B1870114BA3FB04135B09642101FB4F
:104F88001343DBB203F5FA630D490B80294620462B
:104F9800FFF7A4FF0B4B187002B070BD9C040020F3
:104FA8003803002038040020390400203A04002087
:104FB800F40200208C030020A40400201F85EB517C
:104FC800F602002040040020F0B585B006460D46E4
:104FD80014461F4600238DF808309DF82C00FFF773
:104FE8006FFF8DF809009DF82800FFF769FF8DF81D
:104FF8000A003846FFF764FF8DF80B003046FFF7CC
:105008005FFF8DF80D002846FFF75AFF8DF80E0058
:1050180004F13000C0B2FFF753FF8DF80F003223C0
:10502800009308230DEB0302D0210248FCF796FEFB
:1050380005B0F0BD3803002010B582B0944B1C6851
:10504800042C15D8DFE814F005003600A600090185
:1050580067018F4B00225A6020218E48FCF7E8F93F
:10506800012807D080218B48FCF7E2F9012814D0E9
:1050780002B010BD864B01229A601A60864B1A78DE
:10508800864B1A60864B1A78864B1A60234600E0D6
:105098000133854A9342FBDDE4E77D4B01229A60A8
:1050A80003221A6002225A6000E001347E4B9C42BF
:1050B800FBDDDDE720217748FCF7BAF9012821D18B
:1050C800784B1B68172B14D00133764A1360754B45
:1050D8001B78764A12887649097876480078764CA3
:1050E800247801946D4C24780094FFF76DFF002319
:1050F80004E06C4B00221A60E9E701336A4A9342E4
:10510800FBDDB5E780216348FCF792F9012820D13F
:10511800644B1B68A3B9634B17221A60614B1B7859
:10512800624A12886249097862480078624C247899
:1051380001945A4C24780094FFF746FF002304E0BA
:10514800013B584A1360E9E70133574A9342FBDDB4
:105158008EE74FF400714F48FCF76AF9012887D1B0
:105168004B4B02221A604F4B1B78504A1288504909
:10517800097850480078504C24780194474C24789A
:105188000094FFF721FF002300E001334B4A9342CC
:10519800FBDD6DE720213F48FCF74AF9012821D1C2
:1051A8003E4B1B683B2B14D001333C4A13603D4BEC
:1051B8001B783E4A12883E4909783E4800783E4CA2
:1051C80024780194354C24780094FFF7FDFE0023E1
:1051D80004E0324B00221A60E9E70133324A934275
:1051E800FBDD45E780212B48FCF722F9012820D177
:1051F8002A4B1B68A3B9294B3B221A60294B1B7801
:105208002A4A12882A4909782A4800782A4C247898
:105218000194224C24780094FFF7D6FE002304E082
:10522800013B1E4A1360E9E701331F4A9342FBDD45
:105238001EE74FF400711748FCF7FAF801287FF4CD
:1052480017AF0023124A136000E00133164A934255
:10525800FBDD0F4B00229A600AE70D4B02225A60D1
:1052680020210C48FCF7E4F801282BD1144B1B68CB
:10527800172B04D00133124A1360002304E0104BAB
:1052880000221A60F9E70133074A9342FBDDEFE693
:105298009000002000000240390400203004002063
:1052A800380400203C0400203F420F00F602002092
:1052B8008C030020A40400203A040020FF117A0087
:1052C800A804002080213748FCF7B2F8012810D143
:1052D800354B1B6823B9344B17221A60002304E0AE
:1052E800013B314A1360F9E70133304A9342FBDD51
:1052F800BEE64FF400712B48FCF79AF801287FF4BA
:10530800B7AE2B4B04221A60002300E00133294A70
:105318009342FBDDACE6264B02225A60202121484D
:10532800FCF786F8012811D1234B1B683B2B04D0CE
:105338000133214A1360002304E01F4B00221A6046
:10534800F9E70133194A9342FBDD91E680211548BC
:10535800FCF76EF8012810D1174B1B6823B9164BC0
:105368003B221A60002304E0013B134A1360F9E76B
:1053780001330E4A9342FBDD7AE64FF40071094887
:10538800FCF756F801287FF473AE0023084A13602F
:1053980000E00133054A9342FBDD054B00229A6089
:1053A80066E600BF00000240A80400203F420F004C
:1053B80090000020FF117A00340400202DE9F0410C
:1053C8000368A94A934205D0A84A934200F0B281E3
:1053D800BDE8F081A64AD3680133D36040F2DC52BD
:1053E800934202DDA24B0022DA60FFF78DFDA04B4D
:1053F8005B6873B3022B56D09E4C00224FF4805149
:105408002046FCF71CF800224FF400512046FCF718
:1054180016F800224FF480412046FCF710F80022CD
:105428004FF400412046FCF70AF80122FF21924878
:10543800FCF705F8914B1B68012BC9D18F4B5B68B2
:10544800013B032BC4D8DFE813F05C007E00D200D8
:105458002701874B9B68012B18D0894B1E78894BF5
:10546800A3FB0612D208D7B202EB82025100761AC9
:10547800F6B2854A1578A3FB0523DB085FFA83F8A3
:1054880003EB83035A00AD1AEDB2B5E7784BDB683E
:10549800B3F5967F03DD794B01221A60DDE7774B80
:1054A80000221A60D9E7724B9B68012B1CD0774BFE
:1054B8001968774B83FB0120CA17C2EBA002D7B249
:1054C80002EB820256008E1BF6B2724A116883FB09
:1054D8000132CB17C3EBA2035FFA83F803EB830314
:1054E8005D004D1BEDB287E7614BDB68B3F5967F36
:1054F80003DD624B01221A60D9E7604B00221A6073
:10550800D5E701224FF480515A48FBF798FF012F45
:105518000DD037B1022F10D0584A53680133536069
:1055280056E700223F215448FBF789FFF4E70022A1
:1055380006215148FBF783FFEEE700225B214E4826
:10554800FBF77DFFE8E701224FF400514948FBF7DC
:1055580076FF092E0BD8DFE806F005141A20262C52
:1055680032383E4400223F214348FBF768FF0022BF
:1055780080214148FBF763FF404A53680133536079
:1055880026E7002206213C48FBF759FFEFE70022F7
:105598005B213948FBF753FFE9E700224F213648E2
:1055A800FBF74DFFE3E7002266213348FBF747FF8F
:1055B800DDE700226D213048FBF741FFD7E70022E5
:1055C8007D212D48FBF73BFFD1E7002207212A4820
:1055D800FBF735FFCBE700227F212748FBF72FFF9A
:1055E800C5E700226F212448FBF729FFBFE7012206
:1055F8004FF480411F48FBF722FFB8F1060F0AD885
:10560800DFE808F0040E141A20262C0000223F219F
:105618001948FBF714FF194A536801335360D7E65A
:10562800002206211448FBF70AFFF4E700225B2159
:105638001148FBF704FFEEE700224F210E48FBF765
:10564800FEFEE8E7002266210B48FBF7F8FEE2E7DA
:1056580000226D210848FBF7F2FEDCE700227D21DD
:105668000548FBF7ECFED6E70004004000080040C0
:105678009000002000040240001002400C000020AE
:1056880038040020CDCCCCCC39040020A80400205C
:10569800676666663404002001224FF400412748FB
:1056A800FBF7CDFE092D0BD8DFE805F0050E141A1F
:1056B80020262C32383E00223F212148FBF7BFFE2E
:1056C800204B01225A6083E6002206211C48FBF782
:1056D800B6FEF5E700225B211948FBF7B0FEEFE7BD
:1056E80000224F211648FBF7AAFEE9E700226621AF
:1056F8001348FBF7A4FEE3E700226D211048FBF7EF
:105708009EFEDDE700227D210D48FBF798FED7E7D6
:10571800002207210A48FBF792FED1E700227F21E9
:105728000748FBF78CFECBE700226F210448FBF704
:1057380086FEC5E701F07CFE4AE600BF0004024091
:10574800001002400C0000204278007840EA022055
:105758007047C278837843EA0222437843EA0223F7
:10576800007840EA032070470170090A41707047C9
:105778000170C1F307234370C1F307438370090E17
:10578800C170704713462AB10A780270013001319E
:10579800013BF9D1704701700130013AFBD17047E4
:1057A80030B4451C037808781B1A013A04D04C1C05
:1057B80028462146002BF4D0184630BC704700E03C
:1057C800013003780BB18B42FAD118467047802814
:1057D80007D99F2807D9DF2807D9FC2807D900202F
:1057E8007047002070470120704700207047012053
:1057F80070473F280BD97E280BD910F0800F02D1B3
:1058080048B100207047FC28FAD8012070470020D2
:105818007047012070470120704702394369023BF5
:105828008B4204D9836A408901FB0030704700200D
:10583800704770B506460D4601F11A00FFF784FF60
:105848003378032B00D070BD044605F11400FFF730
:105858007BFF44EA0040F6E770B506460C4615465D
:1058680091B204F11A00FFF77FFF3378032B00D0C1
:1058780070BD290C04F11400FFF776FFF8E7002348
:105888004B7283698BB370B50022134605E0092C6F
:105898000ED08D186B72013223460A2B0DD8C569BC
:1058A8005C1CEB5C202BF7D0052BF0D1E523EEE751
:1058B8008D182E266E720132EBE70D4604460A4417
:1058C80000235372C369DB7A0B72C0691C30FFF77F
:1058D80040FF2860E0691630FFF736FFE880E0698E
:1058E8001830FFF731FFA88070BD70472DE9F04FE1
:1058F80083B083460091D1F8008000F1200A0B2282
:1059080020215046FFF747FF002635464FF008098B
:105918001AE0013718F807302F2BFAD05C2BF8D093
:105928004744009B1F60002E5AD09BF82030E52B7F
:1059380048D0202C4AD804238BF82B30002016E0BE
:1059480008264FF00B093D466F1C18F80540202C1F
:10595800E6D92F2CDED05C2CDCD02E2C01D0B14522
:1059680008D8B9F10B0F33D02E2CE9D0062003B09C
:10597800BDE8F08F2046FFF72AFF98B1AB1C0193D2
:1059880018F807502846FFF734FF18B309F1FF331A
:10599800B34221D9731C0AF806400AF803500236AC
:1059A800019FD0E721460F48FFF709FFB0B9A4F1DE
:1059B8006103DBB2192B01D8203CE4B20AF8064097
:1059C8000136C0E705238BF82030B2E70023B3E7A0
:1059D8000620CCE70620CAE70620C8E70620C6E767
:1059E8000620C4E75887000810B40468E4B12246CA
:1059F800511C1378202B02D90A463A2BF8D13A2B9E
:105A080004D0002318465DF8044B70472378A3F1AF
:105A18003002D2B2092A0AD802348C420AD1303B69
:105A2800002B0ADC0160EDE74FF0FF33EAE74FF0A7
:105A3800FF33E7E74FF0FF33E4E74FF0FF33E1E7E9
:105A480038B50D46A8B104460368ABB11A78AAB1B7
:105A58008188DA88914203D0092000232B6038BD61
:105A68005878FFF771F810F0010F0AD12368002069
:105A7800F4E709200023F1E70920EFE709200023D4
:105A8800ECE709200023E9E738B5C3780BB9002013
:105A980038BD044600F130050123C26A2946407822
:105AA800FFF7A2F8A0B90023E370E16A236ACB1AD2
:105AB800A26993420ED2A378022B01D00020E7E717
:105AC80001230A4429466078FFF78EF80020DFE7B3
