:020000040800F2
:10000000000002209DAE0008F9AC000805AD000814
:100010000BAD000811AD000817AD0008000000008E
:100020000000000000000000000000001DAD0008FE
:1000300029AD00080000000035AD000841AD000802
:10004000EDAE0008EDAE0008EDAE0008EDAE000824
:10005000EDAE0008EDAE00084DAD00085BAD000848
:1000600069AD0008EDAE0008EDAE0008EDAE000889
:10007000EDAE0008EDAE0008EDAE0008EDAE0008F4
:1000800079AD0008EDAE0008EDAE0008EDAE000859
:10009000EDAE0008EDAE0008EDAE00088DAD000835
:1000A000EDAE0008EDAE0008EDAE0008EDAE0008C4
:1000B000B9AD0008CDAD0008E1AD0008F5AD000810
:1000C00009AE0008EDAE0008EDAE00081DAE000858
:1000D000EDAE0008EDAE0008EDAE0008EDAE000894
:1000E00031AE0008EDAE0008EDAE0008EDAE000840
:1000F000EDAE0008EDAE0008EDAE0008EDAE000874
:10010000EDAE0008EDAE0008EDAE0008EDAE000863
:10011000EDAE0008EDAE0008EDAE0008EDAE000853
:10012000EDAE0008EDAE0008EDAE0008EDAE000843
:10013000EDAE0008EDAE0008EDAE0008EDAE000833
:10014000EDAE0008EDAE0008EDAE0008EDAE000823
:10015000EDAE0008EDAE0008EDAE0008EDAE000813
:10016000EDAE0008EDAE0008EDAE0008EDAE000803
:10017000EDAE0008EDAE0008EDAE00080000000096
:08018000EDAE0008EDAE000831
:1001880010B5054C237833B9044B13B10448AFF3C9
:1001980000800123237010BD18000020000000001B
:1001A800A4AF000808B5034B1BB103490348AFF3DC
:1001B800008008BD000000001C000020A4AF00085B
:1001C80053B94AB9002908BF00281CBF4FF0FF31B6
:1001D8004FF0FF3000F072B9ADF1080C6DE904CEB4
:1001E80000F006F8DDF804E0DDE9022304B070470A
:1001F8002DE9F047089E04468846002B4BD18A42D9
:10020800154667D9B2FA82F24AB1C2F1200701FA5B
:1002180002F320FA07F7954047EA030894404FEAAB
:10022800154E230CB8FBFEF71FFA85FC0EFB17884A
:1002380043EA084307FB0CF1994209D9EB1807F187
:10024800FF3080F01B81994240F21881023F2B4415
:100258005B1AA4B2B3FBFEF00EFB103344EA03446E
:1002680000FB0CFCA44509D92C1900F1FF3380F0E0
:100278000781A44540F2048102382C4440EA074033
:10028800A4EB0C0400271EB1D4400023C6E90043A8
:100298003946BDE8F0878B4209D9002E00F0EB8083
:1002A8000027C6E9000138463946BDE8F087B3FAA9
:1002B80083F7002F47D18B4202D3824200F2FA80A3
:1002C800841A61EB030301209846002EE0D0C6E9AA
:1002D8000048DDE702B9FFDEB2FA82F2002A40F0F8
:1002E8008F80491B4FEA154E1FFA85F80127B1FB8D
:1002F800FEFC230C0EFB1C1143EA014308FB0CF126
:10030800994207D9EB180CF1FF3002D2994200F25A
:10031800CD808446591AA3B2B1FBFEF00EFB10142F
:1003280043EA044408FB00F8A04507D92C1900F15A
:10033800FF3302D2A04500F2B6801846A4EB0804A9
:1003480040EA0C409FE7C7F1200CBB4022FA0CFEA4
:100358004EEA030E01FA07F420FA0CF521FA0CF321
:100368004FEA1E482543B3FBF8F92C0C08FB193358
:100378001FFA8EFA44EA034309FB0AF49C4202FA84
:1003880007F200FA07F10BD91EEB030309F1FF305E
:1003980080F087809C4240F28480A9F1020973446E
:1003A8001B1BADB2B3FBF8F008FB103345EA03445E
:1003B80000FB0AFAA24508D91EEB040400F1FF333A
:1003C8006BD2A24569D90238744440EA0940A0FBBF
:1003D8000289A4EB0A044C45C2464B4654D351D07B
:1003E800002E69D0B1EB0A0564EB030404FA0CFC97
:1003F800FD40FC404CEA0505C6E90054002747E7E4
:10040800C2F1200320FA03F7954001FA02F021FA1D
:1004180003F34FEA154E3843010CB3FBFEF71FFAFE
:1004280085F80EFB173341EA034107FB08F38B42BB
:1004380004FA02F407D9691807F1FF3C2FD28B425E
:100448002DD9023F2944CB1A81B2B3FBFEF00EFB33
:10045800103341EA034100FB08F38B4207D96918BE
:1004680000F1FF3C17D28B4215D902382944C91A2A
:1004780040EA07473BE73746304609E70746E7E6DD
:100488001846FBE64145ABD2B8EB020A69EB0E020F
:1004980001381346A4E76046E9E7184695E767463A
:1004A800D1E781467CE702382C4447E7ACF1020CDF
:1004B8002B442FE7384608E73746E9E6704700BF80
:1004C80080B500AF0E4B1B680D4A43F400731360F0
:1004D8000B4B1B680A4A43F480631360084B1B6884
:1004E800074A43F480731360032000F023F90020C7
:1004F80000F008F80AF026FA0023184680BD00BF6D
:10050800003C024080B582B000AF7860124B1A6898
:10051800124B1B7819464FF47A73B3FBF1F3B2FB15
:10052800F3F3184600F03BF90346002B01D00123F2
:100538000EE07B680F2B0AD8002279684FF0FF3055
:1005480000F003F9064A7B681360002300E00123EA
:1005580018460837BD4680BD14000020040000205E
:100568000000002080B400AF054B1B781A46054BED
:100578001B681344034A136000BFBD4680BC704724
:10058800040000203400002080B400AF024B1B6838
:100598001846BD4680BC70473400002080B485B042
:1005A80000AF78607B6803F00703FB600C4BDB68E7
:1005B800BB60BA684FF6FF031340BB60FB681A02C2
:1005C800BB68134343F0BF6343F40033BB60044A82
:1005D800BB68D36000BF1437BD4680BC704700BFFE
:1005E80000ED00E080B400AF044BDB681B0A03F0A9
:1005F80007031846BD4680BC704700BF00ED00E009
:1006080080B483B000AF0346FB7197F90730002B25
:100618000BDBFB7903F01F02064997F907305B09EA
:10062800012000FA02F241F8232000BF0C37BD4632
:1006380080BC704700E100E080B483B000AF03469F
:100648003960FB7197F90730002B0ADB3B68DAB297
:100658000C4997F907301201D2B20B4483F80023F2
:100668000AE03B68DAB20849FB7903F00F03043B60
:100678001201D2B20B441A7600BF0C37BD4680BCBB
:10068800704700BF00E100E000ED00E080B489B0F1
:1006980000AFF860B9607A60FB6803F00703FB619C
:1006A800FB69C3F10703042B28BF0423BB61FB6963
:1006B8000433062B02D9FB69033B00E000237B616E
:1006C8004FF0FF32BB6902FA03F3DA43BB681A4002
:1006D8007B699A404FF0FF317B6901FA03F3D943F4
:1006E8007B680B40134318462437BD4680BC7047CF
:1006F80080B582B000AF78607B68013BB3F1807F42
:1007080001D301230FE00A4A7B68013B53600F21A4
:100718004FF0FF30FFF790FF054B00229A60044B23
:1007280007221A60002318460837BD4680BD00BF5F
:1007380010E000E080B582B000AF78607868FFF71D
:100748002DFF00BF0837BD4680BD80B586B000AF1D
:100758000346B9607A60FB7300237B61FFF742FFB1
:1007680078617A68B9687869FFF790FF024697F967
:100778000F3011461846FFF75FFF00BF1837BD4618
:1007880080BD80B582B000AF0346FB7197F9073092
:100798001846FFF735FF00BF0837BD4680BD80B556
:1007A80082B000AF78607868FFF7A2FF034618466A
:1007B8000837BD4680BD000080B586B000AF7860C0
:1007C80000237B61FFF7E0FE38617B68002B01D1D5
:1007D800012399E07B68002283F834207B68022299
:1007E80083F835207B681B681A687B681B6822F0D1
:1007F80001021A600FE0FFF7C7FE02463B69D31AF1
:10080800052B08D97B6820225A657B68032283F868
:100818003520032378E07B681B681B6803F001031D
:10082800002BE8D17B681B681B687B617A69384BB1
:1008380013407B617B685A687B689B681A437B68B6
:10084800DB681A437B681B691A437B685B691A4338
:100858007B689B691A437B68DB691A437B681B6A60
:1008680013437A6913437B617B685B6A042B07D166
:100878007B68DA6A7B681B6B13437A6913437B6175
:100888007B681B687A691A607B681B685B697B6197
:100898007B6923F007037B617B685B6A7A69134392
:1008A8007B617B685B6A042B17D17B689B6A7A69DA
:1008B80013437B617B68DB6A002B0ED0786800F0FD
:1008C800A3FA0346002B08D07B6840225A657B6850
:1008D800012283F83520012316E07B681B687A69BA
:1008E8005A61786800F05CFA0346FB607B68DB6D50
:1008F8003F229A40FB689A607B6800225A657B68B1
:10090800012283F83520002318461837BD4680BDDC
:100918003F8010F080B586B000AFF860B9607A60AB
:100928003B600023FB75FB689B6D3B61FB6893F89C
:100938003430012B01D1022348E0FB68012283F8FF
:100948003420FB6893F83530DBB2012B37D1FB68D4
:10095800022283F83520FB6800225A653B687A68D2
:10096800B968F86800F0EFF9FB68DB6D3F229A4040
:100978003B699A60FB681B681A68FB681B6842F051
:1009880016021A60FB681B685A69FB681B6842F00C
:1009980080025A61FB681B6C002B07D0FB681B6840
:1009A8001A68FB681B6842F008021A60FB681B683B
:1009B8001A68FB681B6842F001021A6005E0FB68D0
:1009C800002283F834200223FB75FB7D1846183774
:1009D800BD4680BD80B483B000AF78607B6893F873
:1009E8003530DBB2022B04D07B6880225A650123A4
:1009F8000CE07B68052283F835207B681B681A6841
:100A08007B681B6822F001021A60002318460C3725
:100A1800BD4680BC7047000080B586B000AF7860E6
:100A28000023BB60924B1B68924AA2FB03239B0ADC
:100A38007B617B689B6D3B613B691B68FB607B68E6
:100A4800DB6D08229A40FB681340002B1AD07B68A4
:100A58001B681B6803F00403002B13D07B681B681A
:100A68001A687B681B6822F004021A607B68DB6DD9
:100A780008229A403B699A607B685B6D43F00102EB
:100A88007B685A657B68DB6D01229A40FB681340DE
:100A9800002B12D07B681B685B6903F08003002B76
:100AA8000BD07B68DB6D01229A403B699A607B68BA
:100AB8005B6D43F002027B685A657B68DB6D04223C
:100AC8009A40FB681340002B12D07B681B681B6898
:100AD80003F00203002B0BD07B68DB6D04229A40E5
:100AE8003B699A607B685B6D43F004027B685A65DA
:100AF8007B68DB6D10229A40FB681340002B43D0C3
:100B08007B681B681B6803F00803002B3CD07B68DC
:100B1800DB6D10229A403B699A607B681B681B68F2
:100B280003F48023002B18D07B681B681B6803F430
:100B38000023002B08D17B681B6C002B24D07B681A
:100B48001B6C786898471FE07B689B6C002B1BD058
:100B58007B689B6C7868984716E07B681B681B6805
:100B680003F48073002B07D17B681B681A687B68C5
:100B78001B6822F008021A607B681B6C002B03D0EC
:100B88007B681B6C786898477B68DB6D20229A40ED
:100B9800FB681340002B00F08E807B681B681B6885
:100BA80003F01003002B00F086807B68DB6D2022A9
:100BB8009A403B699A607B6893F83530DBB2052B25
:100BC80036D17B681B681A687B681B6822F016029E
:100BD8001A607B681B685A697B681B6822F0800270
:100BE8005A617B681B6C002B03D17B689B6C002BC4
:100BF80007D07B681B681A687B681B6822F00802AC
:100C08001A607B68DB6D3F229A403B699A607B687B
:100C1800002283F834207B68012283F835207B6822
:100C28001B6D002B7DD07B681B6D7868984778E03A
:100C38007B681B681B6803F48023002B1CD07B682F
:100C48001B681B6803F40023002B08D17B685B6CCE
:100C5800002B30D07B685B6C786898472BE07B680A
:100C6800DB6B002B27D07B68DB6B7868984722E02A
:100C780014000020B5814E1B7B681B681B6803F4B9
:100C88008073002B0FD17B681B681A687B681B6810
:100C980022F010021A607B68002283F834207B68F7
:100CA800012283F835207B68DB6B002B03D07B683F
:100CB800DB6B786898477B685B6D002B32D07B686C
:100CC8005B6D03F00103002B22D07B68052283F8BB
:100CD80035207B681B681A687B681B6822F0010254
:100CE8001A60BB680133BB607A699A4207D37B6894
:100CF8001B681B6803F00103002BF2D100E000BF62
:100D08007B68002283F834207B68012283F8352031
:100D18007B68DB6C002B05D07B68DB6C78689847B8
:100D280000E000BF1837BD4680BD00BF80B483B067
:100D380000AF78607B6893F83530DBB218460C3723
:100D4800BD4680BC704780B485B000AFF860B9601C
:100D58007A603B60FB681B681A68FB681B6822F4B2
:100D680080221A60FB681B683A685A60FB689B68B7
:100D7800402B08D1FB681B687A689A60FB681B687F
:100D8800BA68DA6007E0FB681B68BA689A60FB68B3
:100D98001B687A68DA6000BF1437BD4680BC7047AC
:100DA80080B485B000AF78607B681B68DBB2103B0D
:100DB800134AA2FB03231B09FB60124AFB68134476
:100DC8001B781A467B68DA65FB68032B09D97B68B0
:100DD8001B6823F47F7323F003031A1D7B689A654D
:100DE80007E07B681B6823F47F7323F003037A68AA
:100DF80093657B689B6D18461437BD4680BC704769
:100E0800ABAAAAAAE8AF000880B485B000AF7860A2
:100E18000023FB737B689B6ABB607B689B69002B24
:100E28001FD1BB68032B55D801A252F823F000BF8D
:100E3800490E00085B0E0008490E0008DD0E000888
:100E48007B68DB6A03F08073002B45D00123FB73BA
:100E580042E07B68DB6AB3F1C07F3FD10123FB73BB
:100E68003CE07B689B69B3F5005F21D1BB68032B2D
:100E780036D801A252F823F0910E0008970E000808
:100E8800910E0008A90E00080123FB732FE07B6870
:100E9800DB6A03F08073002B24D00123FB7321E06D
:100EA8007B68DB6AB3F1C07F1ED10123FB731BE0B3
:100EB800BB68022B02D9032B03D018E00123FB7374
:100EC80015E07B68DB6A03F08073002B0ED00123EA
:100ED800FB730BE000BF0AE000BF08E000BF06E0BC
:100EE80000BF04E000BF02E000BF00E000BFFB7BE2
:100EF80018461437BD4680BC704700BF80B489B01F
:100F080000AF7860396000237B6100233B610023D8
:100F1800BB610023FB616BE10122FB6902FA03F369
:100F28007B613B681B687A6913403B613A697B695E
:100F38009A4240F05A813B685B68022B03D03B68B9
:100F48005B68122B23D1FB69DA087B68083253F8F7
:100F58002230BB61FB6903F007039B000F2202FAF2
:100F680003F3DB43BA691340BB613B681A69FB6949
:100F780003F007039B0002FA03F3BA691343BB614A
:100F8800FB69DA087B680832B96943F822107B6884
:100F98001B68BB61FB695B00032202FA03F3DB43B6
:100FA800BA691340BB613B685B6803F00302FB69E5
:100FB8005B0002FA03F3BA691343BB617B68BA6941
:100FC8001A603B685B68012B0BD03B685B68022B9F
:100FD80007D03B685B68112B03D03B685B68122B1A
:100FE80030D17B689B68BB61FB695B00032202FA16
:100FF80003F3DB43BA691340BB613B68DA68FB69FA
:101008005B0002FA03F3BA691343BB617B68BA69F0
:101018009A607B685B68BB610122FB6902FA03F393
:10102800DB43BA691340BB613B685B681B0903F08B
:101038000102FB6902FA03F3BA691343BB617B68D7
:10104800BA695A607B68DB68BB61FB695B00032295
:1010580002FA03F3DB43BA691340BB613B689A6841
:10106800FB695B0002FA03F3BA691343BB617B684F
:10107800BA69DA603B685B6803F08053002B00F0C4
:10108800B4800023FB605F4B5B6C5E4A43F4804393
:1010980053645C4B5B6C03F48043FB60FB685A4A07
:1010A800FB699B08023352F82330BB61FB6903F0EC
:1010B80003039B000F2202FA03F3DB43BA691340D0
:1010C800BB617B68514A93422BD07B68504A93425C
:1010D80025D07B684F4A93421FD07B684E4A934283
:1010E80019D07B684D4A934213D07B684C4A93428F
:1010F8000DD07B684B4A934207D07B684A4A93429B
:1011080001D107230EE008230CE006230AE005239B
:1011180008E0042306E0032304E0022302E001239D
:1011280000E00023FA6902F0030292009340BA69D2
:101138001343BB613449FB699B080233BA6941F820
:1011480023203A4B1B68BB613B69DB43BA691340F8
:10115800BB613B685B6803F48033002B03D0BA693A
:101168003B691343BB61314ABB6913602F4B5B6812
:10117800BB613B69DB43BA691340BB613B685B6891
:1011880003F40033002B03D0BA693B691343BB61F6
:10119800264ABB695360254B9B68BB613B69DB43AF
:1011A800BA691340BB613B685B6803F48013002B8A
:1011B80003D0BA693B691343BB611C4ABB6993609E
:1011C8001A4BDB68BB613B69DB43BA691340BB61FF
:1011D8003B685B6803F40013002B03D0BA693B69D2
:1011E8001343BB61114ABB69D360FB690133FB61DF
:1011F800FB690F2B7FF690AE00BF2437BD4680BC3D
:10120800704700BF0038024000380140000002402B
:101218000004024000080240000C02400010024096
:101228000014024000180240001C0240003C01402B
:1012380080B485B000AF78600B467B807B681A6904
:101248007B881340002B02D00123FB7301E00023AD
:10125800FB73FB7B18461437BD4680BC704780B4CF
:1012680083B000AF78600B467B8013467B707B7839
:10127800002B03D07A887B689A6103E07B881A0484
:101288007B689A6100BF0C37BD4680BC7047000080
:1012980080B582B000AF0346FB80084B5A69FB88D3
:1012A8001340002B06D0054AFB885361FB8818467B
:1012B80005F03AFF00BF0837BD4680BD003C01403D
:1012C80080B584B000AF78607B68002B01D1012322
:1012D8000FE17B6893F83D30DBB2002B06D17B68C9
:1012E800002283F83C20786809F052FB7B682422AE
:1012F80083F83D207B681B681A687B681B6822F0AE
:1013080001021A6003F09AFCF8607B685B687B4A0C
:10131800934207D8FB687A4A934294BF012300237B
:10132800DBB206E0FB68774A934294BF01230023AF
:10133800DBB2002B01D00123DBE0FB68724AA2FB81
:1013480003239B0CBB607B681B685B6823F03F0131
:101358007B681B68BA680A435A607B681B681B6A0B
:1013680023F03F017B685B68644A934202D8BB68FC
:10137800013309E0BB684FF4967202FB03F3634A3A
:10138800A2FB03239B0901337A6812680B4313629B
:101398007B681B68DB6923F44F4222F0FF027B68FD
:1013A8005B6856498B420DD8FB68591E7B685B68A1
:1013B8005B00B1FBF3F30133C3F30B03042B38BF1A
:1013C80004234FE07B689B68002B11D1FB68581EF3
:1013D8007B6859680B465B000B44B0FBF3F30133A1
:1013E800C3F30B03002B0CBF01230023DBB212E075
:1013F800FB68581E7B6859680B469B000B44990094
:101408000B44B0FBF3F30133C3F30B03002B0CBF06
:1014180001230023DBB2002B01D0012322E07B68EB
:101428009B68002B0ED1FB68581E7B6859680B46D9
:101438005B000B44B0FBF3F30133C3F30B0343F43A
:1014480000430FE0FB68581E7B6859680B469B00F9
:101458000B4499000B44B0FBF3F30133C3F30B03C4
:1014680043F44043796809681343CB617B681B6880
:101478001B6823F0C0017B68DA697B681B6A1A4322
:101488007B681B680A431A607B681B689B6823F4A7
:10149800034323F0FF037A6811697A68D26811431D
:1014A8007A6812680B4393607B681B68DB6823F0DB
:1014B800FF017B685A697B689B691A437B681B68D4
:1014C8000A43DA607B681B681A687B681B6842F00D
:1014D80001021A607B6800221A647B68202283F864
:1014E8003D207B6800221A637B68002283F83E2037
:1014F800002318461037BD4680BD00BFA0860100F6
:101508007F841E00FF083D0083DE1B43D34D62101D
:1015180080B588B002AFF8607A601A460B467B81C6
:1015280013463B81FFF730F87861FB6893F83D304C
:10153800DBB2202B40F0E0807B6900931923012265
:101548007049F86801F0DDFF0346002B01D0022343
:10155800D3E0FB6893F83C30012B01D10223CCE0A7
:10156800FB68012283F83C20FB681B681B6803F0BA
:101578000103012B07D0FB681B681A68FB681B680E
:1015880042F001021A60FB681B681A68FB681B6856
:1015980022F400621A60FB68212283F83D20FB6870
:1015A800102283F83E20FB6800221A64FB687A68E0
:1015B8005A62FB683A895A85FB685B8D9AB2FB6868
:1015C8001A85FB68504ADA6279897B693A6AF86851
:1015D80001F0FCFD0346002B01D001238DE0002320
:1015E8003B61FB681B685B693B61FB681B689B6927
:1015F8003B613B6966E07A69396AF86802F057F836
:101608000346002B0DD0FB681B6C042B07D1FB682D
:101618001B681A68FB681B6842F400721A60012391
:101628006BE0FB685B6A1A78FB681B681A61FB68E9
:101638005B6A5A1CFB685A62FB685B8D9BB2013B74
:101648009AB2FB685A85FB681B8D013B9AB2FB680E
:101658001A85FB681B685B6903F00403042B1BD124
:10166800FB681B8D002B17D0FB685B6A1A78FB6838
:101678001B681A61FB685B6A5A1CFB685A62FB6844
:101688005B8D9BB2013B9AB2FB685A85FB681B8D48
:10169800013B9AB2FB681A857A69396AF86802F0E0
:1016A80047F80346002B0DD0FB681B6C042B07D1B1
:1016B800FB681B681A68FB681B6842F400721A60B2
:1016C80001231AE0FB681B8D002B94D1FB681B6873
:1016D8001A68FB681B6842F400721A60FB682022D3
:1016E80083F83D20FB68002283F83E20FB68002237
:1016F80083F83C20002300E0022318461837BD4633
:1017080080BD00BF020010000000FFFF80B58CB054
:1017180002AFF8607A601A460B467B8113463B811C
:10172800FEF732FF7862FB6893F83D30DBB2202B7E
:1017380040F00B827B6A0093192301227C49F868E8
:1017480001F0DFFE0346002B01D00223FEE1FB6817
:1017580093F83C30012B01D10223F7E1FB68012209
:1017680083F83C20FB681B681B6803F00103012B0E
:1017780007D0FB681B681A68FB681B6842F0010207
:101788001A60FB681B681A68FB681B6822F4006211
:101798001A60FB68222283F83D20FB68102283F838
:1017A8003E20FB6800221A64FB687A685A62FB686C
:1017B8003A895A85FB685B8D9AB2FB681A85FB6883
:1017C8005C4ADA6279897B6A3A6BF86801F074FDE1
:1017D8000346002B01D00123B8E1FB681B8D002BC9
:1017E80013D100233B62FB681B685B693B62FB68A3
:1017F8001B689B693B623B6AFB681B681A68FB684D
:101808001B6842F400721A608CE1FB681B8D012B87
:101818001BD1FB681B681A68FB681B6822F480628E
:101828001A600023FB61FB681B685B69FB61FB684E
:101838001B689B69FB61FB69FB681B681A68FB688E
:101848001B6842F400721A606CE1FB681B8D022B66
:101858001BD1FB681B681A68FB681B6822F480624E
:101868001A60FB681B681A68FB681B6842F4006210
:101878001A600023BB61FB681B685B69BB61FB687E
:101888001B689B69BB61BB694CE1FB681B681A68F4
:10189800FB681B6842F480621A6000237B61FB6866
:1018A8001B685B697B61FB681B689B697B617B6963
:1018B80038E1FB681B8D032B00F2F180FB681B8D60
:1018C800012B23D17A6A396BF86801F072FF03465D
:1018D800002B01D0012339E1FB681B681A69FB68FA
:1018E8005B6AD2B21A70FB685B6A5A1CFB685A6260
:1018F800FB681B8D013B9AB2FB681A85FB685B8D00
:101908009BB2013B9AB2FB685A850BE1FB681B8DC1
:10191800022B4ED17B6A00933B6B00220649F86884
:1019280001F0EFFD0346002B08D001230EE100BFB4
:10193800020010000000FFFF04000100FB681B68A4
:101948001A68FB681B6842F400721A60FB681B681F
:101958001A69FB685B6AD2B21A70FB685B6A5A1C28
:10196800FB685A62FB681B8D013B9AB2FB681A85BB
:10197800FB685B8D9BB2013B9AB2FB685A85FB689A
:101988001B681A69FB685B6AD2B21A70FB685B6AEB
:101998005A1CFB685A62FB681B8D013B9AB2FB68B4
:1019A8001A85FB685B8D9BB2013B9AB2FB685A852E
:1019B800B8E07B6A00933B6B00226649F86801F047
:1019C800A0FD0346002B01D00123BFE0FB681B6884
:1019D8001A68FB681B6822F480621A60FB681B683F
:1019E8001A69FB685B6AD2B21A70FB685B6A5A1C98
:1019F800FB685A62FB681B8D013B9AB2FB681A852B
:101A0800FB685B8D9BB2013B9AB2FB685A857B6A87
:101A180000933B6B00224F49F86801F072FD0346C2
:101A2800002B01D0012391E0FB681B681A68FB6852
:101A38001B6842F400721A60FB681B681A69FB682D
:101A48005B6AD2B21A70FB685B6A5A1CFB685A62FE
:101A5800FB681B8D013B9AB2FB681A85FB685B8D9E
:101A68009BB2013B9AB2FB685A85FB681B681A69EE
:101A7800FB685B6AD2B21A70FB685B6A5A1CFB6827
:101A88005A62FB681B8D013B9AB2FB681A85FB689A
:101A98005B8D9BB2013B9AB2FB685A8542E07A6A39
:101AA800396BF86801F085FE0346002B01D001234D
:101AB8004CE0FB681B681A69FB685B6AD2B21A7053
:101AC800FB685B6A5A1CFB685A62FB681B8D013B0A
:101AD8009AB2FB681A85FB685B8D9BB2013B9AB290
:101AE800FB685A85FB681B685B6903F00403042BD9
:101AF80018D1FB681B681A69FB685B6AD2B21A7056
:101B0800FB685B6A5A1CFB685A62FB681B8D013BC9
:101B18009AB2FB681A85FB685B8D9BB2013B9AB24F
:101B2800FB685A85FB681B8D002B7FF4C2AEFB68EF
:101B3800202283F83D20FB68002283F83E20FB68C2
:101B4800002283F83C20002300E0022318462837AF
:101B5800BD4680BD0400010080B588B000AF786044
:101B68000023BB617B681B685B687B617B68DB6A01
:101B78003B617B6893F83E30FB737B6893F83D309C
:101B8800BB73FB7B102B03D0FB7B402B40F0B68054
:101B98007B681B689B69BB617B681B685B69FB6131
:101BA800FB6903F00103002B0DD13B69B3F52A0F44
:101BB80003D03B69B3F12A4F01D1012300E0002390
:101BC800012B00F02781FB6903F00103002B0CD0E7
:101BD8007B695B0A03F00103002B06D0786801F0EB
:101BE8006CFE786800F0FBFC87E0FB69DB0803F01B
:101BF8000103002B09D07B695B0A03F00103002B6A
:101C080003D0786800F070FD77E0FB695B0803F0AB
:101C18000103002B09D07B695B0A03F00103002B49
:101C280003D0786800F089FD67E0BB699B0803F082
:101C38000103002B30D07B681B685B6803F40063EA
:101C4800B3F5006F00F0E880FB69DB0903F00103DE
:101C5800002B0FD07B699B0A03F00103002B09D0EE
:101C6800FB699B0803F00103002B03D1786800F09F
:101C7800DCF942E0FB699B0803F00103002B00F04C
:101C8800CB807B695B0A03F00103002B00F0C48062
:101C9800786800F0C2FABFE07B681B685B6803F4F1
:101CA8000063B3F5006F00F0B780FB699B0903F090
:101CB8000103002B0FD07B699B0A03F00103002B63
:101CC80009D0FB699B0803F00103002B03D1786856
:101CD80000F019FB11E0FB699B0803F00103002BDE
:101CE80000F09A807B695B0A03F00103002B00F087
:101CF8009380786800F089FB8EE08DE07B681B6C30
:101D0800002B04D07B681B685B69FB6107E07B687C
:101D18001B689B69BB617B681B685B69FB61FB692E
:101D28005B0803F00103002B12D07B695B0A03F008
:101D38000103002B0CD07B681B6C002B03D07B6845
:101D48001B689B69BB61B969786800F042FF66E06F
:101D5800FB691B0903F00103002B09D07B695B0AAF
:101D680003F00103002B03D0786800F077FF56E0FA
:101D7800BB7B212B02D0BB7B292B25D1FB69DB093F
:101D880003F00103002B0FD07B699B0A03F00103CA
:101D9800002B09D0FB699B0803F00103002B03D13A
:101DA800786800F05AFE39E0FB699B0803F00103EC
:101DB800002B33D07B695B0A03F00103002B2DD085
:101DC800786800F087FE29E0FB699B0903F00103AE
:101DD800002B0FD07B699B0A03F00103002B09D06D
:101DE800FB699B0803F00103002B03D1786800F01E
:101DF80091FE14E0FB699B0803F00103002B0ED051
:101E08007B695B0A03F00103002B08D0786800F0B7
:101E1800BFFE04E000BF02E000BF00E000BF2037C3
:101E2800BD4680BD80B58AB000AF78607B681B680E
:101E38005B693B627B681B685B68FB6100237B62B4
:101E48003B6A1B0A03F00103002B0ED0FB691B0A37
:101E580003F00103002B08D07B6A43F001037B6287
:101E68007B681B686FF480725A613B6A5B0A03F0F7
:101E78000103002B0ED0FB691B0A03F00103002BA2
:101E880008D07B6A43F002037B627B681B686FF4AF
:101E980000725A613B6A9B0A03F00103002B41D090
:101EA800FB691B0A03F00103002B3BD07B6893F806
:101EB8003E30FB767B685B8D9BB27B617B6893F8D9
:101EC8003D30FB747B681B6BFB60FB7E202B12D1C3
:101ED8007B69002B0FD1FB7C212B08D0FB7C292BA5
:101EE80005D0FB7C282B06D1FB68212B03D1786811
:101EF80000F0E4FF16E07B681B686FF480625A61AB
:101F08007B6A43F004037B627B6893F83E30DBB264
:101F1800102B07D17B681B681A687B681B6842F422
:101F280000721A603B6ADB0A03F00103002B0ED033
:101F3800FB691B0A03F00103002B08D07B6A43F0FE
:101F480008037B627B681B686FF400625A617B6AD6
:101F5800002B08D07B681A6C7B6A1A437B681A646A
:101F6800786801F01BF800BF2837BD4680BD80B4F3
:101F780083B000AF786000BF0C37BD4680BC7047A7
:101F880080B483B000AF786000BF0C37BD4680BC1A
:101F9800704780B483B000AF786000BF0C37BD468F
:101FA80080BC704780B483B000AF786000BF0C3746
:101FB800BD4680BC704780B483B000AF78600B46E4
:101FC800FB7013463B8000BF0C37BD4680BC704792
:101FD80080B483B000AF786000BF0C37BD4680BCCA
:101FE800704780B483B000AF786000BF0C37BD463F
:101FF80080BC704780B483B000AF786000BF0C37F6
:10200800BD4680BC704780B483B000AF786000BF25
:102018000C37BD4680BC704780B483B000AF786091
:1020280000BF0C37BD4680BC704780B584B000AF98
:1020380078607B6893F83D30FB737B6893F83E309B
:10204800BB737B68DB6ABB607B681B8D002B50D140
:10205800FB7B212B4DD1BB68082B1DD0BB68202BE7
:102068001AD0BB6813F5803F16D07B681B685A6886
:102078007B681B6822F4E0625A607B6811221A634D
:102088007B68002283F83E207B68202283F83D206D
:102098007868FFF76CFFBCE07B681B685A687B6850
:1020A8001B6822F4E0625A607B681B681A687B68C8
:1020B8001B6842F400721A607B6800221A637B680E
:1020C800202283F83D207B6893F83E30DBB2402B1A
:1020D80007D17B68002283F83E207868FFF781FFEC
:1020E80097E07B68002283F83E207868FFF73FFF7F
:1020F8008FE0FB7B212B07D0BB7B402B40F08980F6
:10210800FB7B222B40F085807B685B8D9BB2002B8C
:1021180008D17B681B685A687B681B6822F4806258
:102128005A6076E07B6893F83E30DBB2402B5DD195
:102138007B681B6D002B1DD17B68DB6C012B0BD1E1
:102148007B689B6CDAB27B681B681A617B681B6DC5
:102158009A1C7B681A655CE07B689B6C9BB21B12BF
:10216800DAB27B681B681A617B681B6D5A1C7B6836
:102178001A654EE07B681B6D012B0BD17B689B6C4D
:10218800DAB27B681B681A617B681B6D5A1C7B6816
:102198001A653EE07B681B6D022B3AD17B6893F889
:1021A8003D30DBB2222B08D17B681B681A687B683C
:1021B8001B6842F480721A602BE07B6893F83D300C
:1021C800DBB2212B25D17B685B6A1A787B681B6898
:1021D8001A617B685B6A5A1C7B685A627B685B8DF4
:1021E8009BB2013B9AB27B685A8512E07B685B6AB6
:1021F8001A787B681B681A617B685B6A5A1C7B6863
:102208005A627B685B8D9BB2013B9AB27B685A85A8
:10221800FFE700BF1037BD4680BD80B584B000AF72
:1022280078607B68DB6AFB607B6893F83D30DBB2E3
:10223800212B64D17B685B8D9BB2002B12D07B680D
:102248005B6A1A787B681B681A617B685B6A5A1C30
:102258007B685A627B685B8D9BB2013B9AB27B6854
:102268005A854CE0FB68082B1DD0FB68202B1AD040
:10227800FB6813F5803F16D07B681B685A687B683B
:102288001B6822F4E0625A607B6811221A637B683B
:10229800002283F83E207B68202283F83D2078685E
:1022A800FFF765FE2BE07B681B685A687B681B6834
:1022B80022F4E0625A607B681B681A687B681B68B6
:1022C80042F400721A607B6800221A637B6820223D
:1022D80083F83D207B6893F83E30DBB2402B07D172
:1022E8007B68002283F83E207868FFF77AFE06E0D4
:1022F8007B68002283F83E207868FFF738FE00BF2D
:102308001037BD4680BD80B584B000AF78607B686B
:1023180093F83D30DBB2222B73D17B685B8D9BB287
:10232800FB60FB68032B20D97B681B681A697B68F4
:102338005B6AD2B21A707B685B6A5A1C7B685A6205
:102348007B685B8D9BB2013B9AB27B685A857B6840
:102358005B8D9BB2032B54D17B681B685A687B68E2
:102368001B6822F480625A604BE07B68DB6A022BB0
:1023780047D0FB68012B02D0FB68002B41D17B685A
:102388001B681A687B681B6822F480621A607B6885
:102398001B685A687B681B6822F4E0625A607B6895
:1023A8001B681A697B685B6AD2B21A707B685B6AC1
:1023B8005A1C7B685A627B685B8D9BB2013B9AB260
:1023C8007B685A857B68202283F83D207B6893F8D8
:1023D8003E30DBB2402B0AD17B68002283F83E20D6
:1023E8007B6800221A637868FFF704FE09E07B68BF
:1023F800002283F83E207B6812221A637868FFF770
:10240800BFFD00BF1037BD4680BD80B584B000AFAA
:1024180078607B68DB6AFB607B685B8D9BB2042B12
:102428001BD17B681B685A687B681B6822F4806232
:102438005A607B681B681A697B685B6AD2B21A703B
:102448007B685B6A5A1C7B685A627B685B8D9BB2AF
:10245800013B9AB27B685A85BDE07B685B8D9BB275
:10246800032B29D17B681B685A687B681B6822F498
:1024780080625A60FB68042B0AD0FB68022B07D0E5
:102488007B681B681A687B681B6822F480621A6084
:102498007B681B681A697B685B6AD2B21A707B68B2
:1024A8005B6A5A1C7B685A627B685B8D9BB2013BF6
:1024B8009AB27B685A858EE07B685B8D9BB2022B53
:1024C80076D1FB68012B02D0FB68102B08D17B6802
:1024D8001B681A687B681B6822F480621A6019E01E
:1024E800FB68042B02D0FB68022B08D17B681B68B1
:1024F8001A687B681B6842F480621A600AE0FB680D
:10250800102B07D07B681B681A687B681B6842F42D
:1025180000721A607B681B681A697B685B6AD2B2B2
:102528001A707B685B6A5A1C7B685A627B685B8D91
:102538009BB2013B9AB27B685A857B681B681A6913
:102548007B685B6AD2B21A707B685B6A5A1C7B68CC
:102558005A627B685B8D9BB2013B9AB27B685A8555
:102568007B681B685A687B681B6822F440725A6053
:102578007B68202283F83D207B6893F83E30DBB2ED
:10258800402B0AD17B68002283F83E207B6800221A
:102598001A637868FFF72EFD1DE07B68002283F838
:1025A8003E207B6812221A637868FFF7E9FC12E084
:1025B8007B681B681A697B685B6AD2B21A707B6891
:1025C8005B6A5A1C7B685A627B685B8D9BB2013BD5
:1025D8009AB27B685A8500BF1037BD4680BD80B46B
:1025E80083B000AF78607B6893F83E30DBB2402B55
:1025F80017D17B681B6D002B09D17B685B6CDBB244
:102608001A467B681B6802F0FE021A6167E07B6865
:102618005B6CDBB243F00103DAB27B681B681A61BA
:102628005DE07B681B69B3F5804F33D17B6893F815
:102638003D30DBB2212B09D17B685B6CDBB21A46DB
:102648007B681B6802F0FE021A6108E07B685B6C1D
:10265800DBB243F00103DAB27B681B681A617B685E
:102668005B6B002B03D17B689B6B002B37D07B689F
:102678005B6BDB6B002B04D17B689B6BDB6B002BEC
:102688002DD07B681B685A687B681B6842F400621F
:102698005A6024E07B681B6D002B0ED17B685B6C55
:1026A8009BB2DB11DBB203F00603DBB263F00F036E
:1026B800DAB27B681B681A6111E07B681B6D012B1D
:1026C8000DD17B685B6C9BB2DB11DBB203F00603B8
:1026D800DBB263F00E03DAB27B681B681A6100BFD5
:1026E8000C37BD4680BC704780B483B000AF7860BB
:1026F8007B685B6CDAB27B681B681A617B685B6B12
:10270800002B03D17B689B6B002B11D07B685B6B24
:10271800DB6B002B04D17B689B6BDB6B002B07D03A
:102728007B681B685A687B681B6842F400625A60C1
:1027380000BF0C37BD4680BC704780B491B000AF75
:1027480078607B6893F83E3087F83F307B68DB6AB7
:10275800BB637B681B6B7B637B6893F83D30DBB2A4
:10276800222B40F069817B681B6D002B0FD197F8F5
:102778003F30402B0BD100233B637B681B685B69B0
:102788003B637B681B689B693B633B6B60E17B68D1
:102798001B6D002B1DD17B681B69B3F5404F18D109
:1027A8000023FB627B681B685B69FB627B681B68B4
:1027B8009B69FB62FB6A7B681B681A687B681B68FD
:1027C80042F480721A607B681B6D5A1C7B681A651C
:1027D8003EE17B685B8D9BB2002B13D10023BB626B
:1027E8007B681B685B69BB627B681B689B69BB6213
:1027F800BB6A7B681B681A687B681B6842F40072B6
:102808001A6015E17B685B8D9BB2012B40F08A80D2
:10281800BB6B13F5803F37D17B681B681A687B68F0
:102828001B6822F480621A607B681B685B6803F48B
:102838000063B3F5006F13D17B681B681A687B6867
:102848001B6822F480621A6000237B627B681B6825
:102858005B697B627B681B689B697B627B6AE7E0DC
:1028680000233B627B681B685B693B627B681B6873
:102878009B693B623B6A7B681B681A687B681B68BC
:1028880042F400721A60D3E0BB6B082B2ED0BB6BEE
:10289800202B2BD07B6B122B02D1BB6B012B25D1AC
:1028A800BB6B042B0ED0BB6B022B0BD0BB6B102B5E
:1028B80008D07B681B681A687B681B6822F48062F2
:1028C8001A6007E07B681B681A687B681B6842F41B
:1028D80080621A600023FB617B681B685B69FB618F
:1028E8007B681B689B69FB61FB69A1E07B681B68CF
:1028F8001A687B681B6822F480621A600023BB6137
:102908007B681B685B69BB617B681B689B69BB61F3
:10291800BB697B681B681A687B681B6842F4007295
:102928001A6085E07B685B8D9BB2022B4DD1BB6B37
:10293800042B16D0BB6B022B13D0BB6B102B10D003
:102948007B681B681A687B681B6822F480621A60BF
:102958007B681B681A687B681B6842F400621A600F
:1029680007E07B681B681A687B681B6842F4806212
:102978001A607B681B685B6803F40063B3F5006F3B
:1029880017D1BB6B13F5803F0BD0BB6B012B08D065
:10299800BB6B082B05D0BB6B102B02D0BB6B202B5D
:1029A80007D17B681B685A687B681B6842F48052B1
:1029B8005A6000237B617B681B685B697B617B686D
:1029C8001B689B697B617B6932E07B681B681A68BE
:1029D8007B681B6842F480621A607B681B685B68CE
:1029E80003F40063B3F5006F17D1BB6B13F5803F99
:1029F8000BD0BB6B012B08D0BB6B082B05D0BB6B76
:102A0800102B02D0BB6B202B07D17B681B685A6840
:102A18007B681B6842F480525A6000233B617B68E4
:102A28001B685B693B617B681B689B693B613B6911
:102A38007B6800221A650BE00023FB607B681B683B
:102A48005B69FB607B681B689B69FB60FB68FFE751
:102A580000BF4437BD4680BC704780B584B000AF26
:102A680078607B6893F83D30FB737B685B8D9BB225
:102A7800002B2BD07B685B6A1A787B681B681A610D
:102A88007B685B6A5A1C7B685A627B685B8D9BB269
:102A9800013B9AB27B685A857B685B8D9BB2002BA1
:102AA80014D1FB7B292B11D17B681B685A687B6882
:102AB8001B6822F480625A607B6821221A637B6853
:102AC800282283F83D207868FFF763FA00BF1037A3
:102AD800BD4680BD80B483B000AF78607B685B8DF5
:102AE8009BB2002B11D07B685B6A1A787B681B68E5
:102AF8001A617B685B6A5A1C7B685A627B685B8DCB
:102B08009BB2013B9AB27B685A8500BF0C37BD4621
:102B180080BC704780B584B000AF78607B6893F85C
:102B28003D30FB737B685B8D9BB2002B2CD07B68A0
:102B38001B681A697B685B6AD2B21A707B685B6A29
:102B48005A1C7B685A627B685B8D9BB2013B9AB2C8
:102B58007B685A857B685B8D9BB2002B14D1FB7B0D
:102B68002A2B11D17B681B685A687B681B6822F482
:102B780080625A607B6822221A637B68282283F865
:102B88003D207868FFF70EFA00BF1037BD4680BDBC
:102B980080B483B000AF78607B685B8D9BB2002BFC
:102BA80012D07B681B681A697B685B6AD2B21A709C
:102BB8007B685B6A5A1C7B685A627B685B8D9BB238
:102BC800013B9AB27B685A8500BF0C37BD4680BC72
:102BD800704780B584B000AF786039600023FB731C
:102BE8007B6893F83D30DBB203F02803282B27D10C
:102BF8007B681B685A687B681B6822F480625A608D
:102C08003B689B0803F00103002B01D10123FB73F0
:102C18003B68DB0903F00103002B03D17B68DB6809
:102C2800BB8102E07B689B69BB817B68002283F8DB
:102C38003C20BA89FB7B19467868FFF7BCF908E0A5
:102C48007B681B686FF002025A617B68002283F878
:102C58003C2000BF1037BD4680BD000080B584B061
:102C680000AF78607B6893F83D30FB737B681B6826
:102C78005A687B681B6822F4E0625A600023BB60D4
:102C88007B681B685B69BB607B681B681A687B682C
:102C98001B6842F001021A60BB687B681B681A68EF
:102CA8007B681B6822F480621A607B681B685B681B
:102CB80003F40063B3F5006F72D1FB7B222B02D0C3
:102CC800FB7B2A2B35D17B689B6B1B685B689AB2B0
:102CD8007B685A857B685B8D9BB2002B05D07B682F
:102CE8001B6C43F004027B681A647B681B685A6893
:102CF8007B681B6822F400625A607B689B6B1846ED
:102D0800FEF714F80346012B49D07B689B6B694A90
:102D18001A657B689B6B1846FDF75CFE0346002B23
:102D28003DD07B689B6B1B6D7A68926B1046984709
:102D380035E07B685B6B1B685B689AB27B685A8579
:102D48007B685B8D9BB2002B05D07B681B6C43F0C6
:102D580004027B681A647B681B685A687B681B6876
:102D680022F400625A607B685B6B1846FDF7DEFF51
:102D78000346012B14D07B685B6B4E4A1A657B684F
:102D88005B6B1846FDF726FE0346002B08D07B68D0
:102D98005B6B1B6D7A68526B1046984700E000BF6A
:102DA8007B685B8D9BB2002B3ED07B681B685B69A0
:102DB80003F00403042B12D17B681B681A697B6833
:102DC8005B6AD2B21A707B685B6A5A1C7B685A626B
:102DD8007B685B8D9BB2013B9AB27B685A857B68A6
:102DE8001B685B6903F04003402B12D17B681B68AA
:102DF8001A697B685B6AD2B21A707B685B6A5A1C74
:102E08007B685A627B685B8D9BB2013B9AB27B6898
:102E18005A857B685B8D9BB2002B05D07B681B6C49
:102E280043F004027B681A647B681B6C002B03D098
:102E3800786800F0B3F839E0FB7B2A2B09D17B686E
:102E480000221A637B68282283F83D207868FFF700
:102E5800A9F87B6893F83D30DBB2282B11D17B6849
:102E6800154ADA627B6800221A637B68202283F89D
:102E78003D207B68002283F83E207868FFF7A8F899
:102E880014E07B681B6B222B02D0FB7B222B0DD11D
:102E98007B6800221A637B68202283F83D207B68C8
:102EA800002283F83E207868FFF77CF800BF1037CF
:102EB800BD4680BD2D3400080000FFFF80B584B0FA
:102EC80000AF78607B6893F83D30FB737B68DB6A02
:102ED800BB60BB68082B02D0BB68202B29D1FB7BC9
:102EE800282B26D17B682C4ADA627B681B685A68D3
:102EF8007B681B6822F4E0625A607B681B686FF489
:102F080080625A617B681B681A687B681B6822F4B8
:102F180080621A607B6800221A637B68202283F82B
:102F28003D207B68002283F83E207868FFF750F840
:102F38002EE0FB7B212B26D17B68174ADA627B685F
:102F480021221A637B68202283F83D207B680022B7
:102F580083F83E207B681B685A687B681B6822F4EC
:102F6800E0625A607B681B686FF480625A617B6814
:102F78001B681A687B681B6822F480621A6078688C
:102F8800FFF707F804E07B681B686FF480625A61FA
:102F980000BF1037BD4680BD0000FFFF80B584B07C
:102FA80000AF78607B6893F83D30FB737B6893F8DB
:102FB8003E30DBB2102B0AD1FB7B222B07D17B687A
:102FC8001B681A687B681B6822F400621A60FB7B26
:102FD80003F02803282B07D17B6800221A637B683B
:102FE800282283F83D2015E07B681B685B6803F4A2
:102FF8000063B3F5006F06D0FB7B602B03D07B68C2
:10300800202283F83D207B6800221A637B68002217
:1030180083F83E207B681B685B6803F40063B3F5A4
:10302800006F62D17B681B685A687B681B6822F452
:1030380000625A607B685B6B93F83530DBB2012B1A
:1030480020D07B685B6B5F4A1A657B685B6B1846B0
:10305800FDF7C0FC0346002B00F089807B681B68E5
:103068001A687B681B6822F001021A607B682022BC
:1030780083F83D207B685B6B1B6D7A68526B10464A
:10308800984774E07B689B6B4E4A1A657B689B6B1C
:103098001846FDF79FFC0346002B68D07B681B6829
:1030A8005B6903F04003402B0BD17B681B681A69EE
:1030B8007B685B6AD2B21A707B685B6A5A1C7B6851
:1030C8005A627B681B681A687B681B6822F00102D9
:1030D8001A607B68202283F83D207B689B6B1B6D00
:1030E8007A68926B1046984741E07B6893F83D30C8
:1030F800DBB2602B25D17B68202283F83D207B68DA
:1031080000221A647B681B685B6903F04003402B4C
:103118000BD17B681B681A697B685B6AD2B21A702C
:103128007B685B6A5A1C7B685A627B681B681A68F2
:103138007B681B6822F001021A607868FEF76CFF52
:1031480015E07B681B685B6903F04003402B0BD1DB
:103158007B681B681A697B685B6AD2B21A707B68E5
:103168005B6A5A1C7B685A627868FEF74CFF7B687A
:1031780093F83D30FB737B681B6C03F00403042B4E
:103188001BD1FB7B282B18D17B681B685A687B688E
:103198001B6822F4E0625A607B680B4ADA627B683B
:1031A80000221A637B68202283F83D207B68002276
:1031B80083F83E207868FEF70BFF00BF1037BD4646
:1031C80080BD00BF2D3400080000FFFF80B588B027
:1031D80002AFF8607A603B600B467B81FB68DB6A74
:1031E8007B617B69082B06D07B69012B03D07B6947
:1031F80013F5803F08D1FB681B681A68FB681B68D9
:1032080042F480721A600BE0FB681B6B122B07D12B
:10321800FB681B681A68FB681B6842F480721A60B6
:103228003B6800937B6800224FF00111F86800F0BA
:1032380068F90346002B01D0012335E0FB681B69C0
:10324800B3F5804F08D17B89DBB21A46FB681B684F
:1032580002F0FE021A611BE07B89DB11DBB203F08E
:103268000603DBB263F00F03DAB2FB681B681A616E
:103278003B687A680E49F86800F09AF90346002B13
:1032880001D0012310E07B89DAB2FB681B681A6160
:103298003B687A680749F86800F08AF90346002B0A
:1032A80001D0012300E0002318461837BD4680BD31
:1032B800080001000200010080B588B002AFF86084
:1032C8007A603B600B467B81FB68DB6A7B61FB684D
:1032D8001B681A68FB681B6842F480621A607B6985
:1032E800082B06D07B69012B03D07B6913F5803F3F
:1032F80008D1FB681B681A68FB681B6842F4807277
:103308001A600BE0FB681B6B112B07D1FB681B686D
:103318001A68FB681B6842F480721A603B68009365
:103328007B6800224FF00111F86800F0EAF80346C4
:10333800002B01D001236DE0FB681B69B3F5804FBA
:1033480008D17B89DBB243F00103DAB2FB681B6862
:103358001A6153E07B89DB11DBB203F00603DBB2B1
:1033680063F00F03DAB2FB681B681A613B687A687E
:103378002A49F86800F01CF90346002B01D0012304
:1033880048E07B89DAB2FB681B681A613B687A6897
:103398002349F86800F00CF90346002B01D00123FB
:1033A80038E000233B61FB681B685B693B61FB6895
:1033B8001B689B693B613B69FB681B681A68FB6873
:1033C8001B6842F480721A603B6800937B68002295
:1033D8004FF00111F86800F094F80346002B01D073
:1033E800012317E07B89DB11DBB203F00603DBB2B4
:1033F80063F00E03DAB2FB681B681A613B687A68EF
:103408000749F86800F0D4F80346002B01D00123DF
:1034180000E0002318461837BD4680BD08000100AB
:103428000200010080B584B000AF78607B689B6BB8
:10343800FB60FB6893F83D30FB72FB685B6B002216
:10344800DA63FB689B6B0022DA63FB681B681A6807
:10345800FB681B6822F480621A60FB6800225A85A8
:10346800FB685B6B00221A65FB689B6B00221A6580
:10347800FB681B681A68FB681B6822F001021A6067
:10348800FB6893F83D30DBB2602B0ED1FB6820223D
:1034980083F83D20FB68002283F83E20FB68002269
:1034A8001A64F868FEF7B8FD27E0FB7A03F02803F2
:1034B800282B17D1FB681B681A68FB681B6842F049
:1034C80001021A60FB681B681A68FB681B6842F4F3
:1034D80080621A60FB6800221A63FB68282283F85E
:1034E8003D2007E0FB68202283F83D20FB6800228E
:1034F80083F83E20F868FEF786FD00BF1037BD460A
:1035080080BD80B584B000AFF860B9603B601346F9
:10351800FB7125E03B68B3F1FF3F21D0FDF734F89C
:103528000246BB69D31A3A689A4202D33B68002B19
:1035380016D1FB6800221A63FB68202283F83D201D
:10354800FB68002283F83E20FB681B6C43F02002D6
:10355800FB681A64FB68002283F83C20012323E0FF
:10356800BB681B0CDBB2012B0DD1FB681B685B69C8
:10357800DA43BB6813409BB2002B0CBF0123002326
:10358800DBB21A460CE0FB681B689B69DA43BB6830
:1035980013409BB2002B0CBF01230023DBB21A4659
:1035A800FB799A42B6D0002318461037BD4680BD35
:1035B80080B584B000AFF860B9607A603B6051E0D4
:1035C800FB681B685B6903F48063B3F5806F23D1E4
:1035D800FB681B681A68FB681B6842F400721A6073
:1035E800FB681B686FF480625A61FB6800221A63EB
:1035F800FB68202283F83D20FB68002283F83E20E8
:10360800FB681B6C43F00402FB681A64FB68002229
:1036180083F83C20012346E07B68B3F1FF3F21D0CB
:10362800FCF7B2FF02463B68D31A7A689A4202D383
:103638007B68002B16D1FB6800221A63FB682022E6
:1036480083F83D20FB68002283F83E20FB681B6C52
:1036580043F02002FB681A64FB68002283F83C20D0
:10366800012320E0BB681B0CDBB2012B0CD1FB68EB
:103678001B685B69DA43BB6813409BB2002B14BF1D
:1036880001230023DBB20BE0FB681B689B69DA436C
:10369800BB6813409BB2002B14BF01230023DBB28D
:1036A800002B8DD1002318461037BD4680BD80B54C
:1036B80084B000AFF860B9607A602DE0F86800F077
:1036C800CEF80346002B01D001232DE0BB68B3F1EF
:1036D800FF3F21D0FCF758FF02467B68D31ABA682F
:1036E8009A4202D3BB68002B16D1FB6800221A63EA
:1036F800FB68202283F83D20FB68002283F83E20E7
:10370800FB681B6C43F02002FB681A64FB6800220C
:1037180083F83C20012307E0FB681B685B6903F022
:103728008003802BCAD1002318461037BD4680BDC0
:1037380080B584B000AFF860B9607A602DE0F868B1
:1037480000F08DF80346002B01D001232DE0BB6863
:10375800B3F1FF3F21D0FCF717FF02467B68D31A6D
:10376800BA689A4202D3BB68002B16D1FB680022C4
:103778001A63FB68202283F83D20FB68002283F847
:103788003E20FB681B6C43F02002FB681A64FB6850
:10379800002283F83C20012307E0FB681B685B6973
:1037A80003F00403042BCAD1002318461037BD4682
:1037B80080BD80B584B000AFF860B9607A6042E03F
:1037C800FB681B685B6903F01003102B19D1FB68B9
:1037D8001B686FF010025A61FB6800221A63FB68CD
:1037E800202283F83D20FB68002283F83E20FB68F6
:1037F8001A6CFB681A64FB68002283F83C200123DA
:1038080029E0FCF7C1FE02467B68D31ABA689A42DF
:1038180002D3BB68002B16D1FB6800221A63FB6831
:10382800202283F83D20FB68002283F83E20FB68B5
:103838001B6C43F02002FB681A64FB68002283F8C3
:103848003C20012307E0FB681B685B6903F0400329
:10385800402BB5D1002318461037BD4680BD80B433
:1038680083B000AF78607B681B685B6903F4806392
:10387800B3F5806F1BD17B681B686FF480625A6157
:103888007B6800221A637B68202283F83D207B68CE
:10389800002283F83E207B681B6C43F004027B689F
:1038A8001A647B68002283F83C20012300E000238F
:1038B80018460C37BD4680BC704780B483B000AF53
:1038C80078607B68DB6AB3F52A0F03D17B68012235
:1038D800DA6207E07B68DB6AB3F12A4F02D17B68C2
:1038E8000822DA6200BF0C37BD4680BC7047000072
:1038F80080B588B000AF78607B68002B01D10123C8
:1039080028E17B6893F84130DBB2002B09D17B6852
:10391800002283F840207B68904A5A63786807F051
:103928008FF87B68022283F841207B681B68DB697B
:103938007A68126823F47B6323F00F03D3617B68F2
:103948001B6802221A627B685B69022B60D07B6865
:10395800DB68002B02D110237B6101E020237B610F
:103968007B689B68202B02D87B695B007B61012008
:1039780001F05AFAF8607B681B69B3F5007F25D11E
:103988007B68DB68002B10D07B699B00FA68B2FB70
:10399800F3F213469B0013445B001A467B685B698D
:1039A800B2FBF3F305333B611FE07B69DB00FA6888
:1039B800B2FBF3F213469B0013445B001A467B6884
:1039C8005B69B2FBF3F305333B610EE0FA687B6990
:1039D800B2FBF3F213469B0013445B001A467B6864
:1039E8005B69B2FBF3F305333B613B695C4AA2FBBD
:1039F8000323DB083B613B6903F00103BB613A69C0
:103A0800BB69D31A5B08FB61BB691B02BB6103E09E
:103A18000223FB610023BB61FB69012B02D9FB690F
:103A2800FF2B07D97B685B6C43F010027B685A64F4
:103A380001238FE07B681A69BB6942EA03017B684E
:103A48001B68FA690A431A627B681B68DB6923F4FE
:103A58007B6323F00F037A6851687A689268114390
:103A68007A68D26811437A6892690A431A437B6874
:103A78001B6842F40062DA617B681B6A012B61D122
:103A88007B68384A5A637B681B68374A934201D17E
:103A9800364B01E04FF04023DB697A6812683249FF
:103AA8008A4201D1314A01E04FF0402223F47B637E
:103AB80023F00F03D3617B681B682B4A934201D123
:103AC8002A4B01E04FF0402302221A627B681B68F0
:103AD800254A934201D1254B01E04FF04023DB6991
:103AE8007B817B685B68B3F5007F03D07B685B688C
:103AF800002B03D14FF480733B6101E000233B614D
:103B08003B699AB27B689B6899B27B68DB6898B21C
:103B18007B689B699BB203439BB20B439BB21343E5
:103B28009AB27B8913439BB243F400637B817B6821
:103B38001B680D4A934201D10C4B01E04FF0402322
:103B48007A89DA617B6800225A647B68012283F8EB
:103B58004120002318462037BD4680BD753E000829
:103B6800CDCCCCCC893F0008003800400034004060
:103B780080B586B000AFF860B9601346FB80BB68BB
:103B8800002B02D0FB88002B01D101238EE0FB68BB
:103B980093F84030DBB2012B01D1022386E0FB68A9
:103BA800012283F84020FB6893F84130DBB2012BF7
:103BB80005D0FB68002283F84020022376E0FB68EA
:103BC800032283F84120FB6800225A64FB68BA6824
:103BD8005A62FB681B68DB6903F007037B617B693A
:103BE800032B02D07B69052B0AD1FB885B009AB2B4
:103BF800FB681A85FB885B009AB2FB685A8505E06A
:103C0800FB68FA881A85FB68FA885A85FB689B6BFB
:103C1800284A1A64FB689B6B274ADA63FB689B6B2C
:103C2800264ADA64FB68986BFB685B6A1946FB688E
:103C38001B680C331A46FB681B8D9BB2FCF76AFEA7
:103C48000346002B0FD0FB685B6C43F00802FB684F
:103C58005A64FB68012283F84120FB68002283F83C
:103C68004020012322E0FB681B68DB6903F48063C2
:103C7800002B07D1FB681B68DA69FB681B6842F4F4
:103C88008062DA61FB681B685B6803F00203002B43
:103C980007D1FB681B685A68FB681B6842F0020280
:103CA8005A60FB68002283F8402000231846183722
:103CB800BD4680BD533D0008113D00086F3D00081A
:103CC80080B483B000AF786000BF0C37BD4680BCBD
:103CD800704780B483B000AF786000BF0C37BD4632
:103CE80080BC704780B483B000AF786000BF0C37E9
:103CF800BD4680BC704780B483B000AF786000BF19
:103D08000C37BD4680BC704780B584B000AF786082
:103D18007B689B6BFB607B68DB69002B0ED1FB68C3
:103D28001B685A68FB681B6822F002025A60FB682D
:103D380000225A85FB68012283F84120F868FFF7C2
:103D4800C8FF00BF1037BD4680BD80B584B000AF46
:103D580078607B689B6BFB60F868FFF7B1FF00BF7A
:103D68001037BD4680BD80B584B000AF78607B68F1
:103D78009B6BFB60FB681B685A68FB681B6822F03A
:103D880003025A60FB6800225A85FB6800225A86A3
:103D9800FB68012283F84120FB685B6C43F0080252
:103DA800FB685A64F868FFF7A6FF00BF1037BD46E6
:103DB80080BD80B582B000AF78607B685B6A1A8886
:103DC8007B681B68DA607B685B6A9A1C7B685A624E
:103DD8007B685B8D9BB2013B9AB27B685A857B6896
:103DE8005B8D9BB2002B0ED17B681B685A687B6881
:103DF8001B6822F0A0025A607B68012283F84120E8
:103E08007868FFF766FF00BF0837BD4680BD80B5FC
:103E180082B000AF78607B681B68DA687B68DB6A11
:103E280092B21A807B68DB6A9A1C7B68DA627B68CC
:103E38005B8E9BB2013B9AB27B685A867B685B8E2D
:103E48009BB2002B0ED17B681B685A687B681B6885
:103E580022F060025A607B68012283F8412078686A
:103E6800FFF740FF00BF0837BD4680BD80B586B06C
:103E780000AF78607B681B689B687B617B6893F800
:103E88004130DBB2042B3AD17B6903F00103012BEB
:103E980009D17B681B685B6803F04003402B02D1A3
:103EA8007868FFF7B4FF7B6903F04003402B26D105
:103EB8007B681B685B6803F02003202B1FD17B689D
:103EC8001B685A687B681B6822F060025A600023EE
:103ED8003B617B681B68DB683B617B681B689B6890
:103EE8003B613B697B68012283F841207B685B6CFE
:103EF80043F002027B685A647868FFF7FCFE7B682F
:103F080093F84130DBB2032B36D17B6903F002030F
:103F1800022B09D17B681B685B6803F08003802B48
:103F280002D17868FFF745FF7B6903F00803082B87
:103F380022D17B681B685B6803F02003202B1BD110
:103F48007B681B685A687B681B6822F0A0025A606D
:103F58000023FB607B681B689B68FB60FB687B68D1
:103F6800012283F841207B685B6C43F004027B6884
:103F78005A647868FFF7BFFE00BF1837BD4680BD9A
:103F880080B588B000AF78607B681B689B68FB6170
:103F98007B681B68A24A934201D1A24B01E04FF013
:103FA80040239B68BB617B681B685B687B617B689F
:103FB8001B689B4A934201D19A4B01E04FF0402382
:103FC8005B683B617B685B68B3F5007F04D07B6806
:103FD8005B68002B40F09980FB6903F00203022B19
:103FE80007D17B6903F08003002B02D0786800F0CA
:103FF80024F9BB6903F00103012B07D13B6903F0E6
:104008004003002B02D0786800F0C6F9BB6903F0C2
:104018004003402B3AD13B6903F02003002B35D0F5
:104028007B681B687E4A934201D17E4B01E04FF0CA
:1040380040235A687B681B6879498B4201D1794BC8
:1040480001E04FF0402322F060025A607B681B6851
:104058005A687B681B6822F0A0025A600023FB6044
:104068007B681B68DB68FB607B681B689B68FB6080
:10407800FB687B68012283F841207B685B6C43F016
:1040880002027B685A647868FFF735FEFB6903F023
:104098000803082B40F0BE807B6903F02003002B47
:1040A80000F0B8807B681B685A687B681B6822F040
:1040B800A0025A607B681B68594A934201D1594B48
:1040C80001E04FF040235A687B681B6854498B42D3
:1040D80001D1544B01E04FF0402322F060025A60B6
:1040E8000023BB607B681B689B68BB60BB687B6800
:1040F800012283F841207B685B6C43F004027B68F3
:104108005A647868FFF7F7FD84E0BB6903F002039F
:10411800022B07D13B6903F08003002B02D078689B
:1041280000F0BCF8FB6903F00103012B07D17B69A0
:1041380003F04003002B02D0786800F0FBF8FB691D
:1041480003F04003402B2FD17B6903F02003002BA1
:104158002AD07B681B685A687B681B6822F060025B
:104168005A607B681B682E4A934201D12D4B01E0AF
:104178004FF040235A687B681B6829498B4201D15C
:10418800284B01E04FF0402322F0A0025A607B68E0
:10419800012283F841207B685B6C43F002027B6854
:1041A8005A647868FFF7A7FDBB6903F00803082B7A
:1041B80031D13B6903F02003002B2CD07B681B68AE
:1041C800174A934201D1174B01E04FF040235A6838
:1041D8007B681B6812498B4201D1124B01E04FF0FA
:1041E800402322F0A0025A607B681B685A687B68EB
:1041F8001B6822F060025A607B68012283F8412024
:104208007B685B6C43F004027B685A647868FFF74C
:1042180072FD00E000BF00BF2037BD4680BD00BF73
:10422800003800400034004080B483B000AF7860AC
:1042380000BF0C37BD4680BC704780B582B000AF68
:1042480078607B685B6A991C7A6851621A887B6817
:104258001B68DA607B685B8D9BB2013B9AB27B6816
:104268005A857B685B8D9BB2002B13D17B681B68DA
:104278005A687B681B6822F0A0025A607B685B8ED4
:104288009BB2002B06D17B68012283F84120786815
:10429800FFF7CAFF00BF0837BD4680BD80B582B0B2
:1042A80000AF78607B685B6A991C7A6851621988EC
:1042B8007B681B681D4A934201D11D4B01E04FF0FA
:1042C80040230A46DA607B685B8D9BB2013B9AB259
:1042D8007B685A857B685B8D9BB2002B21D17B68FC
:1042E8001B68124A934201D1114B01E04FF0402361
:1042F8005A687B681B680D498B4201D10C4B01E061
:104308004FF0402322F0A0025A607B685B8E9BB27C
:10431800002B06D17B68012283F841207868FFF7DB
:1043280083FF00BF0837BD4680BD00BF003800408E
:104338000034004080B582B000AF78607B681B68AD
:10434800D8687B68DB6A991C7A68D16282B21A8065
:104358007B685B8E9BB2013B9AB27B685A867B680E
:104368005B8E9BB2002B13D17B681B685A687B68F5
:104378001B6822F060025A607B685B8D9BB2002B41
:1043880006D17B68012283F841207868FFF74CFF4B
:1043980000BF0837BD4680BD80B582B000AF7860E9
:1043A8007B681B68204A934201D1204B01E04FF003
:1043B8004023D8687B68DB6A991C7A68D16282B22C
:1043C8001A807B685B8E9BB2013B9AB27B685A86E7
:1043D8007B685B8E9BB2002B21D17B681B68124ADD
:1043E800934201D1114B01E04FF040235A687B689A
:1043F8001B680D498B4201D10C4B01E04FF0402363
:1044080022F060025A607B685B8D9BB2002B06D15C
:104418007B68012283F841207868FFF705FF00BF19
:104428000837BD4680BD00BF00380040003400405A
:1044380080B586B000AF78607B68002B01D101237E
:104448002DE27B681B6803F00103002B75D0A34B9A
:104458009B6803F00C03042B0CD0A04B9B6803F063
:104468000C03082B12D19D4B5B6803F48003B3F552
:10447800800F0BD1994B1B6803F40033002B5BD0E2
:104488007B685B68002B57D1012308E27B685B6877
:10449800B3F5803F06D1914B1B68904A43F48033B3
:1044A80013601DE07B685B68B3F5A02F0CD18B4BC4
:1044B8001B688A4A43F480231360884B1B68874A29
:1044C80043F4803313600BE0844B1B68834A23F466
:1044D80080331360814B1B68804A23F48023136068
:1044E8007B685B68002B13D0FCF74EF8386108E056
:1044F800FCF74AF802463B69D31A642B01D9032317
:10450800CDE1764B1B6803F40033002BF0D014E0A8
:10451800FCF73AF8386108E0FCF736F802463B69E0
:10452800D31A642B01D90323B9E16C4B1B6803F43C
:104538000033002BF0D100E000BF7B681B6803F05C
:104548000203002B63D0654B9B6803F00C03002B20
:104558000BD0624B9B6803F00C03082B1CD15F4BFC
:104568005B6803F48003002B16D15C4B1B6803F0D7
:104578000203002B05D07B68DB68012B01D00123E7
:104588008DE1564B1B6823F0F8027B681B69DB0042
:10459800524913430B603AE07B68DB68002B20D05C
:1045A8004F4B01221A60FBF7EFFF386108E0FBF779
:1045B800EBFF02463B69D31A022B01D903236EE1B4
:1045C800464B1B6803F00203002BF0D0434B1B68DB
:1045D80023F0F8027B681B69DB00404913430B603A
:1045E80015E03F4B00221A60FBF7CEFF386108E068
:1045F800FBF7CAFF02463B69D31A022B01D90323F2
:104608004DE1364B1B6803F00203002BF0D17B68A9
:104618001B6803F00803002B30D07B685B69002B14
:1046280016D0304B01221A60FBF7AEFF386108E064
:10463800FBF7AAFF02463B69D31A022B01D90323D1
:104648002DE1264B5B6F03F00203002BF0D015E041
:10465800244B00221A60FBF797FF386108E0FBF74C
:1046680093FF02463B69D31A022B01D9032316E1B3
:104678001A4B5B6F03F00203002BF0D17B681B68B9
:1046880003F00403002B00F0A0800023FB75134BFC
:104698001B6C03F08053002B0FD10023FB600F4BE2
:1046A8001B6C0E4A43F0805313640C4B1B6C03F0D5
:1046B8008053FB60FB680123FB750B4B1B6803F4FD
:1046C8008073002B21D1084B1B68074A43F4807381
:1046D8001360FBF759FF386111E000BF0038024052
:1046E80000004742800E474200700040FBF74CFF35
:1046F80002463B69D31A022B01D90323CFE06A4B48
:104708001B6803F48073002BF0D07B689B68012B37
:1047180006D1664B1B6F654A43F0010313671CE023
:104728007B689B68052B0CD1604B1B6F5F4A43F07D
:10473800040313675D4B1B6F5C4A43F00103136767
:104748000BE05A4B1B6F594A23F001031367574B71
:104758001B6F564A23F0040313677B689B68002B82
:1047680015D0FBF711FF38610AE0FBF70DFF024691
:104778003B69D31A41F28832934201D903238EE070
:104788004A4B1B6F03F00203002BEED014E0FBF73B
:10479800FBFE38610AE0FBF7F7FE02463B69D31AD5
:1047A80041F28832934201D9032378E03F4B1B6FD3
:1047B80003F00203002BEED1FB7D012B05D13B4B0F
:1047C8001B6C3A4A23F0805313647B689B69002B67
:1047D80064D0364B9B6803F00C03082B5CD07B68D5
:1047E8009B69022B41D1324B00221A60FBF7CCFEA9
:1047F800386108E0FBF7C8FE02463B69D31A022B72
:1048080001D903234BE0294B1B6803F00073002BED
:10481800F0D17B68DA697B681B6A1A437B685B6A3C
:104828009B011A437B689B6A5B08013B1B041A4384
:104838007B68DB6A1B061D4913434B601C4B012236
:104848001A60FBF7A1FE386108E0FBF79DFE0246FF
:104858003B69D31A022B01D9032320E0134B1B68B1
:1048680003F00073002BF0D018E0114B00221A60FF
:10487800FBF78AFE386108E0FBF786FE02463B69D3
:10488800D31A022B01D9032309E0084B1B6803F054
:104898000073002BF0D101E0012300E0002318464B
:1048A8001837BD4680BD00BF007000400038024088
:1048B8006000474280B584B000AF786039607B689B
:1048C800002B01D10123CAE0674B1B6803F00F03DB
:1048D8003A689A420CD9644B3A68D2B21A70624B61
:1048E8001B6803F00F033A689A4201D00123B6E02F
:1048F8007B681B6803F00203002B20D07B681B68D1
:1049080003F00403002B05D0584B9B68574A43F427
:10491800E05393607B681B6803F00803002B05D005
:10492800524B9B68514A43F4604393604F4B9B68DA
:1049380023F0F0027B689B684C4913438B607B68CB
:104948001B6803F00103002B44D07B685B68012BD4
:1049580007D1464B1B6803F40033002B19D1012300
:104968007DE07B685B68022B03D07B685B68032B68
:1049780007D13E4B1B6803F00073002B09D10123BC
:104988006DE03A4B1B6803F00203002B01D10123B1
:1049980065E0364B9B6823F003027B685B6833490C
:1049A80013438B60FBF7F0FDF8600AE0FBF7ECFDC2
:1049B8000246FB68D31A41F28832934201D9032395
:1049C8004DE02A4B9B6803F00C027B685B689B00F8
:1049D8009A42EBD1244B1B6803F00F033A689A42C2
:1049E8000CD2214B3A68D2B21A701F4B1B6803F0E5
:1049F8000F033A689A4201D0012330E07B681B68B4
:104A080003F00403002B08D0184B9B6823F4E052F2
:104A18007B68DB68154913438B607B681B6803F070
:104A28000803002B09D0114B9B6823F460427B6874
:104A38001B69DB000D4913438B6000F01DF801462C
:104A48000A4B9B681B0903F00F03094AD35C21FA40
:104A580003F3084A13600020FBF754FD00231846AF
:104A68001037BD4680BD00BF003C02400038024000
:104A7800F0AF000814000020F0B585B000AF0023A7
:104A88007B600023FB6000233B600023BB60634B1B
:104A98009B6803F00C03042B07D0082B08D0002BCD
:104AA80040F0B4805E4BBB60B3E05E4BBB60B0E0EF
:104AB8005A4B5B6803F03F037B60584B5B6803F419
:104AC8008003002B4AD0554B5B689B094FF00004CC
:104AD80040F2FF114FF0000203EA010504EA020662
:104AE800294632464FF000034FF00004540144EACF
:104AF800D1644B0119462246491B62EB06024FF06E
:104B080000034FF00004940144EA91648B015B1A9E
:104B180064EB02044FF000014FF00002E20042EAA9
:104B28005372D9000B4614465B1944EB06044FF048
:104B380000014FF00002620242EAD35259020B46CA
:104B48001446184621467B684FF000041A4623464F
:104B5800FBF736FB03460C46FB6049E02F4B5B68CE
:104B68009B094FF0000440F2FF114FF0000203EAE6
:104B7800010504EA0206294632464FF000034FF0C9
:104B88000004540144EAD1644B0119462246491BEA
:104B980062EB06024FF000034FF00004940144EA70
:104BA80091648B015B1A64EB02044FF000014FF033
:104BB8000002E20042EA5372D9000B4614465B1920
:104BC80044EB06044FF000014FF00002A20242EA53
:104BD800935299020B461446184621467B684FF0BB
:104BE80000041A462346FBF7EBFA03460C46FB6023
:104BF8000A4B5B681B0C03F0030301335B003B604B
:104C0800FA683B68B2FBF3F3BB6002E0044BBB609D
:104C180000BFBB6818461437BD46F0BD00380240D7
:104C28000024F40000127A0080B400AF024B1B6825
:104C38001846BD4680BC70471400002080B500AF00
:104C4800FFF7F2FF0146054B9B689B0A03F0070339
:104C5800034AD35C21FA03F3184680BD00380240AA
:104C680000B0000880B586B000AF786000237B6193
:104C780000233B617B681B6803F00103002B05D10F
:104C88007B681B6803F00403002B35D0624B0022BD
:104C98001A60FBF779FC786108E0FBF775FC0246BF
:104CA8007B69D31A022B01D90323B0E05B4B1B6845
:104CB80003F00063002BF0D17B685B689A017B6886
:104CC8009B681B0755491343C1F88430524B012296
:104CD8001A60FBF759FC786108E0FBF755FC0246BF
:104CE8007B69D31A022B01D9032390E04B4B1B6835
:104CF80003F00063002BF0D07B681B6803F002030D
:104D0800002B00F083800023FB60444B1B6C434A5C
:104D180043F080531364414B1B6C03F08053FB60DA
:104D2800FB683F4B1B683E4A43F480731360FBF7F4
:104D38002BFC786108E0FBF727FC02467B69D31A55
:104D4800022B01D9032362E0354B1B6803F48073FF
:104D5800002BF0D0314B1B6F03F440733B613B6970
:104D6800002B2FD07B68DB6803F440733A699A42C2
:104D780028D02A4B1B6F23F440733B61294B012237
:104D88001A60284B00221A60244A3B691367234B98
:104D98001B6F03F00103012B14D1FBF7F5FB7861BE
:104DA8000AE0FBF7F1FB02467B69D31A41F288322D
:104DB800934201D903232AE0184B1B6F03F0020327
:104DC800002BEED07B68DB6803F44073B3F5407FBB
:104DD8000DD1124B9B6823F4F8127B68DB6823F033
:104DE800704323F440730D4913438B6005E00B4B6C
:104DF8009B680A4A23F4F8139360084B1A6F7B6880
:104E0800DB68C3F30B03054913430B6700231846FC
:104E18001837BD4680BD00BF6800474200380240D1
:104E280000700040400E474280B487B000AF786001
:104E380000237B6100233B610023FB600023BB60F0
:104E48007B68012B3DD1224B9B6803F40003FB6078
:104E5800FB68002B04D0012B2FD11E4B7B612FE068
:104E68001B4B5B6803F48003B3F5800F08D1184B24
:104E78005B6803F03F03184AB2FBF3F33B6107E0BA
:104E8800134B5B6803F03F03144AB2FBF3F33B6137
:104E98000F4BD3F884309B09C3F308023B6902FB2C
:104EA80003F3BB600A4BD3F884301B0F03F00703EE
:104EB800BA68B2FBF3F37B6102E000237B6100BFB9
:104EC80000BF7B6918461C37BD4680BC704700BFD1
:104ED800003802400080BB0000127A000024F40071
:104EE80080B582B000AF78607B68002B01D10123C8
:104EF80056E07B6800229A627B6893F85130DBB2F7
:104F0800002B06D17B68002283F85020786805F0D2
:104F18003DFE7B68022283F851207B681B681A6873
:104F28007B681B6822F040021A607B685A687B68BD
:104F38009B681A437B68DB681A437B681B691A43C2
:104F48007B685B691A437B689B6903F400731A43A7
:104F58007B68DB691A437B681B6A42EA03017B684A
:104F68009A6A7B681B680A431A607B689B691B0CFA
:104F780003F004017B685A6A7B681B680A435A601D
:104F88007B681B68DA697B681B6822F40062DA6157
:104F98007B6800225A657B68012283F85120002330
:104FA80018460837BD4680BD80B588B000AFF860A8
:104FB800B9603B601346FB800023FB77FB6893F8DE
:104FC8005030012B01D102231EE1FB68012283F836
:104FD8005020FBF7D9FAB861FB88FB82FB6893F88D
:104FE8005130DBB2012B02D00223FB7703E1BB680F
:104FF800002B02D0FB88002B02D10123FB77FAE0BB
:10500800FB68032283F85120FB6800225A65FB687D
:10501800BA681A63FB68FA889A86FB68FA88DA869F
:10502800FB6800229A63FB6800229A87FB680022CB
:10503800DA87FB6800225A64FB6800221A64FB685E
:105048009B68B3F5004F07D1FB681B681A68FB68BB
:105058001B6842F480421A60FB681B681B6803F0F7
:105068004003402B07D0FB681B681A68FB681B6865
:1050780042F040021A60FB68DB68B3F5006F4BD161
:10508800FB685B68002B02D0FB8A012B3ED1FB68D2
:105098001B6B1A88FB681B68DA60FB681B6B9A1C21
:1050A800FB681A63FB68DB8E9BB2013B9AB2FB6814
:1050B800DA862BE0FB681B689B6803F00203022B6F
:1050C80012D1FB681B6B1A88FB681B68DA60FB68E7
:1050D8001B6B9A1CFB681A63FB68DB8E9BB2013B57
:1050E8009AB2FB68DA8611E0FBF74EFA0246BB6912
:1050F800D31A3A689A4203D83B68B3F1FF3F02D10A
:105108003B68002B02D10323FB7774E0FB68DB8E3E
:105118009BB2002BCED14CE0FB685B68002B02D021
:10512800FB8A012B40D1FB681A6BFB681B680C33A8
:1051380012781A70FB681B6B5A1CFB681A63FB68B1
:10514800DB8E9BB2013B9AB2FB68DA862CE0FB68E7
:105158001B689B6803F00203022B13D1FB681A6BD0
:10516800FB681B680C3312781A70FB681B6B5A1C9F
:10517800FB681A63FB68DB8E9BB2013B9AB2FB6843
:10518800DA8611E0FBF700FA0246BB69D31A3A68DF
:105198009A4203D83B68B3F1FF3F02D13B68002B2A
:1051A80002D10323FB7726E0FB68DB8E9BB2002B42
:1051B800CDD1BA693968F86800F060FB0346002B66
:1051C80002D0FB6820225A65FB689B68002B0AD135
:1051D80000233B61FB681B68DB683B61FB681B685D
:1051E8009B683B613B69FB685B6D002B02D0012328
:1051F800FB7700E000BFFB68012283F85120FB68C1
:10520800002283F85020FB7F18462037BD4680BD1A
:1052180080B58CB000AFF860B9607A607B800123FC
:10522800FB62002387F82B30FB6893F85030012B82
:1052380001D102238AE1FB68012283F85020FBF7A1
:10524800A3F97862FB6893F8513087F82330FB683C
:105258005B68FB617B887B8397F82330012B0FD039
:10526800FB69B3F5827F07D1FB689B68002B03D1EC
:1052780097F82330042B03D0022387F82B305BE107
:10528800BB68002B05D07B68002B02D07B88002BE5
:1052980003D1012387F82B304EE1FB6893F8513096
:1052A800DBB2042B03D0FB68052283F85120FB688E
:1052B80000225A65FB687A689A63FB687A88DA87FD
:1052C800FB687A889A87FB68BA681A63FB687A88E9
:1052D800DA86FB687A889A86FB6800221A64FB687B
:1052E80000225A64FB681B681B6803F04003402BCC
:1052F80007D0FB681B681A68FB681B6842F040020D
:105308001A60FB68DB68B3F5006F78D1FB685B68EF
:10531800002B02D07B8B012B66D1FB681B6B1A8894
:10532800FB681B68DA60FB681B6B9A1CFB681A63D6
:10533800FB68DB8E9BB2013B9AB2FB68DA8653E0CE
:10534800FB681B689B6803F00203022B1BD1FB68F8
:10535800DB8E9BB2002B16D0FB6A012B13D1FB68A6
:105368001B6B1A88FB681B68DA60FB681B6B9A1C4E
:10537800FB681A63FB68DB8E9BB2013B9AB2FB6841
:10538800DA860023FB62FB681B689B6803F0010355
:10539800012B19D1FB68DB8F9BB2002B14D0FB6863
:1053A8001B68DA68FB689B6B92B21A80FB689B6B80
:1053B8009A1CFB689A63FB68DB8F9BB2013B9AB22D
:1053C800FB68DA870123FB62FBF7DEF802467B6A9B
:1053D800D31ABA6B9A4207D8BB6BB3F1FF3F03D01D
:1053E800032387F82B30A7E0FB68DB8E9BB2002BEA
:1053F800A6D1FB68DB8F9BB2002BA1D17CE0FB68B8
:105408005B68002B02D07B8B012B6BD1FB681A6B7E
:10541800FB681B680C3312781A70FB681B6B5A1CEC
:10542800FB681A63FB68DB8E9BB2013B9AB2FB6890
:10543800DA8657E0FB681B689B6803F00203022BBF
:105448001CD1FB68DB8E9BB2002B17D0FB6A012BAB
:1054580014D1FB681A6BFB681B680C3312781A703E
:10546800FB681B6B5A1CFB681A63FB68DB8E9BB2DC
:10547800013B9AB2FB68DA860023FB62FB681B6873
:105488009B6803F00103012B19D1FB68DB8F9BB2EA
:10549800002B14D0FB681B68DA68FB689B6BD2B2E0
:1054A8001A70FB689B6B5A1CFB689A63FB68DB8F5E
:1054B8009BB2013B9AB2FB68DA870123FB62FBF7D8
:1054C80063F802467B6AD31ABA6B9A4203D8BB6B5D
:1054D800B3F1FF3F02D1BB6B002B03D1032387F845
:1054E8002B3029E0FB68DB8E9BB2002BA2D1FB6836
:1054F800DB8F9BB2002B9DD17A6AB96BF86800F0FC
:10550800BDF90346002B06D0012387F82B30FB6832
:1055180020225A6510E0FB689B68002B0BD1002302
:105528007B61FB681B68DB687B61FB681B689B68A9
:105538007B617B6900E000BFFB68012283F8512092
:10554800FB68002283F8502097F82B301846303734
:10555800BD4680BD80B588B000AF78607B681B68A9
:105568005B68FB617B681B689B68BB61BB699B09C7
:1055780003F00103002B0FD1BB6903F00103002BDB
:105588000AD0FB699B0903F00103002B04D07B6858
:105598001B6C78689847D8E0BB695B0803F0010387
:1055A800002B0AD0FB69DB0903F00103002B04D0B0
:1055B8007B685B6C78689847C7E0BB695B0903F058
:1055C8000103002B0CD1BB699B0903F00103002BDD
:1055D80006D1BB691B0A03F00103002B00F0B5805C
:1055E800FB695B0903F00103002B00F0AE80BB6987
:1055F8009B0903F00103002B23D07B6893F85130FB
:10560800DBB2032B11D07B685B6D43F004027B682F
:105618005A6500237B617B681B68DB687B617B685C
:105628001B689B687B617B690BE000233B617B689F
:105638001B68DB683B617B681B689B683B613B6957
:1056480083E0BB695B0903F00103002B14D07B687E
:105658005B6D43F001027B685A650023FB607B6841
:105668001B689B68FB607B681B681A687B681B6803
:1056780022F040021A60FB68BB691B0A03F00103B1
:10568800002B0CD07B685B6D43F008027B685A6581
:105698000023BB607B681B689B68BB60BB687B683A
:1056A8005B6D002B50D07B681B685A687B681B6851
:1056B80022F0E0025A607B68012283F85120FB69DE
:1056C80003F00203002B04D1FB6903F00103002B54
:1056D80034D07B681B685A687B681B6822F0030219
:1056E8005A607B68DB6C002B11D07B68DB6C184A36
:1056F8001A657B68DB6C1846FBF76CF90346002BD0
:1057080005D07B685B6D43F040027B685A657B6817
:105718009B6C002B16D07B689B6C0D4A1A657B68C6
:105728009B6C1846FBF756F90346002B0AD07B689A
:105738005B6D43F040027B685A6503E0786800F0CF
:1057480009F800E000BF00BF00BF2037BD4680BD9C
:105758008957000880B483B000AF786000BF0C3769
:10576800BD4680BC704780B483B000AF78607B686A
:1057780093F85130DBB218460C37BD4680BC7047F1
:1057880080B584B000AF78607B689B6BFB60FB687A
:105798000022DA87FB680022DA86F868FFF7DAFF6A
:1057A80000BF1037BD4680BD80B584B000AFF8603B
:1057B800B9603B601346FB714CE03B68B3F1FF3FB7
:1057C80048D0FAF7E1FE0246BB69D31A3A689A4212
:1057D80002D93B68002B3DD1FB681B685A68FB68FF
:1057E8001B6822F0E0025A60FB685B68B3F5827FB1
:1057F80011D1FB689B68B3F5004F04D0FB689B6828
:10580800B3F5806F07D1FB681B681A68FB681B68D3
:1058180022F040021A60FB689B6AB3F5005F0FD163
:10582800FB681B681A68FB681B6822F400521A6040
:10583800FB681B681A68FB681B6842F400521A6010
:10584800FB68012283F85120FB68002283F850206E
:1058580003230FE0FB681B689A68BB681340BA68AB
:105868009A420CBF01230023DBB21A46FB799A4205
:10587800A3D1002318461037BD4680BD80B588B037
:1058880002AFF860B9607A601B4B1B681B4AA2FB29
:1058980003235B0D4FF47A7202FB03F37B61FB6811
:1058A8005B68B3F5827F12D17B680093BB680022E6
:1058B8008021F868FFF778FF0346002B16D0FB68B5
:1058C8005B6D43F02002FB685A6503230FE07B6998
:1058D800002B0AD07B69013B7B61FB681B689B68D6
:1058E80003F08003802BF2D000E000BF00231846AD
:1058F8001837BD4680BD00BF14000020819F5E168A
:1059080080B582B000AF78607B68002B01D101239D
:105918001DE07B6893F83D30DBB2002B06D17B6835
:10592800002283F83C20786805F080F97B68022221
:1059380083F83D207B681A687B6804331946104653
:1059480000F03AFA7B68012283F83D2000231846CC
:105958000837BD4680BD80B483B000AF78607B68EF
:10596800022283F83D207B681B681A6A41F21113F2
:105978001340002B0FD17B681B681A6A40F244431E
:105988001340002B07D17B681B681A687B681B686B
:1059980022F001021A607B68012283F83D2000236F
:1059A80018460C37BD4680BC704780B485B000AF40
:1059B80078607B681B68DA687B681B6842F00102C4
:1059C800DA607B681B689B6803F00703FB60FB6871
:1059D800062B07D07B681B681A687B681B6842F037
:1059E80001021A60002318461437BD4680BC704770
:1059F80080B582B000AF78607B681B681B6903F0D4
:105A08000203022B22D17B681B68DB6803F00203C8
:105A1800022B1BD17B681B686FF002021A617B683E
:105A280001221A777B681B689B6903F00303002B2C
:105A380003D0786800F0A4F905E0786800F097F9D9
:105A4800786800F0A6F97B6800221A777B681B68E3
:105A58001B6903F00403042B22D17B681B68DB68F5
:105A680003F00403042B1BD17B681B686FF004024E
:105A78001A617B6802221A777B681B689B6903F4AA
:105A88004073002B03D0786800F07AF905E0786855
:105A980000F06DF9786800F07CF97B6800221A77CD
:105AA8007B681B681B6903F00803082B22D17B68FD
:105AB8001B68DB6803F00803082B1BD17B681B6895
:105AC8006FF008021A617B6804221A777B681B68EA
